:020000041000EA
:10000000002008205D0100101B0100101D010010E0
:100010001101001011010010110100101101001058
:100020001901001019010010190100101F01001022
:10003000110100101901001021010010230100100E
:100040001101001011010010110100101101001028
:100050001101001011010010110100101101001018
:100060001101001011010010110100101101001008
:1000700011010010110100101101001011010010F8
:1000800011010010110100101101001011010010E8
:1000900011010010110100101101001011010010D8
:1000A00011010010110100101101001011010010C8
:1000B00011010010110100101101001011010010B8
:1000C00011010010110100101101001011010010A8
:1000D0001101001011010010110100101101001098
:1000E0001101001011010010110100101101001088
:1000F0001101001011010010110100101101001078
:100100001101001011010010110100101101001067
:10011000EFF30580103800BE00BE00BE00BE00BE7A
:1001200000BE00BEF2EB88719CD40210C8D402104D
:10013000A001001090A31AE7D3DEFFFF42012110B7
:10014000FF01000080FB0200793512AB4FF0000088
:100150001E49086006C881F3088810474FF05040D8
:10016000006810B14FF00000F2E70DA40ECC00299A
:1001700002D000F012F8F9E71549164A002000E015
:1001800001C19142FCD11449884714498847144958
:10019000884700BEFDE701C901C29A42FBD3704700
:1001A000C8D402101001002000290020B8FC021061
:1001B0000000082000000820B8FC021000100820F1
:1001C00000100820000000007047000008ED00E06B
:1001D00000290020D0380020856101103502001070
:1001E0007D610110F8B500BF064B0749C91A891097
:1001F00048BF0131491003D0044B0BB101481847E7
:10020000704700BFF0280020F02800200000000008
:1002100008B5054B1BB105490548AFF30080BDE8A3
:100220000840FFF7E1BF00BF000000005838002081
:100230008848021070B516F00BF9192012F04AFE2A
:100240004FF00105192345EC44304FF4966013F04C
:10025000BBFD4FF00006192445EC4040104816F055
:1002600041F90CF00DFD0DF007F90DF02DFD0EF02C
:10027000E5F90EF09FFD0FF04DFC10F0EBF811F0DA
:100280003DF912F0AFF812F06BFCFA2013F09CFD70
:1002900046EC404040F2E24013F096FDDBE700BF41
:1002A00088480210C31C5B1A062B2DE9F0413BD98C
:1002B0000B6803604B6843608B688360CB68C360E6
:1002C0000422C368294FDFF8A8C000F1100112F022
:1002D00003084FEA9200C3F30726C3F307454FEA2A
:1002E00013645FFA83FE02F1010213D14346385CC6
:1002F0001CF806801CF8056080EA08001CF8045011
:1003000060F307031CF80E4066F30F2365F31743F1
:1003100064F31F6351F8100C2C2A83EA000341F8A0
:10032000043BD4D1BDE8F0810B7803704B78437067
:100330008B788370CB78C3700B7903714B794371E1
:100340008B798371CB79C3710B7A03724B7A4372C9
:100350008B7A8372CB7AC3720B7B03734B7B4373B1
:100360008B7B8373CB7BC373AAE700BFAC5A0210AD
:10037000B85A02102DE9F04F814609F103035B1AC8
:100380009BB0062B0846199140F2DA8206460968AE
:10039000D9F80020D9F804304A40C9F80020416853
:1003A000D9F808204B40C9F804308168D9F80C30DE
:1003B0004A40C9F80820C2685340C9F80C3099F87F
:1003C0000C2006F110050B95154699F8024099F896
:1003D00004300D9499F806400593009499F8034071
:1003E00099F8093099F801A00E9499F80F400193FB
:1003F000B0362246CDF820A02C4699F800B099F8E6
:10040000081099F8058099F80D0099F80AE099F814
:100410000EC099F8077099F80B30DDF804A0189613
:100420009CE10A99099C8BEA01020599039E81EAE5
:10043000050306998AEA07006140019C129184EA4B
:1004400006070D97DDE907174F4015970499029F9E
:100450008CEA080E79400C910A9981EA0A010E9102
:1004600000998BEA01010F9185EA0C011091059921
:1004700081EA0801119109994C40069913944E4064
:10048000D109089C01EB410101EBC10181EA420164
:100490001496424084EA0706079C049F82EA0B0BED
:1004A00081EA0B0B16960A9984EA0706009F81EAF7
:1004B0000204179682EA0A0A89F800B07A400E9F71
:1004C000F90901EB410101EBC10181EA47014C400F
:1004D000C10901EB410101EBC10181EA40010F9823
:1004E00081EA0A0AC10901EB410101EBC10181EA7C
:1004F00040014A40009289F80320DA0902EB4202E7
:10050000059902EBC20282EA430283EA0E035940D4
:1005100082EA010083EA0502109D059089F8040033
:10052000E80900EB400000EBC00080EA450080EAEB
:1005300002074FEADE1202EB4202119802EBC202FE
:1005400083EA0C0182EA4E0282EA010EC20902EB42
:10055000420202EBC20282EA400283EA08035340ED
:10056000129A0A9389F80730D3090D9D03EB4303D0
:10057000069903EBC30383EA42036A40514083EACE
:1005800001060398019B0999019689F80860139E5A
:10059000514053404240F00900EB400000EBC000E6
:1005A00080EA46004840E90901EB4101039089F8DF
:1005B000090001EBC101149881EA450181EA030CAD
:1005C000C30903EB430303EBC30383EA400383EA5A
:1005D0000205159B0C98DA0902EB420289F80140EA
:1005E00089F802A089F8057089F806E089F80AC040
:1005F000069589F80B5002EBC202079982EA430282
:10060000169E4340594082EA0100049D089A0299CF
:100610004FEAD61808EB48085A40594008EBC8087A
:100620006B400C9D88EA460888EA02024FEAD5181A
:1006300008EB480808EBC80888EA4508179D88EACF
:10064000010189F80E100291E90901EB410101EB6A
:10065000C10181EA450181EA03060B9D89F80C007E
:1006600089F80D2089F80F6015F8103C00998BEA85
:1006700003035FFA83FB89F800B015F80F3C04967A
:100680006340DCB289F8014015F80E3C08948AEA10
:100690000303DCB289F8024015F80D3C0D944B4081
:1006A000DCB289F8034015F80C3C05990E944B40D8
:1006B000DCB289F8044015F80B8C059487EA080829
:1006C0005FFA88F889F8058015F80A3C019E8EEAE1
:1006D0000303DCB289F8064000942C4615F8097C27
:1006E0000A9B5F40FFB289F8077015F8081C039B4E
:1006F0007140C9B289F8081015F807AC049E83EA66
:100700000A0A5FFA8AFA89F809A015F806EC8CEA59
:100710000E0E5FFA8EFE89F80AE015F8053C069D7C
:100720006B402546DBB289F80B3014F8044C44408A
:10073000E4B289F80C4015F8030C5040C0B289F8B7
:100740000D0015F802CC029A82EA0C0C5FFA8CFCC0
:1007500089F80EC015F8012C7240D2B2A94E059D41
:10076000715C755D06913146345D16F80BB0089EDC
:1007700007948C5D0D9E08940C4611F80810205CBF
:100780000A9114F80A1009900C912146A45D009E6C
:10079000CB5C885D0E9ECF5D11F8068011F80EA02F
:1007A0001E4611F80CC08B5C002100930B460A46D4
:1007B0000290084601940B9C039710340B94079CFD
:1007C00065F307010595069D64F30703099C65F32E
:1007D000070264F30F22089C0A9F64F30F236BF354
:1007E0000700019C67F30F20029F64F317420C9DE2
:1007F000039C67F3174364F31F6266F31F63009F54
:100800000B9C65F30F210496189E6CF317416AF355
:10081000174068F31F6167F31F60A642C9F8000024
:10082000C9F80410C9F80820C9F80C307FF4F9ADF4
:10083000199E09F1040506F1A004AC42E646DDF874
:1008400010C003D206F1A404A14517D3199DD5F811
:10085000A0406040C9F80000D5F8A4004140C9F8A4
:100860000410D5F8A8104A40C9F80820D5F8AC20E3
:100870005340C9F80C301BB0BDE8F08F96F8A0309B
:100880000A998BEA030389F8003096F8A1304B40AF
:1008900089F8013096F8A23005998AEA030389F8AD
:1008A000023096F8A3307B4089F8033096F8A430E4
:1008B0004B4089F8043096F8A5300C994B4089F8E4
:1008C000053096F8A63006998EEA030389F80630BB
:1008D00096F8A73088EA030389F8073096F8A8301D
:1008E0004B4089F8083096F8A93009994B4089F8AF
:1008F000093096F8AA3001994B4089F80A3096F8E9
:10090000AB3003994B4089F80B3096F8AC3007991F
:100910004B4089F80C3096F8AD3008994B4089F877
:100920000D3096F8AE3002994B4089F80E3096F8AB
:10093000AF308CEA030389F80F301BB0BDE8F08FAD
:100940000B7899F8001099F801204B4089F8003095
:10095000437899F80210534089F80130837899F868
:1009600003204B4089F80230C37899F804105340B3
:1009700089F80330037999F805204B4089F8043051
:10098000437999F80610534089F80530837999F82E
:1009900007204B4089F80630C37999F80810534076
:1009A00089F80730037A99F809204B4089F8083014
:1009B000437A0646534089F8093099F80A20837A29
:1009C000534089F80A30C37A99F80B1099F80C2033
:1009D0004B4089F80B30037B99F80D10534089F890
:1009E0000C30437B99F80E204B4089F80D30837B07
:1009F000534089F80E30C37B99F80F20534089F893
:100A00000F30DCE4B85A0210FFF74CBC0B4601462D
:100A10001846FFF7AFBC00BF10B5002019F046FA2A
:100A200030B1044619F042FA2346BDE81040184799
:100A3000042018F007FC034B034A0449036019F033
:100A40008BF900BFF4B202101D900110E0B2021049
:100A500010B50446204613F089FF00B110BDFFF722
:100A6000DBFFF7E713F0A6BF0122014B1A707047B6
:100A7000FF28002080687047704700BF00B50368FA
:100A800083B001915B6998470199081AB0FA80F028
:100A9000400903B000BD00BF03685B6A184700BF90
:100AA00003685B6A184700BF012070470120704748
:100AB00000200860704700BF0020704700B59DF817
:100AC00004C0CDF804C0D0F800C0DCF81CE0F44647
:100AD0005DF804EB604700BF00207047704700BF1F
:100AE00000207047002070470368DB6E184700BF86
:100AF0000020704700207047002070470368D3F83B
:100B0000B0301847000000009FED037B002082ED0D
:100B1000007B7047AFF30080000000000000000081
:100B200000207047704700BF00207047704700BF2B
:100B300004387047704700BF04207047036810B541
:100B4000D3F8B430984720B1BDE8104003685B6A21
:100B5000184710BD00B5036883B0CDE90021D3F874
:100B6000B030984738B1DDE9002103689B6A03B0D3
:100B70005DF804EB184703B000BD00BF0368DB6AF3
:100B8000184700BFD0F800C01A46DCF830301847CC
:100B9000036811465B6B1847036810B5D3F8B03093
:100BA0000446984748B123682046D3F8B0309847A8
:100BB000BDE8104003685B6F184710BD0020704708
:100BC000704700BF0020704700B5042183B001903A
:100BD00013F0F6FE019803B000BD00BF00B504217C
:100BE00083B0019013F0ECFE019803B000BD00BF8C
:100BF00000B5102183B0019013F0E2FE019803B01C
:100C000000BD00BF00B5043883B01021019013F07F
:100C1000D7FE019803B000BD2DE9F04F1E460368D2
:100C200085B09B69DDE90E9B174682460C469847C6
:100C30001BF0030280460BF0080539D1002F00F0AD
:100C40009080002D64D048452ED8A9EB0003454282
:100C50001BF0040F1C441F441E4428462B465ED044
:100C60009B46CDE90125444403903946304643462E
:100C7000A4EB080206F0ECFDDAF8003031465D69BD
:100C8000002233465046A847039BA9EB08091F449E
:100C9000019B5E4423B114F8013C013304F8013C8C
:100CA000029BC8451C44E0D9484605B0BDE8F08F1A
:100CB0000BF00203002F4BD0002B6ED0002D56D12D
:100CC0002B46C845F0D81BF0040F0BF00102C7D12A
:100CD0002AB38346444401950293DAF80020334650
:100CE0005569A4EB08013A465046A84714F8013C60
:100CF000A9EB0809013304F8013C029BC1451E44DD
:100D0000019B5F441C44E8D2484605B0BDE8F08F23
:100D10004845C9D81BF0040F03460546A0D1CDE9CC
:100D200001501D46DAF8002033462146D2F814B0AF
:100D300050463A46D847019BA9EB08091C44029B40
:100D4000C1452E441F44EDD2484605B0BDE8F08FA2
:100D500093B3ADB94845A7D82B4628460BF00102FE
:100D6000B6E705B303465D42C8F100030AE000237D
:100D70004042A9EB08020025144417441644A0E79A
:100D80003B463D46A9EB08073C443E4497B9C8455D
:100D90008AD838460BF001029AE715B14042034663
:100DA000E7E703468DE748453FF67EAF28464346D2
:100DB0004546B4E7002084E7002DD4D148453FF6EE
:100DC00073AF03460BF00102284681E710B50368B4
:100DD00082B0D3F8B43004469847236848B120461F
:100DE000D3F8B430984703681B6D02B0BDE81040DB
:100DF00018472046DB6D0DF107019847003818BFF2
:100E0000012002B010BD00BF036870B5D3F8B03048
:100E100004460D469847236848B12046D3F8B030C1
:100E2000984703682946BDE870405B6D184729461E
:100E30002046BDE8704001229B6D1847036870B5DD
:100E4000D3F8B43004460D469847236848B120468D
:100E5000D3F8B430984703682946BDE87040DB6D8D
:100E6000184729462046BDE8704001221B6E1847EE
:100E7000036810B5D3F8B43004469847236840B1EE
:100E80002046D3F8B4309847BDE8104003689B6E05
:100E900018472046BDE81040DB6C1847036810B5C2
:100EA000D3F8B43004469847236840B12046D3F8BD
:100EB000B4309847BDE8104003681B6F18472046C0
:100EC000DB6E9847003818BF012010BD036810B5CD
:100ED000D3F8B0300446984748B123682046D3F889
:100EE000B0309847BDE810400368DB6F18472368AF
:100EF0004FF0FF3120469B6F98470028F7D12168BB
:100F00004FF0FF324FF0FF332046496E88470843C9
:100F1000F5D110BD036870B5D3F8B03004460D4666
:100F20009847A8B123682046D3F8B03098470368A3
:100F3000D3F8AC30984758B123682046D3F8B03086
:100F4000984703682946BDE87040D3F8BC3018477D
:100F5000236829462046BDE87040D3F8B8301847CA
:100F6000F0B54D68DDF814E09DF81840D0F800C0E9
:100F700055B917460594DCF820401A4639467346A1
:100F8000A446BDE8F0406047CDE905E4DCF89840B0
:100F9000A446BDE8F040604770B503688CB0D3F854
:100FA000B030044615460E469847226858B1D2F82C
:100FB000B030204698472A46314603689B6D0CB0F6
:100FC000BDE870401847039009950295204600251A
:100FD00000240121CDE90A45074C00910494C8344E
:100FE000D2F88C50054B089602AA04A90594A8478C
:100FF00002980CB070BD00BFBC6002109C2B00209A
:1010000070B503688EB0D3F8B43004460E4615466A
:101010009847236858B12046D3F8B43098472A46F9
:10102000314603681B6E0EB0BDE870401847019052
:10103000204601249FED0C7B0D4A00950692C83294
:1010400007920C4A039402928DED0C7B8DED047B8C
:10105000D3F890300A960B9504AA06A998470498ED
:101060000EB070BDAFF30080000000000000000073
:10107000BC6002109C2B002070B505460E4608305F
:10108000286056F8083B0C46B34205D14A68314601
:10109000013222F0F1FB02E08A682B60AA60002393
:1010A000626826606A602372636070BD70B5044632
:1010B0000022124B103082B0A0602360D1E90053AF
:1010C0000F2B2271019307D904F1080001A919F02F
:1010D0007DFB019BA06023615A1C13B92B78037020
:1010E00003E012B1294622F0C7FB019BE36002B086
:1010F00070BD204618F098FA18F044F99C5E021072
:1011000030B505468DB0202018F09CF82B680446B9
:101110009B6B2846984701460B686846DB689847F2
:101120006846124919F0F2FC014606A8FFF7A4FF31
:10113000204606A9FFF7BAFF0D4B06A8236019F059
:101140006FFB684619F06CFB20460A4A0A4918F002
:1011500003FE06A819F064FBFFE7684619F060FB80
:10116000FFE7204618F086F818F00CF9BC4802108A
:10117000C45E02107D130010245C021030B50546D9
:101180008DB0202018F05EF82B6804469B6B284633
:10119000984701460B686846DB68984768461249DD
:1011A00019F0B4FC014606A8FFF766FF204606A921
:1011B000FFF77CFF0D4B06A8236019F031FB684652
:1011C00019F02EFB20460A4A0A4918F0C5FD06A868
:1011D00019F026FBFFE7684619F022FBFFE72046DF
:1011E00018F048F818F0CEF8BC480210C45E02109F
:1011F0007D130010245C021070B500F1080684B065
:10120000066039B3044608460D4622F0ABFB0F28B2
:10121000034603900DD8012808D12B7823720021B2
:10122000039B22686360D15404B070BD0028F6D0DF
:101230000AE00022019003A9204619F0C7FA0646E9
:10124000039A019BA26020601A462946304622F08C
:1012500013FBE4E7014819F089FA00BFEC480210DB
:1012600010B5202086B017F0EDFF0E490446684601
:10127000FFF7C2FF69462046FFF718FF0A4B684692
:10128000236019F0CDFA2046084A094918F064FD98
:10129000684619F0C5FAFFE7204617F0EBFF18F093
:1012A00071F800BF20490210C45E02107D130010C7
:1012B000245C021010B5202086B017F0C3FF0E4941
:1012C00004466846FFF798FF69462046FFF7EEFEA2
:1012D0000A4B6846236019F0A3FA2046084A0949D8
:1012E00018F03AFD684619F09BFAFFE7204617F020
:1012F000C1FF18F047F800BF58490210C45E021041
:101300007D130010245C021050F8043C10B5D3F893
:10131000B4300438984720B1BDE8104003685B6AD8
:10132000184710BD00B550F8043C83B0CDE900214A
:10133000D3F8B0300438984738B1DDE900210368AC
:101340009B6A03B05DF804EB184703B000BD00BF13
:101350000346094A10B50446026053F8080F0833E3
:10136000984203D02169013113F02AFB204618F07E
:101370005BF9204610BD00BF9C5E02100346094A7F
:1013800010B50446026053F8080F0833984203D0A2
:101390002169013113F014FB204618F045F920466D
:1013A00010BD00BF9C5E02100346094A10B50446FA
:1013B000026053F8080F0833984203D021690131C5
:1013C00013F0FEFA204618F02FF9204610BD00BF9A
:1013D0009C5E02100346094A10B50446026053F8A9
:1013E000080F0833984203D02169013113F0E8FA5D
:1013F000204618F019F9204610BD00BF9C5E02106F
:101400000346094A10B50446026053F8080F083332
:10141000984203D02169013113F0D2FA204618F026
:1014200003F9204610BD00BF9C5E02100346094A26
:1014300010B50446026053F8080F0833984203D0F1
:101440002169013113F0BCFA204618F0EDF820466E
:1014500010BD00BF9C5E021003460B4A10B5044647
:10146000026053F8080F0833984203D02169013114
:1014700013F0A6FA204618F0D7F82046202113F0E2
:101480009FFA204610BD00BF9C5E021003460B4A27
:1014900010B50446026053F8080F0833984203D091
:1014A0002169013113F08CFA204618F0BDF820466E
:1014B000202113F085FA204610BD00BF9C5E02106B
:1014C00003460B4A10B50446026053F8080F083370
:1014D000984203D02169013113F072FA204618F0C6
:1014E000A3F82046202113F06BFA204610BD00BF60
:1014F0009C5E021003460B4A10B50446026053F886
:10150000080F0833984203D02169013113F058FACB
:10151000204618F089F82046202113F051FA204681
:1015200010BD00BF9C5E021003460B4A10B5044676
:10153000026053F8080F0833984203D02169013143
:1015400013F03EFA204618F06FF82046202113F0E1
:1015500037FA204610BD00BF9C5E021003460B4ABE
:1015600010B50446026053F8080F0833984203D0C0
:101570002169013113F024FA204618F055F820466D
:10158000202113F01DFA204610BD00BF9C5E021002
:10159000034600214FF0070C10B5084AD9731068B4
:1015A000948892F806E0986003F108029C8183F821
:1015B0000EE018461A60C3F804C010BD7849021046
:1015C0000321002200B5074B4160B3F800E093F817
:1015D00002C000F10803A0F808E0036080F80AC028
:1015E000C27200BD8049021003464FF0000C10B5D6
:1015F0004FF0090E074A83F811C003CA14789860A7
:1016000003F10802D9601C7418461A60C3F804E09C
:1016100010BD00BF8449021010B5036886B0D3F82E
:10162000B4300446984750B123682046D3F8B4300C
:1016300098470368DB6C06B0BDE8104018471A4BAA
:10164000D3E8AF2FD20716D59FED157B01210022DD
:1016500000238DED007B0391CDE90423134A236819
:1016600002922046D3F89030114904AA9847DDE948
:10167000040106B010BD184618F0DAFB0028E3D0CC
:101680000C490B4A01F1C800C2E900100A4820F0D9
:1016900017FE054818F0E8FBD6E700BFAFF300805F
:1016A000FFFFFFFFFFFFFFFF702B00209C2B0020A0
:1016B00010290020645F0210350B001070B51E4623
:1016C000036884B0D3F8B03004461546984760B13B
:1016D00023682046D3F8B03098472A46334601683D
:1016E000496E04B0BDE870400847154BD3E8AF2FF2
:1016F000D20714D54FF0010ED4F800C02B46204677
:101700003446CDF800E0CDE902340E490E4BDCF84A
:101710008C4002AAA047DDE9020104B070BD184662
:1017200018F086FB0028E5D00649084A08480A60F8
:10173000C8324A6020F0C4FD014818F095FBD9E793
:10174000702B0020102900209C2B0020645F0210C9
:10175000350B0010036810B5D3F8B4300446984731
:1017600048B123682046D3F8B4309847BDE810400C
:101770000368DB6E1847134BD3E8AF2FD20706D4AC
:101780000DE023682046D3F8B43098470446236818
:101790002046D3F8B43098470028F2D110BD18463F
:1017A00018F046FB0028F2D00749084A01F1C800AA
:1017B000C2E90010064820F083FD024818F054FBEF
:1017C000E5E700BF702B0020645F021010290020A5
:1017D000350B001070B5036882B0D3F8B030044602
:1017E0000E46984700283CD023682046D3F8B030F6
:1017F00098470368214AD3F8A8500446954232D14D
:10180000D3F8B030984760B323682046D3F8B0309F
:10181000984703680446D3F8A820AA4229D1D3F8F0
:10182000B03001929847E0B123682046D3F8B03039
:1018300098470368019AD3F8A8500446954212D1FC
:10184000D3F8B030984760B123682046D3F8B03061
:10185000984731460368D3F8A83002B0BDE870401D
:10186000184702B070BD31462B4602B0BDE870404B
:101870001847314602B0BDE870401047D517001038
:1018800030B504461A4B103083B0A0602360D2E913
:1018900000230F2B15462171019310D85A1C3BB120
:1018A000294621F0E9FF2046019BE36003B030BDEB
:1018B0002B7803702046019BE36003B030BD00220B
:1018C00004F1080001A918F081FF019BA0602361C9
:1018D0005A1C002BECD0002AE2D14FF0FF332046F7
:1018E000E36003B030BD204617F09EFE17F04AFDBE
:1018F0009C5E02100023D1E9001270B58AB0044644
:101900000E4606AD04A802F12F01049505938DF84B
:101910001830019218F0DEFF2B4B0599019A5B1AE3
:101920009A424CD8314604A819F0C4F8059B03F13B
:10193000004330332E2B3FD92F22244904A819F01D
:10194000B9F80022224B04F110002360059B049E8D
:101950000F2B0393A060227116D85A1C83B1314615
:1019600021F08AFF039B0498E360A84203D0069904
:10197000013113F025F82046164B23600AB070BDE4
:1019800033780370039BEEE704F1080003A918F015
:101990001DFF039BA06023615A1C002BF0D0002A7E
:1019A000DDD14FF0FF33DEE7204617F03DFE04A8FF
:1019B00018F036FF17F0E6FC074818F0EFFE06486F
:1019C00018F0ECFEF3E700BFFEFFFF7FA84902100E
:1019D0009C5E02103C5F021090490210496819B9E0
:1019E000036811465B69184710B588B00190202044
:1019F00017F028FC019904460B6802A8DB68984799
:101A0000204602A9FFF776FF02A818F009FF20463A
:101A1000064A074918F0A0F902E002A818F000FFF2
:101A2000204617F027FC17F0ADFC00BFA9130010EB
:101A30004C5D021010B50C46646888B011469DF8E4
:101A40002CE01A460A9B44B9CDF828E00468E46902
:101A5000A44608B0BDE8104060470190202017F070
:101A6000F1FB019904460B6802A8DB689847204601
:101A700002A9FFF73FFF02A818F0D2FE2046064A4F
:101A8000064918F069F902E002A818F0C9FE2046DC
:101A900017F0F0FB17F076FCA91300104C5D021054
:101AA00010B58E46DEF804E088B011461A469DF85F
:101AB0002830BEF1000F08D1D0F800C0DCF83CE0BF
:101AC000F44608B0BDE8104060470190202017F0B0
:101AD000B9FB019904460B6802A8DB6898472046C9
:101AE00002A9FFF707FF02A818F09AFE2046064A4F
:101AF000064918F031F902E002A818F091FE2046DC
:101B000017F0B8FB17F03EFCA91300104C5D021053
:101B100010B58E461146DEF8042088B042B91A4648
:101B2000D0F800C0DCF8403008B0BDE810401847DD
:101B30000190202017F086FB019904460B6802A84B
:101B4000DB689847204602A9FFF7D4FE02A818F0E8
:101B500067FE2046064A074918F0FEF802E002A890
:101B600018F05EFE204617F085FB17F00BFC00BF57
:101B7000A91300104C5D02102DE9F04F2DED028BE2
:101B8000036815460A685B6AD9B0946A8946984723
:101B9000634B02469C4262D19FED5F8B0023CDE9EF
:101BA00006506049D9F800000291C46A5E495F4D51
:101BB0008C4203958DED088B15461F466DD1012390
:101BC0004FF0FF328DF849314FF480730DF1480822
:101BD000CDE95423C8F81081002D69D041464FF457
:101BE0008074DFF84CB126E04E4B00940A93C83362
:101BF0000B9300230193C36A0E918DED108B5A460F
:101C000048460F940AA99847DBF80430D8F8101119
:101C1000002B61D1012202A80092224600F0D8FFD9
:101C20002C1B2546D8E9434167F1000755EA070315
:101C30000ED0D9F80000A54277F10003384A836A34
:101C400038BF2C469342CFD0224648469847DBE720
:101C500041450DD059B0BDEC028BBDE8F08F29464F
:101C60004846234659B0BDEC028BBDE8F04F1847FB
:101C7000D8F808319C4228BF1C46002CEAD0631ECD
:101C8000DB4300224444234404F8012D9C42FBD151
:101C900059B0BDEC028BBDE8F08F00924846244A53
:101CA00002A90193A04759B0BDEC028BBDE8F08FAB
:101CB000FF234FF48074E3E7D8F81031434526D171
:101CC000D8E94232934228BF13460022FBB1013BC0
:101CD00008F80320DBB1FAE7202017F0B3FA044636
:101CE00002A90AA8FFF754FC20460AA9FFF702FE42
:101CF0000AA818F095FD20460E4A0F4918F02CF856
:101D00000AA818F08DFD204617F0B4FAD4E717F0B2
:101D100039FB00BFAFF300800000000000000000AE
:101D2000411D0010BC600210E11E00108461021011
:101D30009C2B0020A91300104C5D02100000000035
:101D40002DE9F04F2DED028B9FED5B8BD9B0CDE9E6
:101D5000061216465A4902680291D46A59495A4DE8
:101D60008C424FF000038DED088B039552D18146D4
:101D70001F464FF0FF3001234FF480710DF14808EA
:101D80003546CDE954018DF84931C8F81081002E4F
:101D90005FD041464FF48074DFF834B126E0484B01
:101DA00000940A93C8330B9300230193D36A0E91D6
:101DB0008DED108B5A4648460F940AA99847DBF8D8
:101DC0000430D8F81011002B57D1012202A800923C
:101DD000224600F0FDFE2C1B2546D8E9434167F161
:101DE000000755EA07030ED0D9F80020A54277F185
:101DF00000033648936A38BF2C468342CFD0224630
:101E000048469847DBE741450ED059B0BDEC028B00
:101E1000BDE8F08F2E4A02A900960193A04759B061
:101E2000BDEC028BBDE8F08FD8F808319C4228BF8A
:101E30001C46002CE9D0631EDB43002244442344AB
:101E400004F8012D9C42FBD159B0BDEC028BBDE8DA
:101E5000F08FFF234FF48074EEE7D8F8103143453C
:101E600026D1D8E94232934228BF13460022FBB163
:101E7000013B08F80320DBB1FAE7202017F0E2F974
:101E8000044602A90AA8FFF783FB20460AA9FFF728
:101E900031FD0AA818F0C4FC20460E4A0E4917F07E
:101EA0005BFF0AA818F0BCFC204617F0E3F9D4E762
:101EB00017F068FAAFF30080000000000000000097
:101EC000BC600210E11E001084610210411D001070
:101ED0009C2B0020A91300104C5D02100000000094
:101EE0002DE9F04F2DED028BADF2546D012336AC90
:101EF0004FF480757A944FF0FF34DDF88066DDF89A
:101F000084768DF8D93156EA0703CDE978450A96EB
:101F10000B9700F026824FF480739FEDB18BCDE9D3
:101F20000C120290099336A9DDE909329A420B9B03
:101F300073F10003029B38BF09921868AC4A836AA8
:101F4000934240F0FE810022AA4DC46A0E95C83526
:101F50000F95A94D099EAC428DED148BCDE907621A
:101F60001291139640F0F2817CAC01224FF48075FF
:101F7000C0944FF0FF348DF8F122CDE9BE45002E1C
:101F800000F0EB814FF480717CAA0691DDE9061424
:101F90008C42089971F10001954938BF06948B4233
:101FA00040F070810021934DC46A1695C83517958D
:101FB000914D069EAC428DED1C8BCDE904611A92C9
:101FC0001B9640F065810121C2AC4FF48075CDF8BD
:101FD00018444FF0FF348DF809140DF58261C1E902
:101FE0000045002E00F096814FF48072C2A9039242
:101FF000DDE903249442059A72F100027C4A38BF5D
:102000000394934240F0FC8000227A4DC46A7A4ED9
:10201000039F1E95B44205F1C8058DED248BB9468A
:1020200093461F952291239740F0F08001220DF5F1
:1020300084644FF48075CDF830454FF0FF348DF84F
:1020400021250DF5A562C2E90045002F00F016819B
:102050004FF480750DF58462A9457BF10001644958
:1020600038BF4D468B4274D10021624EC46A269619
:10207000C8362796604E8DED2C8BB4422F468A468B
:10208000CDE92A256CD101219FED577B8DF83916BA
:102090000DF5A7660DF5C86181ED007BC6F81061EE
:1020A000002D00F0988031464FF4807428E0514BA9
:1020B00000942E93C8332F9300230193C36A329167
:1020C0008DED348B4D4A029833942EA998474B4B93
:1020D000D6F810115B68002B40F05F81012226A822
:1020E0000092224600F074FD3C1B2746D6E943418E
:1020F0006AF1000A57EA0A030ED0029B1868836A45
:10210000A7427AF100023A4A38BF3C469342CED009
:10211000224602989847DAE7B142DDF8302526D00A
:10212000002301263549CDE900361EA82B46FFF7CE
:1021300081FCB9EB0505A9466BF1000B59EA0B03CD
:10214000DDF83025DDF82C5522D0029B1868836A13
:1021500082E7114602982A469847DDF83025DFE7E6
:102160000191264A029826A90095A047F5E7D6F8DE
:1021700008319C4228BF1C46002CD1D0631EDB4393
:1021800000213444234404F8011D9C42FBD1C7E7DD
:102190000DF584639A42DDF818143ED00023012423
:1021A000CDE90034039C0A462346144916A8FFF7DC
:1021B00041FC049ADDF81404131B059A049362F1A0
:1021C00000021343DDF818140592039038D0029BE7
:1021D0001868836A0CE7FF234FF48074CFE700BFD1
:1021E0000000000000000000FFFFFFFF00010000F2
:1021F000411D0010BC600210E11E00109C2B00204D
:10220000DDE902029847DDF81814C7E70192029849
:102210009F4A1EA90097A047F5E7DDF82835AB4295
:1022200028BF2B46002BB9D05A1E0DF58460D2432F
:10223000034400201A4403F8010D9342FBD1ADE79B
:10224000C2AB9942C09A2AD000230120069CCDE956
:1022500000308F4923460EA8FFF7ECFB079A131BAB
:10226000089A079362F100010B43DDE9BF02089170
:10227000069028D0029B1868836A87E6FF224FF4F5
:102280008073D2E711460298069A9847C09ADBE716
:10229000019102987E4A16A90096A047F6E7DDF85C
:1022A00010340146984228BF19460B460029CBD06E
:1022B0000139C2A8C94303440020194403F8010DA1
:1022C0008B42FBD1C0E77CAB9A427A9926D000239F
:1022D0000A460121CDE900310C98099D03680D994A
:1022E000D3F898402B46A047DDE979010A9A099076
:1022F000531B0B9A0A9362F1000213430B927FF473
:1023000013AE36AB99423ED00DF2546DBDEC028B4C
:10231000BDE8F08FFF214FF48073CAE7BE9B0246F1
:10232000984228BF1A461346002AD0D0013A7CA80A
:10233000D243034400201A4403F8010D9342FBD119
:10234000C5E7099A029898477A99C0E701920298DE
:102350004F4A0EA90096A047F6E7FF224FF480737C
:10236000E5E7FF224FF48073D243002136A80344EF
:102370001A4403F8011D9342FBD10DF2546DBDECDC
:10238000028BBDE8F08F789B0246984228BF1A4620
:102390001346002AB8D0013AE6E7202016F052FF93
:1023A000044626A92EA8FFF7F3F820462EA9FFF72A
:1023B000A1FA2EA818F034FA2046364A364917F00A
:1023C000CBFCC09B7CAA93424ED1DDE9BE218A4260
:1023D00028BF0A467CAB0021002A45D0013A995417
:1023E000002AFBD140E02EA818F01AFA204616F079
:1023F00041FFD6F81031B3420BD1D6E942329342B5
:1024000028BF1346002223B1013BF254002BFBD11D
:10241000FFE7DDF830350DF5846293420FD1DDF82A
:102420002C35DDF8282500219A4228BF1A460DF5E3
:10243000846322B1013A9954002AFBD1FFE7DDF809
:102440001834C2AA9342BCD1DDF81414DDF810246C
:10245000C2AB8A4228BF0A460021002AB1D0013A05
:102460009954002AFBD1ACE77A9B36AA93420BD150
:10247000DDE978218A4228BF0A4636AB00211AB12D
:10248000013A9954002AFBD116F07CFFB1E700BF56
:102490009C2B0020A91300104C5D02102F4A0260F3
:1024A00001B9704730B589B0019000F05FFB019B26
:1024B00010B9184609B030BD00F05AFB019B20B995
:1024C000019300F05BFB019BE8B1019300F050FB2E
:1024D0000128019BEDD1202016F0B4FE20490546CD
:1024E00002A80446FEF788FE224606212846FFF78A
:1024F000C7F91C4B20462B6018F092F928461A4A5F
:102500001A4917F029FC202016F09CFE18490546B0
:1025100002A80446FEF770FE224606212846FFF771
:10252000AFF9104B20462B6018F07AF928460E4A76
:102530000E4917F011FC204618F072F9284616F0E3
:1025400099FE16F01FFFF9E7204618F069F92846B2
:1025500016F090FE16F016FFF9E700BFD85E0210E5
:102560002C4A0210446002102D1400105C5E021010
:10257000D84902102DE9F04F85B00D469246994694
:1025800004469DF8388005E023682046D3F8B03033
:102590009847044623682046D3F8B030984700286F
:1025A000F2D1DAF800B0CAF80000BBF1000F3FD05A
:1025B000236820461B6F984798B939E0DB6C2046AA
:1025C000984706460F46D4F800C0CDF80080CDE904
:1025D00002674B4629462046DCF88C6002AAB047C9
:1025E00038BB236820461B6D984723680028E5D137
:1025F0009B6C204698472B680028B8BF4FF0FF30EF
:10260000D3F898604FF00003A8BF0130CDE900086F
:10261000494628461A46B04770B9236820465B6F82
:102620009847DAF8003001335B45CAF80030BFD371
:10263000002005B0BDE8F08F0120FAE730B503684F
:1026400085B0D3F8B03004460D46984758B123689A
:102650002046D3F8B0309847294603689B6F05B0F1
:10266000BDE830401847124BD3E8AF2FD2070DD545
:102670004FF0010C20460F4B0F4903AACDF800C0C4
:102680000395FFF777FF039805B030BD184617F0A4
:10269000CFFB0028ECD00849084A09480A60C83234
:1026A0004A601FF00DFE024817F0DEFBE0E700BFB6
:1026B000702B00209C2B002010290020645F02104A
:1026C000350B0010002AACBF572337232DE9F04FFC
:1026D00091B000900193002900F0818000230DF15A
:1026E000180A0C46D0469B46DFF8409122F0004580
:1026F000CDF810A00CAE05938DF818303DE0019B8D
:102700001A448DF80F2000220AA80BF101010A9645
:102710000B928DF8302018F0DDF80B9A4A457FD0E7
:1027200001220AA80DF10F0118F0C4F90B9AA9EBC8
:1027300002025A4571D35A4641460AA818F0BAF91E
:102740000498504521D0DDE90A32B3422AD0CDE9C0
:1027500004320C9B069A0693F8B10C920A9000235F
:1027600003700A98B04203D00C99013112F028F995
:10277000DDE9048BA54222D83C46B4FBF5F705FB06
:102780001742092ABBD83032BBE70A9BB34208D0B4
:1027900004930B9B05930C9B06930CA80A96064684
:1027A000DDE70B9A32B1012A24D0314621F064F8DA
:1027B0000B9A04980023059283540A98CFE7009B54
:1027C000D04503F10800186018D0069AC3F80080BD
:1027D0009A601846C3F804B011B0BDE8F08F01222A
:1027E0004FF0300300F10801C0E90012038111B07D
:1027F000BDE8F08F9DF830300370D9E751460BF1FA
:10280000010221F039F8009BE3E70AA818F008F864
:1028100004A818F005F816F0B5FD034817F0BEFF40
:10282000014817F0BBFF00BF90490210FEFFFF7F79
:1028300000232DE9F04FD1E900769FB0044614AD96
:1028400012A8B11C9046129513938DF8503018F0D1
:1028500041F88D4B139A9B1A9E4200F2FC8032463F
:10286000394612A818F026F9139B03F100430333ED
:10287000012B40F2ED800222844912A818F01AF9C7
:1028800041460A2218A8FFF71DFF129B1398199AB8
:10289000AB4200EB020600F0B98014998E42189901
:1028A00005D91AAFB94202D01A9FBE427BD9764BE6
:1028B0001B1A9A4200F2C48012A818F0FBF80146D5
:1028C0000EAE0C9651F8082B07468A4200F0A680FF
:1028D0000C9282680E920022396079683A720D91EA
:1028E0007A600D9B03F100431B33192B40F2B68035
:1028F0001A2267490CA80DF1300B18F0DBF80146DD
:1029000008AF069751F8082B03468A4274D0069206
:10291000826808924FF000084FF0010C1960596866
:10292000DFF878E104F110000F29C3F8048083F880
:102930000880DDF8189007910591C4F800E084F84C
:1029400004C0A06047D801EB0C0239B3494620F01F
:1029500093FF059B0698E360B84203D008990131C4
:1029600012F02EF80C98B04203D00E99013112F0FB
:1029700027F818981AAB984203D01A99013112F02F
:102980001FF81298A84203D01499013112F018F8D8
:102990002046404B23601FB0BDE8F08F99F800300F
:1029A0000370059BD6E700220090114618A818F086
:1029B00021F801460EAE0C9651F8083B07468B42B3
:1029C00036D00C9383680E9300237A6839600D9299
:1029D0007B603B7285E7424604F1080005A917F0C9
:1029E000F5FE059BA06023615A1C002BD6D0002A5F
:1029F000ACD14FF0FF33ADE7426803900132384667
:102A0000029120F039FFDDE9021383E70F2E0DD983
:102A100018991AAFB9427FF447AF4DE74268304684
:102A20000132029120F028FF029954E7189943E7F8
:102A3000426830460132029120F01EFF0299C3E73E
:102A4000154817F0ABFE12A817F0EAFE16F09AFC34
:102A5000114817F0A3FE104817F0A0FE0E480DF124
:102A6000300B17F09BFE18A817F0DAFEEBE7EAE749
:102A7000204616F0D9FD06A817F0D2FE584617F0EA
:102A8000CFFEF0E7FAE700BFFEFFFF7F784A0210B3
:102A90007C4A0210505F0210904902109C5E0210A6
:102AA00070B50D4601681E46DFF88CC08B69044680
:102AB000634588B012D14B69019211469847019A3B
:102AC000824211D1D4F800C02046DCF83C403346A5
:102AD0002946A44608B0BDE87040604711460192FF
:102AE0009847019A0028EDD12020019216F0AAFB08
:102AF000236805469B6B2046984701460B6802A851
:102B0000DB6898472846019A02A9FFF791FE02A8C0
:102B100017F086FE2846064A064917F01DF902E01E
:102B200002A817F07DFE284616F0A4FB16F02AFC3A
:102B300001140010BC5D02107D0A0010014902481A
:102B4000FEF75ABB884C02109C2B0020014902481A
:102B5000FEF752BB984A0210842B0020014B024A18
:102B60001A607047B42B0020586002100020704794
:102B7000014B1878704700BFC5380020002070470F
:102B8000704700BF0438704710B4D0E90532C469FB
:102B90009A4274F1000C28BF002310BC006938BFB2
:102BA0009B1A10440B60704700B5202183B0019040
:102BB00011F006FF019803B000BD00BF00B5043856
:102BC00083B02021019011F0FBFE019803B000BDFD
:102BD00030B503460069144683B0F8B1E1B1D3E9DA
:102BE000052CDD69944575F1000519D2A2EB0C02A4
:102BF000A24228BF22461546A41A6044019320F041
:102C000025FB019B2046D3E90612491942F1000237
:102C1000C3E9061203B030BD0D46F3E70546F1E700
:102C200000252A46E9E700BFF0B500F1080583B0AA
:102C3000056011B9134817F099FD044608460F4680
:102C400020F090FE0F280646019009D90022204668
:102C500001A917F0BBFD019B0546A360206005E0BC
:102C6000012802D13B78237205E020B13246394673
:102C7000284620F001FE0021019B22686360D154A8
:102C800003B0F0BDEC48021030B58E464FF0000C9A
:102C9000DEF8005089B004466B467046CDE900CCA2
:102CA000154A1649AD68A84728B1DDE90023C4E9F3
:102CB000042309B030BD202016F0C4FA10490446A0
:102CC00002A8FFF7B1FF0121204602AAFEF7D8FDB6
:102CD0000C4B02A8236017F0A3FD20460A4A0B49BB
:102CE00017F03AF802E002A817F09AFD204616F015
:102CF000C1FA16F047FB00BFAC6002109C4A0210FC
:102D0000AC4A0210B05E0210D5130010FC5B02103A
:102D1000043070472DE9F04F884608224FF0000B31
:102D20000C7BD0F8A01083B00C7098F80040D0F85D
:102D3000A0106D4B0C7198F80D40D0F8A01008EB66
:102D400002054C7098F80140D0F8A0104C7198F82A
:102D50000E40D0F8A0108C7098F80240D0F8A01067
:102D60008C7198F80F40D0F8A010CC7098F8034000
:102D7000D0F8A010CC710BF007071E7818F80740A8
:102D8000D0F8A01034440BF1010C8C540CF0070C5B
:102D900093F801E018F80C40D0F8A01074441144E6
:102DA0000BF102064C7006F0070693F802E018F8E3
:102DB0000640D0F8A010744411440BF1030E8C703F
:102DC0000EF0070118F801E04144D0F8A04000914E
:102DD000D97814448E4408EB06090BF1040684F8F4
:102DE00003E006F0070693F804E018F80640D0F870
:102DF000A010744411440C710BF1050404F0070495
:102E0000464418F804E0D0F8A01001965E79114409
:102E1000B64481F805E00BF1060101F0070193F8D3
:102E200006E018F801A008EB0406D0F8A040F24430
:102E3000144484F806A015F801EDDC794744A64453
:102E4000D0F8A040C444144484F807E093F808E0A4
:102E5000D0F8A0403F7A1444774427725C7A9CF8FB
:102E6000087041442744D0F8A0400BF1FF3B1444C4
:102E7000677293F80AC0D0F8A04099F8087014441B
:102E80006744A772009F93F80BC0D0F8A0403F7A28
:102E900014446744E772019F93F80CC0D0F8A04037
:102EA0003F7A1444674427735F7BD0F8A040367A9A
:102EB00014443E4466739E7BD0F8A040097A1444C3
:102EC0003144A173DE7BD0F8A0102C7A1144344435
:102ED0001BF1080FCC7303F1100302F110027FF411
:102EE0004AAF03B0BDE8F08F786702102DE9F04FCC
:102EF000054685B04C78CDE90232D5F8D830D5F802
:102F0000A0205C6091F803800195C3F80C804E7995
:102F1000DFF8A0C35E6191F80790E548C3F81C9004
:102F200015780F782F44FFB21F60557891F802B0E2
:102F30008BEA050BC3F808B092F802E00D797544EE
:102F4000EDB21D6192F803E0897981EA0E01996181
:102F500092F80BE01CF801A0F2448AEA090A5FFA31
:102F60008AFAC3F81CA092F80A9010F805E08EEADD
:102F7000090E06EB0E095FFA89F9C3F8149092F86E
:102F800009E01CF80B60764486EA0806F6B2DE60BB
:102F900092F8088010F807E08EEA080E04EB0E089D
:102FA0005FFA88F8C3F8048092F80FE01CF8094033
:102FB00074444C40E4B29C6192F80EE0815D81EA79
:102FC0000E0105EB010E5FFA8EFEC3F810E0517B97
:102FD0001CF808500D4485EA0B05EDB29D6092F88F
:102FE0000CB010F80A1081EA0B013944C9B219601B
:102FF00092F813B01CF80E705F4487EA0907FFB21D
:103000005F6192F812B010F8059089EA0B09B1449B
:103010005FFA89F6DE6092F811B01CF80190D9448D
:1030200089EA08095FFA89F9C3F8049092F810B0A8
:1030300010F8048088EA0B08D0445FFA88F8C3F8D7
:103040001C8092F817B01CF806A0DA448AEA0E0A2F
:103050005FFA8AFEC3F810E092F816B010F809A0E3
:103060008AEA0B0AAA445FFA8AFAC3F808A092F81F
:1030700015B01CF808505D444D40EDB21D6092F84B
:1030800014B0C15D81EA0B012144CCB29C6192F87D
:103090001BB01CF80A1059447140CEB2DE6092F8A1
:1030A0001AB0415D81EA0B0149445FFA81F9C3F826
:1030B000049092F819B01CF80410594481EA0801F0
:1030C0005FFA81F8C3F81C8092F818B010F80E105F
:1030D00081EA0B013944CFB25F6192F81FB01CF84E
:1030E0000910594481EA0A01C9B2996092F81EB0E8
:1030F00010F808A08AEA0B0AAA445FFA8AF51D6054
:1031000092F81DB01CF807A0DA448AEA040A5FFAB4
:103110008AF49C6192F81CB010F806A08AEA0B0AA7
:10312000F2445FFA8AFEC3F810E092F823B01CF86C
:1031300005A0DA448AEA090A5FFA8AF9C3F804901A
:1031400092F822B010F804A08AEA0B0AC2445FFA8F
:103150008AF8C3F81C8092F821B01CF80EA0DA445B
:103160008AEA070A5FFA8AF75F6192F820B010F8DE
:1031700001A08AEA0B0AB2445FFA8AF6DE6092F88E
:1031800027B01CF808A0DA448AEA050A5FFA8AF533
:103190001D6092F826B010F807A08AEA0B0AA24434
:1031A0005FFA8AF49C6192F825B01CF806A0DA4414
:1031B0008AEA0E0A5FFA8AFEC3F810E092F824B099
:1031C00010F809A08AEA0B0A8A445FFA8AF199602A
:1031D00092F82BB01CF804A0DA448AEA080A5FFAD5
:1031E0008AF8C3F81C8092F82AB010F80EA08AEA78
:1031F0000B0ABA445FFA8AF75F6192F829B01CF8AB
:1032000001A0DA448AEA060A5FFA8AF6DE6092F8DA
:1032100028B010F805A08AEA0B0ACA445FFA8AF9B6
:10322000C3F8049092F82FB01CF807A0DA448AEA99
:10323000040A5FFA8AF49C6192F82EB010F806A096
:103240008AEA0B0AF2445FFA8AFEC3F810E092F8A9
:103250002DB01CF809A0DA448AEA010A5FFA8AF163
:10326000996092F82CB010F808A08AEA0B0AAA44D8
:103270005FFA8AF51D6092F833B01CF80EA0DA44AC
:103280008AEA070A5FFA8AF75F6192F832B010F8AB
:1032900001A08AEA0B0AB2445FFA8AF6DE6092F86D
:1032A00031B01CF805A0DA448AEA090A04E000BF3C
:1032B00078650210786602105FFA8AF9C3F8049004
:1032C00092F830B010F804A08AEA0B0AC2445FFA00
:1032D0008AF8C3F81C8092F837B01CF806A0DA44CC
:1032E0008AEA0E0A5FFA8AFEC3F810E092F836B056
:1032F00010F809A08AEA0B0A8A445FFA8AF19960F9
:1033000092F835B01CF808A0DA448AEA050A5FFA98
:103310008AF51D6092F834B010F807A08AEA0B0A0B
:10332000A2445FFA8AF49C6192F83BB01CF801A0B9
:10333000DA448AEA060A5FFA8AF6DE6092F83AB060
:1033400010F805A08AEA0B0ACA445FFA8AF9C3F8A2
:10335000049092F839B01CF804A0DA448AEA080A0A
:103360005FFA8AF8C3F81C8092F838B010F80EA003
:103370008AEA0B0ABA445FFA8AF75F6192F83FB0B3
:103380001CF809A0DA448AEA010A5FFA8AF1996016
:1033900092F83EB010F808A08AEA0B0AAA445FFA35
:1033A0008AF51D6092F83DB01CF807A0DA448AEA5D
:1033B000040A5FFA8AF49C6192F83CB010F806A007
:1033C0008AEA0B0AF2445FFA8AFEC3F810E092F828
:1033D00043B01CF805A0DA448AEA090A5FFA8AF9C0
:1033E000C3F8049092F842B010F804A08AEA0B0ADD
:1033F000C2445FFA8AF8C3F81C8092F841B01CF806
:103400000EA0DA448AEA070A5FFA8AF75F6192F847
:1034100040B010F801A08AEA0B0AB2445FFA8AF6BB
:10342000DE6092F847B01CF808A0DA448AEA050A80
:103430005FFA8AF51D6092F846B010F807A08AEA94
:103440000B0AA2445FFA8AF49C6192F845B01CF81A
:1034500006A0DA448AEA0E0A5FFA8AFEC3F810E090
:1034600092F844B010F809A08AEA0B0A8A445FFA7D
:103470008AF1996092F84BB01CF804A0DA448AEA09
:10348000080A5FFA8AF8C3F81C8092F84AB010F86C
:103490000EA08AEA0B0ABA445FFA8AF75F6192F8D3
:1034A00049B01CF801A0DA448AEA060A5FFA8AF6F3
:1034B000DE6092F848B010F805A08AEA0B0ACA4408
:1034C0005FFA8AF9C3F8049092F84FB01CF807A08D
:1034D000DA448AEA040A5FFA8AF49C6192F84EB0F0
:1034E00010F806A08AEA0B0AF2445FFA8AFEC3F8D3
:1034F00010E092F84DB01CF809A0DA448AEA010AFB
:103500005FFA8AF1996092F84CB010F808A08AEA44
:103510000B0AAA445FFA8AF51D6092F853B01CF8B2
:103520000EA0DA448AEA070A5FFA8AF75F6192F826
:1035300052B010F801A08AEA0B0AB2445FFA8AF688
:10354000DE6092F851B01CF805A0DA448AEA090A54
:103550005FFA8AF9C3F8049092F850B010F804A00A
:103560008AEA0B0AC2445FFA8AF8C3F81C8092F810
:1035700057B01CF806A0DA448AEA0E0A5FFA8AFEFF
:10358000C3F810E092F856B010F809A08AEA0B0AC6
:103590008A445FFA8AF1996092F855B01CF808A045
:1035A000DA448AEA050A5FFA8AF51D6092F854B097
:1035B00010F807A08AEA0B0AA2445FFA8AF49C6119
:1035C00092F85BB01CF801A0DA448AEA060A5FFAB6
:1035D0008AF6DE6092F85AB010F805A08AEA0B0A63
:1035E000CA445FFA8AF9C3F8049092F859B01CF8FB
:1035F00004A0DA448AEA080A5FFA8AF8C3F81C8051
:1036000092F858B010F80EA08AEA0B0ABA445FFA92
:103610008AF75F6192F85FB01CF809A0DA448AEA81
:10362000010A5FFA8AF1996092F85EB010F808A07A
:103630008AEA0B0AAA445FFA8AF51D6092F85DB027
:103640001CF807A0DA448AEA040A5FFA8AF49C614B
:1036500092F85CB010F806A08AEA0B0AF2445FFA0E
:103660008AFEC3F810E092F863B01CF805A0DA44B3
:103670008AEA090A5FFA8AF9C3F8049092F862B0FC
:1036800010F804A08AEA0B0AC2445FFA8AF8C3F869
:103690001C8092F861B01CF80EA0DA448AEA070A8E
:1036A0005FFA8AF75F6192F860B010F801A08AEAC9
:1036B0000B0AB2445FFA8AF6DE6092F867B01CF833
:1036C00008A0DA448AEA050A5FFA8AF51D6092F8D2
:1036D00066B010F807A08AEA0B0AA2445FFA8AF4DF
:1036E0009C6192F865B01CF806A0DA448AEA0E0ADA
:1036F0005FFA8AFEC3F810E092F864B010F809A0EF
:103700008AEA0B0A8A445FFA8AF1996092F86BB0F0
:103710001CF804A0DA448AEA080A5FFA8AF8C3F8B7
:103720001C8092F86AB010F80EA08AEA0B0ABA441C
:103730005FFA8AF75F6192F869B01CF801A0DA4479
:103740008AEA060A5FFA8AF6DE6092F868B010F834
:1037500005A08AEA0B0ACA445FFA8AF9C3F8049002
:1037600092F86FB01CF807A0DA448AEA040A5FFAFC
:103770008AF49C6192F86EB010F806A08AEA0B0AEF
:10378000F2445FFA8AFEC3F810E092F86DB01CF8BC
:1037900009A0DA448AEA010A5FFA8AF1996092F88C
:1037A0006CB010F808A08AEA0B0AAA445FFA8AF5FE
:1037B0001D6092F873B01CF80EA0DA448AEA070A7A
:1037C0005FFA8AF75F6192F872B010F801A08AEA96
:1037D0000B0AB2445FFA8AF6DE6092F871B01CF808
:1037E00005A0DA448AEA090A5FFA8AF9C3F8049064
:1037F00092F870B010F804A08AEA0B0AC2445FFA8B
:103800008AF8C3F81C8092F877B01CF806A0DA4456
:103810008AEA0E0A5FFA8AFEC3F810E092F876B0E0
:1038200010F809A08AEA0B0A8A445FFA8AF19960C3
:1038300092F875B01CF808A0DA448AEA050A5FFA23
:103840008AF51D6092F874B010F807A08AEA0B0A96
:10385000A2445FFA8AF49C6192F87BB01CF801A044
:10386000DA448AEA060A5FFA8AF6DE6092F87AB0EB
:1038700010F805A08AEA0B0ACA445FFA8AF9C3F86D
:10388000049092F879B01CF804A0DA448AEA080A95
:103890005FFA8AF8C3F81C8092F878B010F80EA08E
:1038A0008AEA0B0ABA445FFA8AF75F6192F87FB03E
:1038B0001CF809A0DA448AEA010A5FFA8AF19960E1
:1038C00092F87EB010F808A08AEA0B0AAA445FFAC0
:1038D0008AF51D6092F87DB01CF807A0DA448AEAE8
:1038E000040A5FFA8AF49C6192F87CB010F806A092
:1038F0008AEA0B0AF2445FFA8AFEC3F810E092F8F3
:1039000083B01CF805A0DA448AEA090A5FFA8AF94A
:10391000C3F8049092F882B010F804A08AEA0B0A67
:10392000C2445FFA8AFAC3F81CA092F881B01CF86E
:103930000E80D84488EA07085FFA88F75F6192F83A
:1039400080B010F80180C75D88EA0B08B0445FFAC8
:1039500088F6DE601CF80A801CF8066092F887C0C2
:1039600010F80900E04488EA0505EDB21D6092F800
:1039700086506F402744FFB29F6192F885402644ED
:1039800086EA0E06F6B21E6192F8842042400A448E
:103990000398D2B29A60002842D04378029C0199E1
:1039A0005A406270D1F8D830C2781B695340E37036
:1039B000D1F8D83042799B6953406371D1F8D8303F
:1039C000C2791B685340E371D1F8D830D1F8A020F8
:1039D0005B6812791344027853402370D1F8A03009
:1039E00082785B795340D1F8D820D2685340A370D5
:1039F000D1F8D830D1F8A0205B69927913440279CC
:103A000053402371D1F8A030D1F8D820DB798179E7
:103A1000D2694B4053402246937105B0BDE8F08F08
:103A2000029801994270D1F8D8301B69C370D1F85F
:103A3000D8309B694371D1F8D8301B68C371D1F875
:103A4000D830D1F8A0205B68127913440370D1F804
:103A5000D830D1F8A020DB68527953408370D1F878
:103A6000D830D1F8A0205B69927913440371D1F862
:103A7000D830D1F8A020DB69D27953400246937147
:103A800005B0BDE8F08F00BFA0F10400FFF72EBA2B
:103A90002DE9F04F064685B04C78CDE90232D6F8D4
:103AA000D830D6F8A0209C60CD7801961D614F7962
:103AB000DFF894C39F6191F807B0E248C3F800B003
:103AC000167991F800E0AEEB060E5FFA8EFEC3F8B1
:103AD00004E0567991F802A08AEA060AC3F80CA01D
:103AE00092F806800E79A6EB0806F6B25E6192F8AF
:103AF0000780897981EA0801D96192F886901CF8DB
:103B0000068088EA0908A7EB08085FFA88F8C3F876
:103B1000188092F8859010F80A704F446F40FFB2F9
:103B20001F6192F884901CF80E5085EA0905641B09
:103B3000E4B29C6092F88790455C4D4485EA0B05A1
:103B4000EDB21D6092F882B01CF8089089EA0B096A
:103B5000A1EB09095FFA89F9C3F81C9092F881B0CA
:103B6000C15D59447140CEB25E6192F880B01CF8DC
:103B7000041081EA0B01AAEB010A5FFA8AFAC3F882
:103B80000CA092F883B0415D594481EA0E01C9B29C
:103B9000596092F87EB01CF809E08EEA0B0EA5EB96
:103BA0000E05EDB21D6092F87DB010F806E0DE441F
:103BB0008EEA080E5FFA8EFEC3F818E092F87CB029
:103BC0001CF80A8088EA0B08A7EB0807FFB21F6100
:103BD00092F87FB010F80180D84488EA04085FFAB0
:103BE00088F49C6092F87AB01CF8058088EA0B088B
:103BF000A1EB0801C9B2596092F879B010F80E80B3
:103C0000D84488EA09085FFA88F8C3F81C8092F85B
:103C100078B01CF8079089EA0B09A6EB0906F6B202
:103C20005E6192F87BB010F80490D94489EA0A09E1
:103C30005FFA89F9C3F80C9092F876B01CF801A0ED
:103C40008AEA0B0AA4EB0A04E4B29C6092F875B00D
:103C500010F808A0DA448AEA050A5FFA8AFAC3F87B
:103C600000A092F874B01CF8065085EA0B05AEEB84
:103C70000505EDB29D6192F877B010F809E0DE44D9
:103C80008EEA070E5FFA8EFEC3F810E092F872B06B
:103C90001CF8047087EA0B07A9EB0707FFB2DF6087
:103CA00092F871B010F80A90D94489EA01095FFAD4
:103CB00089F9C3F8049092F870B01CF8051081EAF5
:103CC0000B01A8EB0101C9B2D96192F873B010F8E9
:103CD0000E80D84488EA06085FFA88F8C3F8148092
:103CE00092F86EB01CF8076086EA0B06AEEB06068B
:103CF000F6B21E6192F86DB010F809E0DE448EEA6B
:103D0000040E5FFA8EFEC3F808E092F86CB01CF85F
:103D1000014084EA0B04AAEB0404E4B21C6092F8AC
:103D20006FB010F808A0DA448AEA050A5FFA8AFA46
:103D3000C3F818A092F86AB01CF8065085EA0B0583
:103D4000A8EB0505EDB25D6192F869B010F80E8040
:103D5000D84488EA07085FFA88F8C3F80C8092F81C
:103D600068B01CF8047087EA0B07A9EB0707FFB2DD
:103D70005F6092F86BB010F80A90D94489EA0109A3
:103D80005FFA89F9C3F81C9092F866B01CF8051028
:103D900081EA0B01AAEB0101C9B2996192F865B001
:103DA00010F808A0DA448AEA060A5FFA8AFAC3F829
:103DB00010A092F864B01CF8076086EA0B06AEEB20
:103DC0000606F6B29E6092F867B010F809E0DE448D
:103DD0008EEA040E5FFA8EFEC3F800E092F862B03D
:103DE0001CF8014084EA0B04A9EB0404E4B2DC6192
:103DF00092F861B010F80A90D94489EA05095FFA8F
:103E000089F9C3F8149092F860B01CF8065085EA5E
:103E10000B05A8EB0505EDB2DD6092F863B010F874
:103E20000E80D84488EA07085FFA88F8C3F804804F
:103E300092F85EB01CF8047087EA0B07AEEB070738
:103E4000FFB203E078660210786502101F6092F8F6
:103E50005DB010F809E0DE448EEA010E5FFA8EFED6
:103E6000C3F818E092F85CB01CF8051081EA0B0169
:103E7000AAEB0101C9B2196192F85FB010F808A06D
:103E8000DA448AEA060A5FFA8AFAC3F808A092F8C6
:103E90005AB01CF8076086EA0B06A8EB0606F6B2D5
:103EA0005E6092F859B010F80E80D84488EA040891
:103EB0005FFA88F8C3F81C8092F858B01CF80140EB
:103EC00084EA0B04A9EB0404E4B25C6192F85BB0F1
:103ED00010F80A90D94489EA05095FFA89F9C3F80C
:103EE0000C9092F856B01CF8065085EA0B05AAEB28
:103EF0000505EDB29D6092F855B010F808A0DA44BF
:103F00008AEA070A5FFA8AFAC3F800A092F854B066
:103F10001CF8047087EA0B07AEEB0707FFB29F613E
:103F200092F857B010F809E0DE448EEA010E5FFA0D
:103F30008EFEC3F810E092F852B01CF8051081EA2A
:103F40000B01A9EB0101C9B2D96092F851B010F888
:103F50000A90D94489EA06095FFA89F9C3F80490FE
:103F600092F850B01CF8076086EA0B06A8EB06062C
:103F7000F6B2DE6192F853B010F80E80D84488EAA9
:103F800004085FFA88F8C3F8148092F84EB01CF861
:103F9000014084EA0B04AEEB0404E4B21C6192F825
:103FA0004DB010F809E0DE448EEA050E5FFA8EFE91
:103FB000C3F808E092F84CB01CF8065085EA0B05EF
:103FC000AAEB0505EDB21D6092F84FB010F808A0FD
:103FD000DA448AEA070A5FFA8AFAC3F818A092F864
:103FE0004AB01CF8047087EA0B07A8EB0707FFB27A
:103FF0005F6192F849B010F80E80D84488EA010851
:104000005FFA88F8C3F80C8092F848B01CF80510E5
:1040100081EA0B01A9EB0101C9B2596092F84BB0DA
:1040200010F80A90D94489EA06095FFA89F9C3F8B9
:104030001C9092F846B01CF8076086EA0B06AAEBC3
:104040000606F6B29E6192F845B010F808A0DA4470
:104050008AEA040A5FFA8AFAC3F810A092F844B018
:104060001CF8014084EA0B04AEEB0404E4B29C604B
:1040700092F847B010F809E0DE448EEA050E5FFAC8
:104080008EFEC3F800E092F842B01CF8065085EAB4
:104090000B05A9EB0505EDB2DD6192F841B010F812
:1040A0000A90D94489EA07095FFA89F9C3F814909C
:1040B00092F840B01CF8047087EA0B07A8EB0707DA
:1040C000FFB2DF6092F843B010F80E80D84488EA5F
:1040D00001085FFA88F8C3F8048092F83EB01CF833
:1040E000051081EA0B01AEEB0101C9B2196092F82B
:1040F0003DB010F809E0DE448EEA060E5FFA8EFE4F
:10410000C3F818E092F83CB01CF8076086EA0B068A
:10411000AAEB0606F6B21E6192F83FB010F808A0AE
:10412000DA448AEA040A5FFA8AFAC3F808A092F825
:104130003AB01CF8014084EA0B04A8EB0404E4B292
:104140005C6092F839B010F80E80D84488EA05080F
:104150005FFA88F8C3F81C8092F838B01CF8065053
:1041600085EA0B05A9EB0505EDB25D6192F83BB060
:1041700010F80A90D94489EA07095FFA89F9C3F867
:104180000C9092F836B01CF8047087EA0B07AAEB83
:104190000707FFB29F6092F835B010F808A0DA4424
:1041A0008AEA010A5FFA8AFAC3F800A092F834B0EA
:1041B0001CF8051081EA0B01AEEB0101C9B299614F
:1041C00092F837B010F809E0DE448EEA060E5FFA86
:1041D0008EFEC3F810E092F832B01CF8076086EA51
:1041E0000B06A9EB0606F6B2DE6092F831B010F8C5
:1041F0000A90D94489EA04095FFA89F9C3F804905E
:1042000092F830B01CF8014084EA0B04A8EB0404D7
:10421000E4B2DC6192F833B010F80E80D84488EA3A
:1042200005085FFA88F8C3F8148092F82EB01CF8DD
:10423000065085EA0B05AEEB0505EDB21D6192F85F
:104240002DB010F809E0DE448EEA070E5FFA8EFE0C
:10425000C3F808E092F82CB01CF8047087EA0B074A
:10426000AAEB0707FFB21F6092F82FB010F808A062
:10427000DA448AEA010A5FFA8AFAC3F818A092F8C7
:104280002AB01CF8051081EA0B01A8EB0101C9B2A4
:10429000596192F829B010F80E80D84488EA0608CF
:1042A0005FFA88F8C3F80C8092F828B01CF8076011
:1042B00086EA0B06A9EB0606F6B25E6092F82BB012
:1042C00010F80A90D94489EA04095FFA89F9C3F819
:1042D0001C9092F826B01CF8014084EA0B04AAEB6B
:1042E0000404E4B29C6192F825B010F808A0DA4406
:1042F0008AEA050A5FFA8AFAC3F810A092F824B095
:104300001CF8065085EA0B05AEEB0505EDB29D6085
:1043100092F827B010F809E0DE448EEA070E5FFA43
:104320008EF71F6092F822B01CF804E08EEA0B0EA4
:10433000A9EB0E095FFA89F9C3F81C9092F821B035
:1043400010F80AE0DE448EEA010E5FFA8EF1596140
:1043500092F820B01CF805E08EEA0B0EA8EB0E08D0
:104360005FFA88F8C3F80C8092F823B010F807E0E1
:10437000DE448EEA060E5FFA8EFEC3F804E092F881
:104380001EB01CF8096086EA0B06BF1BFFB21F6057
:1043900092F81DB0465C5E446640F4B29C6192F8AF
:1043A0001CB01CF8086086EA0B06AAEB0606F6B2FB
:1043B0001E6192F81FB010F80EA0DA448AEA050ACE
:1043C0005FFA8AF59D6092F81AB01CF807A08AEA95
:1043D0000B0AAEEB0A0E5FFA8EFAC3F804A092F84D
:1043E00019B010F804E0DE448EEA090E5FFA8EFE82
:1043F000C3F81CE092F818B01CF8069089EA0B0983
:10440000A1EB09015FFA81F9C3F8149092F81BB08F
:10441000415D594481EA0801C9B2D96092F816B0E9
:104420001CF80A8088EA0B08A5EB0805EDB29D6030
:1044300092F815B010F80E80D84488EA07085FFAA1
:1044400088F71F6092F814B01CF8098088EA0B08FE
:10445000A4EB0804E4B29C6192F817B010F8018054
:10446000D84488EA06085FFA88F61E6192F812B00E
:104470001CF8058088EA0B08A1EB08015FFA81FBB4
:10448000C3F80CB092F81180C15D414481EA0A0181
:10449000C9B2596092F810A01CF8048088EA0A0892
:1044A000AEEB080E5FFA8EFEC3F81CE092F813A084
:1044B00010F80680D04488EA09085FFA88F8C3F843
:1044C000148092F80EA01CF80B9089EA0A09A6EB5A
:1044D00009065FFA86F9C3F8109092F80DA0465CC1
:1044E00056446E40F6B29E6092F80CA01CF80E5036
:1044F000865D85EA0A057F1BFFB21F6092F80FA058
:1045000010F808501CF8077055446540EDB29D61E5
:10451000405D1CF80940957A6C40A8EB04085FFAEE
:1045200088F45C61547A264486EA0B06F6B2DE60B3
:10453000147A6740C91BC9B25960D27A104480EA24
:104540000E00C0B2D8610398002842D04378029C84
:10455000594061700199C278D1F8D830DB68534076
:10456000E370D1F8D83042795B6953406371D1F878
:10457000D830C279DB695340E371D1F8D830D1F833
:10458000A0201B6812789B1A027853402370D1F840
:10459000A03082785B785340D1F8D820926853409D
:1045A000A370D1F8D830D1F8A0201B6992789B1A5B
:1045B000027953402371D1F8A030D1F8D820DB78AC
:1045C000817992694B4053402246937105B0BDE812
:1045D000F08F029841700199D1F8D830DB68C37030
:1045E000D1F8D8305B694371D1F8D830DB69C37139
:1045F000D1F8D830D1F8A0201B6812789B1A03702C
:10460000D1F8D830D1F8A0209B68527853408370FD
:10461000D1F8D830D1F8A0201B6992789B1A037189
:10462000D1F8D830D1F8A0209B69D2785340024607
:10463000937105B0BDE8F08FA0F10400FFF728BA30
:1046400010207047102070471020704710207047CE
:1046500004207047002070470820704708207047EA
:10466000034600214FF0050C00B5074A5973106846
:1046700092F804E0986003F1080283F80CE0184611
:104680001A60C3F804C000BDD84A021003464FF0B8
:10469000000C00B54FF0050E064A83F80DC092E8F5
:1046A000030003F108029860197318461A60C3F8F2
:1046B00004E000BDD84A02102DE9F047D0F824C02C
:1046C00092469E46002900F08B840F68CCF800705B
:1046D0004D68CCF804508E68CCF80860CB6841690E
:1046E000CCF80C300A6986EA02094A6983EA0208B2
:1046F000C1444FEAF909CCF80C90CB688A685E4057
:104700006A4032444FEA7212CCF808204B680E68B7
:104710005D407E402E444FEAF656CCF804608B6A2A
:10472000CD6A89EA03086F40B8444FEAF803CCF831
:1047300000304D6A0F6A89EA050957404F444FEA35
:104740007717CCF80C70CC698D69624075401544C0
:104750004FEAF555CCF808500A6C83EA02094A6C16
:104760005640B1444FEAF909CCF804908E6BCA6BFD
:104770007E4083EA020846444FEA7616CCF8006091
:104780000A6B4B6B6A405F403A444FEAF252CCF8F6
:104790000C208B6DCF6D89EA03087D40A8444FEA59
:1047A000F803CCF808304F6D0D6D89EA07097540A4
:1047B0004D444FEA7515CCF80450CC6C8F6C6640B4
:1047C000574037444FEAF757CCF800700E6F83EA32
:1047D00006094E6F724091444FEAF909CCF80C90EB
:1047E000CE6E8A6E83EA06086A4042444FEA72122D
:1047F000CCF808204B6E0E6E5D407E402E444FEA92
:10480000F656CCF80460D1F88830D1F88C5089EA9B
:1048100003086F40B8444FEAF803CCF80030D1F8F1
:104820008450D1F8807089EA050957404F444FEA17
:104830007717CCF80C70CC6F8D6F624075401544C3
:104840004FEAF555CCF80850D1F8A02083EA0209C8
:10485000D1F8A4205640B1444FEAF909CCF80490AD
:10486000D1F89C20D1F8986083EA02087E40464443
:104870004FEA7616CCF80060D1F89430D1F8902049
:104880005F406A403A444FEAF252CCF80C20D1F82B
:10489000B830D1F8BC7089EA03087D40A8444FEADB
:1048A000F803CCF80830D1F8B470D1F8B05089EAE8
:1048B000070975404D444FEA7515CCF80450D1F8FE
:1048C000AC40D1F8A8706640574037444FEAF757DC
:1048D000CCF80070D1F8D06083EA0609D1F8D46032
:1048E000724091444FEAF909CCF80C90D1F8CC60B1
:1048F000D1F8C82083EA06086A4042444FEA72129F
:10490000CCF80820D1F8C430D1F8C0605D407E40BA
:104910002E444FEAF656CCF80460D1F8E830D1F8CE
:10492000EC5089EA03086F40B8444FEAF803CCF82A
:104930000030D1F8E450D1F8E07089EA0509574019
:104940004F444FEA7717CCF80C70D1F8DC40D1F81F
:10495000D8506240754015444FEAF555CCF80850E0
:10496000D1F8002183EA0209D1F804215640B1446C
:104970004FEAF909CCF80490D1F8FC20D1F8F8609E
:1049800083EA02087E4046444FEA7616CCF800607F
:10499000D1F8F430D1F8F0205F406A403A444FEA51
:1049A000F252CCF80C20D1F81831D1F81C7189EAF8
:1049B00003087D40A8444FEAF803CCF80830D1F84A
:1049C0001471D1F8105189EA070975404D444FEA36
:1049D0007515CCF80450D1F80C41D1F80871664037
:1049E000574037444FEAF757CCF80070D1F83061A0
:1049F00083EA0609D1F83461724091444FEAF9091B
:104A0000CCF80C90D1F82C61D1F8282183EA060863
:104A10006A4042444FEA7212CCF80820D1F824319F
:104A2000D1F820615D407E402E444FEAF656CCF826
:104A30000460D1F84831D1F84C5189EA03086F403D
:104A4000B8444FEAF803CCF80030D1F84451D1F81B
:104A5000407189EA050957404F444FEA7717CCF86F
:104A60000C70D1F83C41D1F8385162407540154482
:104A70004FEAF555CCF80850D1F8602183EA0209D5
:104A8000D1F864215640B1444FEAF909CCF80490BA
:104A9000D1F85C21D1F8586183EA02087E4046448F
:104AA0004FEA7616CCF80060D1F85431D1F8502195
:104AB0005F406A403A444FEAF252CCF80C20D1F8F9
:104AC0007831D1F87C7189EA03087D40A8444FEA27
:104AD000F803CCF80830D1F87471D1F8705189EA34
:104AE000070975404D444FEA7515CCF80450D1F8CC
:104AF0006C41D1F868716640574037444FEAF75728
:104B0000CCF80070D1F8906183EA0609D1F894617D
:104B1000724091444FEAF909CCF80C90D1F88C61BD
:104B2000D1F8882183EA06086A4042444FEA7212AB
:104B3000CCF80820D1F88431D1F880615D407E4006
:104B40002E444FEAF656CCF80460D1F8A831D1F8DB
:104B5000AC5189EA03086F40B8444FEAF803CCF837
:104B60000030D1F8A451D1F8A07189EA0509574065
:104B70004F444FEA7717CCF80C70D1F89C41D1F82C
:104B800098516240754015444FEAF555CCF80850ED
:104B9000D1F8C02183EA0209D1F8C4215640B144BA
:104BA0004FEAF909CCF80490D1F8BC21D1F8B861EA
:104BB00083EA02087E4046444FEA7616CCF800604D
:104BC000D1F8B431D1F8B0215F406A403A444FEA9D
:104BD000F252CCF80C20D1F8D831D1F8DC7189EA46
:104BE00003087D40A8444FEAF803CCF80830D1F818
:104BF000D471D1F8D05189EA070975404D444FEA84
:104C00007515CCF80450D1F8CC41D1F8C871664084
:104C1000574037444FEAF757CCF80070D1F8F061AD
:104C200083EA0609D1F8F461724091444FEAF90928
:104C3000CCF80C90D1F8EC61D1F8E82183EA0608B1
:104C40006A4042444FEA7212CCF80820D1F8E431AD
:104C5000D1F8E0615D407E402E444FEAF656CCF834
:104C60000460D1F80832D1F80C5289EA03086F4089
:104C7000B8444FEAF803CCF80030D1F80452D1F828
:104C8000007289EA050957404F444FEA7717CCF87C
:104C90000C70D1F8FC41D1F8F851624075401544D0
:104CA0004FEAF555CCF80850D1F8202283EA0209E2
:104CB000D1F824225640B1444FEAF902CCF804203E
:104CC000D1F81862D1F81C427E4083EA04084644B9
:104CD0004FEA7616CCF80060D1F8103285EA030866
:104CE000D1F814325F40B8444FEAF858CCF80C8041
:104CF000D1F83C32D1F838725D4057402F444FEA2A
:104D0000F707CCF80870D1F83452D1F8303282EA83
:104D1000050973404B444FEA7313CCF80430D1F8C3
:104D20002C52D1F828226E4088EA020232444FEA1F
:104D3000F252CCF80020856A182D40F21C81D1F87F
:104D40005462D1F8505288EA06087D4045444FEA43
:104D5000F505CCF80C50D1F84C42D1F848626740C8
:104D60005E403E444FEA7616CCF80860D1F84072B7
:104D7000D1F84442574063401F444FEAF757CCF8FC
:104D80000470D1F8683285EA0308D1F86C325340D8
:104D900098444FEAF808CCF80080D1F86422D1F8A2
:104DA0006032554073402B444FEA7313CCF80C30FB
:104DB000D1F85C22D1F8585256407D402E444FEA3B
:104DC000F656CCF80860D1F88452D1F880226F40B2
:104DD00088EA02023A444FEAF202CCF80420D1F801
:104DE0007C52D1F8787288EA05085F40B8444FEAEF
:104DF0007818CCF80080D1F87472D1F870527B40EA
:104E000075401D444FEAF557CCF80C70D1F89C5210
:104E1000D1F898326E40534033444FEAF306CCF851
:104E20000860D1F89452D1F890326A4088EA0303BE
:104E300013444FEA7313CCF80430D1F88C52D1F8F4
:104E4000882288EA05087A4042444FEAF252CCF8B8
:104E50000020856A1C2D40F28E80D1F8B452D1F822
:104E6000B0426F4086EA0408B8444FEAF808CCF82C
:104E70000C80D1F8AC72D1F8A85286EA07095D40DF
:104E80004D444FEA7515CCF80850D1F8A062D1F81E
:104E9000A47256405F403E444FEAF656CCF8046098
:104EA000D1F8C832D1F8CC7288EA03095740B94426
:104EB0004FEAF909CCF80090D1F8C472D1F8C022B9
:104EC00088EA07086A4042444FEA7212CCF80C2084
:104ED000D1F8B832D1F8BC7286EA03087D40A84404
:104EE0004FEAF857CCF80870D1F8E432D1F8E05224
:104EF0005E4089EA050535444FEAF505CCF80450D3
:104F0000D1F8DC62D1F8D83289EA060953409944D5
:104F10004FEA7919CCF80090D1F8D432D1F8D062A8
:104F20005A407E4016444FEAF656CCF80C60D1F851
:104F3000FC32D1F8F82287EA03086A4042444FEA7B
:104F4000F202CCF80820D1F8F422D1F8F032554022
:104F500089EA03032B444FEA7313CCF80430D1F8E9
:104F6000E822D1F8EC12724089EA01094A444FEA7A
:104F7000F252CCF80020BAF1000F1ED0BEF1000FA3
:104F800006D0DAF800305340CEF80030436A5B6850
:104F9000DAF804205340CEF80430426ADAF80830D8
:104FA00092685340CEF80830426ADAF80C30D26882
:104FB0005340CEF80C30BDE8F087BEF1000F03D0AF
:104FC000CEF80020436A5B68CEF80430436A9B68E1
:104FD000CEF80830436ADB68CEF80C30BDE8F087C5
:104FE0000F46FFF773BB00BFA0F10400FFF764BBDF
:104FF0002DE9F043D0F824C0864615461C4600290A
:1050000000F00B840B684FEA7326CCF80030486838
:10501000DEF81420CCF804008B68CCF80830C9689E
:10502000CCF80C10DEF828701C2F40F28380D2F8E8
:10503000E8724F40F61BD2F8EC727E40CCF800606C
:10504000D2F8F0727740C7EBF067D2F8F40247402D
:10505000CCF80470D2F8F8027840C0EB7370D2F844
:10506000FC325840CCF80800D2F8D03280EA03086D
:10507000C8EB7128D2F8D41288EA0108CCF80C8069
:10508000D2F8D832D2F8DC1288EA0303C3EBF66612
:105090004E40CCF80060D2F8E032D2F8E41286EA52
:1050A0000309C9EB777989EA0109CCF80490D2F8B1
:1050B000B812D2F8BC7289EA0101C1EB70214F40ED
:1050C000CCF80870D2F8C012D2F8C4327940C1EBE3
:1050D000F86181EA0308CCF80C80D2F8C832D2F823
:1050E000CC1288EA0303C3EB76734B40CCF8003054
:1050F000D2F8A0024FEA73265840D2F8A432C0EB8F
:1051000079205840CCF80400D2F8A832D2F8AC127A
:105110004340C3EBF7634B40CCF80830D2F8B012F1
:10512000D2F8B4725940C1EB78717940CCF80C10C8
:10513000DEF82870182F40F28180D2F888724F4034
:10514000F61BD2F88C727E40CCF80060D2F89072D8
:105150007740C7EBF067D2F894024740CCF8047070
:10516000D2F898027840C0EB7370D2F89C32584065
:10517000CCF80800D2F8703280EA0308C8EB712836
:10518000D2F8741288EA0108CCF80C80D2F8783290
:10519000D2F87C1288EA0303C3EBF6664E40CCF8E3
:1051A0000060D2F88032D2F8841286EA0309C9EB93
:1051B000777989EA0109CCF80490D2F85812D2F82C
:1051C0005C7289EA0101C1EB70214F40CCF8087094
:1051D000D2F86012D2F864327940C1EBF86181EA0A
:1051E0000308CCF80C80D2F86832D2F86C1288EA46
:1051F0000303C3EB76734B40CCF80030D2F8400287
:105200004FEA73265840D2F84432C0EB7920584018
:10521000CCF80400D2F84832D2F84C124340C3EB29
:10522000F7634B40CCF80830D2F85012D2F85472E1
:105230005940C1EB78717940CCF80C10D2F8287243
:105240004F40F61BD2F82C727E40CCF80060D2F8AA
:1052500030727740C7EBF067D2F834024740CCF8A1
:105260000470D2F838027840C0EB7370D2F83C3248
:105270005840CCF80800D2F8103280EA0308C8EB96
:105280007128D2F8141288EA0101CCF80C10D2F877
:1052900018324B40C3EBF666D2F81C325E40CCF8B5
:1052A0000060D2F820327340C3EB7777D2F8243213
:1052B0005F40CCF80470D2F8F8317B40C3EB70202B
:1052C000D2F8FC315840CCF80800D2F80032434004
:1052D000C3EBF168D2F8041288EA0101CCF80C1093
:1052E000D2F808324B40C3EB7676D2F80C325E40EF
:1052F000CCF80060D2F8E0317340C3EB7727D2F8E6
:10530000E4315F40CCF80470D2F8E8317B40C3EB65
:10531000F060D2F8EC315840CCF80800D2F8F03107
:105320004340C3EB7178D2F8F41188EA0101CCF85C
:105330000C10D2F8C8314B40C3EB7626D2F8CC31F2
:105340005E40CCF80060D2F8D0317340C3EBF76711
:10535000D2F8D4315F40CCF80470D2F8D8317B4019
:10536000C3EB7070D2F8DC315840CCF80800D2F8AA
:10537000B0314340C3EB7128D2F8B41188EA01017F
:10538000CCF80C10D2F8B8314B40C3EBF666D2F82B
:10539000BC315E40CCF80060D2F8C0317340C3EB42
:1053A0007777D2F8C4315F40CCF80470D2F89831E6
:1053B0007B40C3EB7020D2F89C315840CCF80800F9
:1053C000D2F8A0314340C3EBF168D2F8A41188EAC7
:1053D0000101CCF80C10D2F8A8314B40C3EB767623
:1053E000D2F8AC315E40CCF80060D2F88031734026
:1053F000C3EB7727D2F884315F40CCF80470D2F841
:1054000088317B40C3EBF060D2F88C315840CCF847
:105410000800D2F890314340C3EB7178D2F8941170
:1054200088EA0101CCF80C10D2F868314B40C3EB8C
:105430007626D2F86C315E40CCF80060D2F870313C
:105440007340C3EBF767D2F874315F40CCF8047057
:10545000D2F878317B40C3EB7070D2F87C31584081
:10546000CCF80800D2F850314340C3EB7128D2F891
:10547000541188EA0101CCF80C10D2F858314B4095
:10548000C3EBF666D2F85C315E40CCF80060D2F82F
:1054900060317340C3EB7777D2F864315F40CCF86A
:1054A0000470D2F838317B40C3EB7020D2F83C3125
:1054B0005840CCF80800D2F840314340C3EBF168C3
:1054C000D2F8441188EA0101CCF80C10D2F8483126
:1054D0004B40C3EB7676D2F84C315E40CCF800609E
:1054E000D2F820317340C3EB7727D2F824315F40E4
:1054F000CCF80470D2F828317B40C3EBF060D2F8CE
:105500002C315840CCF80800D2F830314340C3EB7E
:105510007178D2F8341188EA0101CCF80C10D2F875
:1055200008314B40C3EB7626D2F80C315E40CCF804
:105530000060D2F810317340C3EBF767D2F8143132
:105540005F40CCF80470D2F818317B40C3EB707028
:10555000D2F81C315840CCF80800D2F8F030434063
:10556000C3EB7128D2F8F41088EA0101CCF80C10D2
:10557000D2F8F8304B40C3EBF666D2F8FC305E4010
:10558000CCF80060D2F800317340C3EB7777D2F8E3
:1055900004315F40CCF80470D2F8D8307B40C3EBC4
:1055A0007020D2F8DC305840CCF80800D2F8E03057
:1055B0004340C3EBF168D2F8E41088EA0101CCF86B
:1055C0000C10D2F8E8304B40C3EB7676D2F8EC30D2
:1055D0005E40CCF80060D2F8C0307340C3EB772750
:1055E000D2F8C4305F40CCF80470D2F8C8307B40A9
:1055F000C3EBF060D2F8CC305840CCF80800D2F8B9
:10560000D0304340C3EB7178D2F8D41088EA01015E
:10561000CCF80C10D2F8A8304B40C3EB7626D2F869
:10562000AC305E40CCF80060D2F8B0307340C3EBD1
:10563000F767D2F8B4305F40CCF80470D2F8B830D5
:105640007B40C3EB7070D2F8BC305840CCF80800F7
:10565000D2F890304340C3EB7128D2F8941088EA16
:105660000101CCF80C10D2F898304B40C3EBF66631
:10567000D2F89C305E40CCF80060D2F8A030734085
:10568000C3EB7777D2F8A4305F40CCF80470936F07
:105690007B40C3EB7020D36F5840CCF80800D2F8A1
:1056A00080304340C3EBF168D2F8841088EA0101EE
:1056B000CCF80C10D2F888304B40C3EB7676D2F899
:1056C0008C305E40CCF80060136E7340C3EB7727DC
:1056D000536E5F40CCF80470936E7B40C3EBF06078
:1056E000D36E5840CCF80800136F4340C3EB717879
:1056F000516F88EA0101CCF80C10936C4B40C3EB5E
:105700007626D36C5E40CCF80060136D7340C3EB1B
:10571000F767536D5F40CCF80470936D7B40C3EB2B
:105720007070D36D5840CCF80800136B4340C3EB46
:105730007128516B88EA0108CCF80C80936BD16B0F
:1057400088EA0303C3EBF6664E40CCF80060136CA6
:10575000516C7340C3EB77774F40CCF8047093697A
:10576000D16987EA0309C9EB702989EA0109CCF8F4
:105770000890116A506A89EA0101C1EBF86888EA69
:105780000008CCF80C80906AD36A88EA0000C0EB6D
:1057900076705840CCF80000116853684140C1EB66
:1057A00077215940CCF804109368D6684B40C3EB7E
:1057B000F9637340CCF80830166952697340C3EB43
:1057C00078735340CCF80C30BDB12CB12B684340FA
:1057D0002360DEF8243059686B684B406360DEF864
:1057E0002420AB6892685340A360DEF82420EB6865
:1057F000D2685340E360BDE8F0831CB12060DEF85E
:10580000243059686160DEF824309B68A360DEF8BC
:105810002430DB68E360BDE8F0830E460B46FFF7FB
:10582000F4BB00BFA0F10400FFF7E2BB10207047FB
:105830002020704710207047102907D91F2903D84E
:10584000073121F007007047202070471020704773
:1058500004207047002070471020704710207047C8
:105860000321002200B5074B4160B3F800E093F834
:1058700002C000F10803A0F808E0036080F80AC045
:10588000C27200BD80490210034600214FF0070C90
:1058900010B5084AD9731068948892F806E09860A9
:1058A00003F108029C8183F80EE018461A60C3F8E1
:1058B00004C010BDE04A021003464FF0000C00B5D2
:1058C0004FF0070E074A83F80FC092E803000A0C56
:1058D0009A73986003F10802998118461A60C3F818
:1058E00004E000BDE04A021003210022054B4160A4
:1058F0001B6800F1080103811B0C01608372C272F6
:10590000704700BF804902102DE9F04F0B68DFF8A7
:105910006094DFF8608499444FEAF979D14FC84424
:105920004FEAF878DFF850A447444FEAF777CE4EB5
:10593000BA4407634FEAFA77CC4DBE194FEAF676C0
:105940007519DFF838E44FEAF575DFF834C4AE4472
:1059500085674FEAFE75C64CAC44C0F890504FEADC
:10596000FC752C19C34A4FEAF474A218DFF814B47A
:105970004FEAF272C0F8D8209344BF4AC0F8A8504A
:105980004FEAFB75C0F8C040AA18BC4C4FEAF2724F
:10599000C0F808211419BA4A4FEAF474C0F8F0505C
:1059A000A218B84D4FEAF272C0F838215519B64A1C
:1059B0004FEAF575C0F82041AA18B44C4FEAF272CC
:1059C000C0F868211419B24A4FEAF474C0F8505173
:1059D000A218B04D4FEAF272C0F898215519AE4A9C
:1059E0004FEAF575C0F88041AA18AC4C4FEAF27244
:1059F000C0F8C8211419AA4A4FEAF474C0F8B0518B
:105A0000A218A84D4FEAF272C0F8F8215519A64A1B
:105A10004FEAF575C0F8E041AA18A44C4FEAF272BB
:105A2000C0F828221419A24A4FEAF474A218A14B14
:105A30004FEAF272C0F85822D3189F4A4FEAF37324
:105A40009A184FEAF2720666C0F81052C0F8404247
:105A5000C0F88822C0F80090C0F818808764C0F8A9
:105A600070324B68954A964C9A184FEA72724260AF
:105A70001419944A4FEA7474A218934D4FEA727243
:105A800042635519914A4FEA7575C461AA18904C42
:105A90004FEA7272426614198E4A4FEA7474C564F2
:105AA000A2188D4D4FEA7272C0F8942055198B4A96
:105AB0004FEA7575C467AA18894C4FEA7272C0F82C
:105AC000C4201419874A4FEA7474C0F8AC50A21865
:105AD000854D4FEA7272C0F8F4205519834A4FEA97
