:020000041000EA
:1000000000B5324B212058609868022188439860DF
:10001000D860186158612E4B002199600221596106
:100020000121F02299502B49196001219960352056
:1000300000F044F80222904214D00621196600F024
:1000400034F8196E01211966002018661A6600F04E
:100050002CF8196E196E196E052000F02FF8012189
:100060000842F9D1002199601B49196000215960AB
:100070001A491B48016001219960EB211966A021F2
:10008000196600F012F800219960164914480160C1
:100090000121996001BC002800D000471248134993
:1000A000086003C880F30888084703B5996A0420EC
:1000B0000142FBD001200142F8D103BD02B5186610
:1000C0001866FFF7F2FF186E186E02BD00000240BE
:1000D000000000180000070000035F00212200005C
:1000E000F4000018222000A00001001008ED00E03C
:1000F00000000000000000000000000074B24E7A12
:1001000000200420F7010010CB010010CD010010E9
:10011000C9010010C9010010C9010010C901001077
:10012000C9010010C9010010C9010010CF01001061
:10013000C9010010C9010010D1010010D301001045
:10014000C1010010C1010010C1010010C101001067
:10015000C1010010C1010010C1010010C101001057
:10016000C1010010C1010010C1010010C101001047
:10017000C1010010C1010010C1010010C101001037
:10018000C1010010C1010010C1010010C101001027
:10019000C1010010C1010010C1010010C101001017
:1001A000C1010010C1010010C1010010C101001007
:1001B000C1010010C1010010C1010010C1010010F7
:1001C000EFF30580103800BE00BE00BE00BE00BECA
:1001D00000BE00BEF2EB8871C8060310F4060310DF
:1001E0003802001090A31AE71E481F49086006C88D
:1001F00081F3088810471D480068002801D019487D
:10020000F3E70DA40ECC002902D000F012F8F9E7B4
:100210001749184A002000E001C19142FCD116495B
:100220008847164988471649884700BEFDE701C937
:1002300001C29A42FBD37047F4060310C0000020AD
:10024000582600208C2C03100000042000000420FD
:100250008C2C03100010042000100420000000006B
:10026000704700000000000008ED00E0000000D032
:1002700058260020FC380020F9870110D502001014
:10028000F1870110F8B5C04606480749091A8B10D6
:10029000C90FC91810B5491003D0044B002B00D06A
:1002A000984710BD48260020482600200000000086
:1002B000054B10B5002B03D00449054800E000BFF2
:1002C000FFF7E2FF10BDC04600000000903800209C
:1002D000646F021070B518F0F7FBD0241920802548
:1002E00014F06EFB96202406AD046562C00015F084
:1002F0004DFA104E3000656118F038FC0EF0C2F96E
:100300000EF08AFD0FF082F90FF0EEFD10F0D4F937
:1003100011F0A0F811F092FD12F038FE13F0D0FDAC
:1003200014F0ACF9FA2015F031FA0348A56115F084
:100330002DFADFE7686F0210E2040000F0B5D64640
:100340004F464646C31CC0B55B1A062B4AD903006C
:100350000B439B0746D10B6803604B6843608B6877
:100360008360CB68C36003262F4F0421B846B24692
:10037000C27B857B447B037B2C4E57460F421BD1AF
:10038000755DF35CA946B55C42461F008B08D35CE3
:10039000325D447853400278013153404A4654401C
:1003A000827803745540C27844747A405746857405
:1003B000C27404300F42E3D0077801317B404778A4
:1003C00003747C40877844747D40C77885747A4094
:1003D000C2742C2901D00430CFE7E0BCBA46B14644
:1003E000A846F0BD0B7803704B7843708B78837010
:1003F000CB78C3700B7903714B7943718B7983711F
:10040000CB79C3710B7A03724B7A43728B7A837206
:10041000CB7AC3720B7B03734B7B43738B7B8373EE
:10042000CB7BC3739FE7C0468C810210988102107A
:10043000F0B5DE4657464E464546E0B5C31C95B07E
:10044000040013915B1A062B00D807E20B0003434C
:100450009B0700D002E20A680368534003604A68C1
:100460004368534043608A68836853408360CA6826
:10047000C3685340C36010222378089323790B93F9
:10048000237A257B9B46637809936379667B98463C
:10049000637A9946A3780693A379A17A9A46E3787A
:1004A000A77B0793E3790A93E37BE07A0593139B99
:1004B0009B189C46139B4A46A0331293E64B8146F9
:1004C00001936346BC46029357460B00DA4631005F
:1004D000AB463FE14F4643464F403D0073405D40D1
:1004E00007951B25D809404228405B004340404601
:1004F000079D484075405D400D95030025701B2504
:10050000C009404228405B0043404046079D684088
:100510001B255840804660704846FB095B422B40D3
:100520007F005F40079B46405940F3095B422B40E8
:10053000760073401E004F4007990E9741404E4091
:1005400050460796E6706646039970405140030096
:100550000800A770CF097F422F4049007940039FD0
:10056000584006004740504650407940C7097F42F6
:100570002F400F9121714100724079405140DA09BA
:1005800052422A405B00534050461091617119005D
:10059000704041406046039A46404240D3095B4266
:1005A0002B405200534018002F000C9D70402A0031
:1005B0000A9E059B82467340E07118001191A1715B
:1005C00009994A40D10949425040394052004A40B5
:1005D000290041404A400600039209982272059A78
:1005E0004240D1094942394052004A40010071401D
:1005F0005140DA0952423A405B005340059A617219
:10060000724053402A0005930A9DA3726A40D309A1
:100610005B423B405200534018006E40089A7040C5
:10062000049E069B56400B9AE072534081461B2560
:100630001800F7097F4270402F4076007E40049FEB
:100640000200474030001B25784020738346069EF9
:1006500008984640F7097F422F4005007600554034
:100660007E406E401B25DF097F422F405B007B40B0
:100670001800069F667357407840A0738446049F15
:100680000B984740FB095B422B407F007B401D00DD
:1006900042405540029AE573137804950D9D0E9FD4
:1006A0006B40D8B220700890404615005378434004
:1006B000D8B26070937809907B40D8B2A070D3789C
:1006C000079A06905340D8B20790E0702B790F9AA2
:1006D0005340D8B220716B79109A0B905340D8B226
:1006E000607180465046AF79119A5740FFB2A771AA
:1006F000EB79039A4340D8B2E0710A9048462B7ACE
:100700005340DAB2227292466A7A4A40D2B2627298
:10071000AB7A05994B40DBB2A372E97A4140584667
:10072000C9B2E1728946297B41406046C9B2217352
:100730008B46697B7140C9B26173AE7B4640F0B2B3
:10074000A073EE7B049D84466E40F0B20590029D3E
:10075000103502950898019D2E5C0B9826702D5C33
:10076000504603952571019D2D5C58460C952572C8
:10077000019D2D5C099804952573019D2D5C4046D3
:100780000895019D285C695C80460698AA5C2D5CF2
:10079000604609910199CF5DC95C019B185C824656
:1007A00007980697185CA77384460A98A5721B5C85
:1007B00048460A93019B62711B5C05980B93019B51
:1007C0000B9F185C099B8146404660705046A071A3
:1007D0004846E070604663720595089BE773E071D8
:1007E0000A9F1298029D6373A170E772A84200D01D
:1007F00070E6002007000196129E251DAE4247417B
:100800003D00139F93463E00A436B44240410A0087
:10081000434649460543E14662D01298204380078B
:100820005ED1A0222368BA585340A4222360BA584C
:1008300063685340A8226360BA58A3685340AC224F
:10084000A360BA58E3685340E36015B0F0BCBB4600
:10085000B246A946A046F0BD9881021013992278AD
:100860000B78534023704B786278534063708B78D9
:10087000A2785340A370CB78E2785340E3700B79B1
:100880002279534023714B796279534063718B799C
:10089000A2795340A371CB79E2795340E3710B7A8B
:1008A000227A534023724B7A627A534063728B7A76
:1008B000A27A5340A372CA7AE37A5340E3720B7B65
:1008C000227B534023734B7B627B534063738B7B50
:1008D000A27B5340A373CB7BE27B5340E373CAE517
:1008E000A020139D019E285C4640A1202670285C14
:1008F00043406370A223EB5C5A40A323A270EB5CDD
:100900005940A423E170EB5C03995940A523217160
:100910005946EB5C5940A62361715146EB5C594046
:10092000A723A1714946EB5C5940A823E171EB5C18
:100930000C995940A9232172EB5C09995940AA23CB
:100940006172EB5C05995940AB23A172EB5C0A998B
:100950005940AC23E172EB5C04990B9A5940AD23EA
:100960002173EB5C08995940AE236173EB5C0699E7
:100970005940AF23A173EB5C5A40E27365E7C04670
:1009800010B5FFF7DBFC10BD0B0010B5010018001F
:10099000FFF74EFD10BDC04610B500201BF084FDD2
:1009A000041E03D01BF080FDA04710BD04201AF0E8
:1009B00029FF034B034A044903601BF0CDFCC046EA
:1009C00014DC021005B6011000DC021010B50400A2
:1009D000200016F099FA002800D010BDFFF7DCFFC8
:1009E000F6E7C04610B516F0B3FA10BD0122014B70
:1009F0001A70704757260020806870477047C046BD
:100A0000036810B55B690C009847201A43425841AF
:100A1000C0B210BD10B503685B6A984710BDC046F0
:100A200010B503685B6A984710BDC0460120704747
:100A300001207047002300200B60704700207047A2
:100A400030B583B06C46247E250004680095E469C7
:100A5000A04703B030BDC046002070477047C04675
:100A6000002070470020704710B50368DB6E984780
:100A700010BDC0460020704700207047002070471E
:100A8000B02310B50268D358984710BD002000214C
:100A900003C27047002070477047C046002070476F
:100AA0007047C046043870477047C04604207047FE
:100AB000B423026810B5D3589847002802D00368C1
:100AC0005B6A984710BDC046B02370B51400026839
:100AD0000D00D3589847002804D00368220029004D
:100AE0009B6A984770BDC04610B50368DB6A98479B
:100AF00010BDC04610B51A0003681B6B984710BDA7
:100B000010B5036811005B6B984710BD70B5B02538
:100B1000036804005B599847002806D0236820002A
:100B20005B59984703685B6F984770BD002070471A
:100B30007047C0460020704710B50400042116F02D
:100B400027FA200010BDC04610B50400042116F09D
:100B50001FFA200010BDC04610B50400102116F089
:100B600017FA200010BDC04610B5041F2000102148
:100B700016F00EFA200010BDF0B5DE464546574689
:100B80004E46E0B51D00036885B09B690F9F0C00C1
:100B900016008046984703220823032183463A40E3
:100BA0003B40394243D1002E00D1A7E0002B53D067
:100BB0000E9B984200D9D6E019004342091A9A4682
:100BC0009946641876186D187F074ED500924A46EC
:100BD0005946019252469A4601390E9F039102925C
:100BE0005B4622003100280007F086F943461B6867
:100BF00000225B692900994640462B00C847009BAC
:100C0000002B03D0039AA35C0133A354029B5444EA
:100C1000ED18019BF6185B46FF1ABB45E0D938007A
:100C200005B0F0BCBB46B246A946A046F0BD0222C4
:100C30003A40002E32D0002A00D183E0002B65D14B
:100C40000022814692460E9A934500D989E00122FE
:100C50003A407F072ED5B9E70E9B984200D982E033
:100C60008246814603007F07B0D44A46009252462E
:100C70009A460E9F019243461B6832005B69210031
:100C8000994640462B00C847019B5444ED18009BF1
:100C9000F6185B46FF1A5F45EDD2C0E7002A67D021
:100CA000002B3FD10E9A90425BD8002101228A4648
:100CB00089463A4059460E9F002AD6D000934B46AB
:100CC0000193534602934B1E994643461B683200DC
:100CD0005B6921009A4640462B00D0474B464A4666
:100CE000E35C0133A354009BE418029BED18019BC5
:100CF000F6185B46FF1A5F45E7D290E7002B2AD033
:100D0000020053425A46524292460DE043429946EF
:100D100000239A465A460E9B9B1AE418F618ED18C3
:100D2000002390E700239A4659460E9A561AA419B2
:100D3000AD19002E19D1934513D8012200213A4054
:100D40008946B7E782468146002B00D17BE74342C4
:100D500099469A46DEE70E9A9946824603009042EB
:100D600083D917005BE71F0059E7002291466AE725
:100D70009342C6D10E9A904204D8012282469946E7
:100D80003A4097E70E9F4AE730B5B425036883B031
:100D90005B59040098472368002807D05B5920005E
:100DA000984703681B6D984703B030BD6A46DB6DFA
:100DB0002000D11D9847431E9841C0B2F4E7C046B9
:100DC00070B5B025036804005B590E00984723688E
:100DD000002807D05B5920009847036831005B6DFD
:100DE000984770BD0122310020009B6D9847F8E7BD
:100DF00070B5B425036804005B590E00984723685A
:100E0000002807D05B592000984703683100DB6D4C
:100E1000984770BD0122310020001B6E9847F8E70B
:100E200070B5B425036804005B599847236800280F
:100E300006D05B592000984703689B6E984770BDA9
:100E40002000DB6C9847FAE770B5B425036804000E
:100E50005B5998472368002806D05B5920009847C3
:100E600003681B6F984770BDDB6E20009847431ED8
:100E70009841C0B2F7E7C04670B5B02503680400DA
:100E80005B599847002807D0236820005B59984792
:100E90000368DB6F984770BD0121236820009B6FBA
:100EA000494298470028F7D123682000596E012253
:100EB0005242D31788470843F6D1ECE770B5B02506
:100EC000036804005B590E009847002809D0236886
:100ED00020005B599847AC230268D35898470028F4
:100EE00006D1B823226831002000D358984770BD3E
:100EF000236820005B599847BC2302683100D3580F
:100F00009847F4E770B582B094461A0006AB10CB50
:100F10004E681D780368002E06D100951D6A614653
:100F20002300A84702B070BD0094982401951C5975
:100F300013006246A047F5E7F0B5C646B02500B5F8
:100F40001F00036884B05B5904001600984700280E
:100F50000CD0236820005B59984703683200596E13
:100F60003B00884704B080BCB846F0BD114B180068
:100F700098461BF05BFA104D002810D132003B0060
:100F8000029203930122216800928B328E58200036
:100F900029000A4B02AAB04702980399E2E7084BDE
:100FA00008482B60C8336B6023F058FE40461BF0A6
:100FB00059FAE3E7B82A002058260020F42A002036
:100FC00044860210A90A0010F0B5B02503688DB060
:100FD0005B5904000F00160098472168002809D0CB
:100FE0004B59200098470368320039009B6D9847A1
:100FF0000DB0F0BD0B4B00220493C83305930023C2
:101000000A920B93013200928B328D580390064B5B
:10101000200008970996029602AA04A9A8470298F8
:10102000E6E7C0469C870210F42A0020F0B5B425FC
:1010300003688FB05B5904000F00160098472168C1
:10104000002809D04B592000984703683200390026
:101050001B6E98470FB0F0BD0C4B00220693C833AF
:10106000079300230C920D9304920593012303939D
:10107000074B0190029390230096CB5820000A97CB
:101080000B9604AA06A998470498E3E79C870210E8
:10109000F42A002070B505000E00083028600B68A7
:1010A00008360C00B34205D14A683100013215F010
:1010B00061FF02E02B608B68AB60636826606B6049
:1010C00000236360237270BD002270B50400060027
:1010D000134B82B0036002714B681030A0600D6842
:1010E000083601930F2B06D9300001A91BF078FEBA
:1010F000019BA06023615A1C002B02D12B78037046
:1011000004E0002A02D0290015F034FF019BE360BF
:1011100002B070BD20001AF06DFD1AF01DFCC04633
:101120007C85021030B505008DB020201AF06AFBD6
:101130002B6804009B6B2800984703680100DB685C
:1011400068469847684612491BF0EAFF010006A866
:10115000FFF7A0FF200006A9FFF7B6FF0D4B06A87A
:1011600023601BF05FFE68461BF05CFE20000A4A0D
:101170000A491BF0F1F806A81BF054FEFFE7684689
:101180001BF050FEFFE720001AF052FB1AF0E4FBC0
:101190009C6F0210A48502108913001004830210B2
:1011A00030B505008DB020201AF02CFB2B68040010
:1011B0009B6B2800984703680100DB6868469847E6
:1011C000684612491BF0ACFF010006A8FFF762FF5A
:1011D000200006A9FFF778FF0D4B06A823601BF03F
:1011E00021FE68461BF01EFE20000A4A0A491BF039
:1011F000B3F806A81BF016FEFFE768461BF012FEC8
:10120000FFE720001AF014FB1AF0A6FB9C6F0210F7
:10121000A48502108913001004830210F0B50700A2
:10122000083783B004000E1E076023D0080024F0A6
:10123000A9FE050001900F280DD8012808D13378A8
:1012400023720021019B22686360D15403B0F0BD7A
:101250000028F6D008E00022200001A91BF0C0FD04
:101260000700019B2060A3602A003100380015F0C0
:1012700081FEE6E701481BF083FDC046CC6F0210FB
:1012800010B5202086B01AF0BDFA0E490400684659
:10129000FFF7C4FF69462000FFF716FF0A4B6846B8
:1012A00023601BF0BFFD2000084A09491BF054F8D9
:1012B00068461BF0B7FDFFE720001AF0B9FA1AF0F4
:1012C0004BFBC04600700210A48502108913001069
:1012D0000483021010B5202086B01AF093FA0E494C
:1012E00004006846FFF79AFF69462000FFF7ECFE0E
:1012F0000A4B684623601BF095FD2000084A094907
:101300001BF02AF868461BF08DFDFFE720001AF05D
:101310008FFA1AF021FBC04638700210A485021023
:101320008913001004830210B4230438026810B536
:10133000D3589847002802D003685B6A984710BDCD
:10134000B023043870B5140002680D00D3589847D4
:10135000002804D00368220029009B6A984770BDCA
:1013600010B50400074B03602300806810339842D7
:1013700003D02169013115F00BFE20001AF03AFC70
:10138000200010BD7C85021010B50400074B0360DF
:10139000230080681033984203D02169013115F091
:1013A000F7FD20001AF026FC200010BD7C850210FD
:1013B00010B50400074B0360230080681033984287
:1013C00003D02169013115F0E3FD20001AF012FC71
:1013D000200010BD7C85021010B50400074B03608F
:1013E000230080681033984203D02169013115F041
:1013F000CFFD20001AF0FEFB200010BD7C850210FE
:1014000010B50400074B0360230080681033984236
:1014100003D02169013115F0BBFD20001AF0EAFB71
:10142000200010BD7C85021010B50400074B03603E
:10143000230080681033984203D02169013115F0F0
:10144000A7FD20001AF0D6FB200010BD7C850210FD
:1014500010B50400094B03602300806810339842E4
:1014600003D02169013115F093FD20001AF0C2FB71
:101470002000202115F08CFD200010BD7C8502107D
:1014800010B50400094B03602300806810339842B4
:1014900003D02169013115F07BFD20001AF0AAFB71
:1014A0002000202115F074FD200010BD7C85021065
:1014B00010B50400094B0360230080681033984284
:1014C00003D02169013115F063FD20001AF092FB71
:1014D0002000202115F05CFD200010BD7C8502104D
:1014E00010B50400094B0360230080681033984254
:1014F00003D02169013115F04BFD20001AF07AFB71
:101500002000202115F044FD200010BD7C85021034
:1015100010B50400094B0360230080681033984223
:1015200003D02169013115F033FD20001AF062FB70
:101530002000202115F02CFD200010BD7C8502101C
:1015400010B50400094B03602300806810339842F3
:1015500003D02169013115F01BFD20001AF04AFB70
:101560002000202115F014FD200010BD7C85021004
:1015700010B50400083007220449206015F0FAFC79
:101580000723636000232000E37310BD587002102E
:1015900010B50400083003220449206015F0EAFC6D
:1015A0000323636000232000E37210BD607002100B
:1015B00010B50400083009220449206015F0DAFC57
:1015C0000923636000232000637410BD647002105F
:1015D00070B5B425036804005B599847002807D00C
:1015E000236820005B5998470368DB6E984770BDFD
:1015F0000F481AF01BFF00280DD1B42504E0236822
:1016000020005B5998470400236820005B599847E5
:101610000028F4D1EBE7074B074A08481A60C832A4
:101620005A6023F01BFB02481AF01CFFE5E7C04696
:10163000B82A00205826002044860210A90A00106B
:1016400070B5B425036886B05B590400984700283C
:1016500008D0236820005B5998470368DB6C9847E3
:1016600006B070BD144B18001E001AF0DFFE134DBB
:10167000002816D1002200230492059301230120A3
:101680004042C117226803930D4B009001910293D1
:1016900090232900D358200004AA9847049805995C
:1016A000DEE7084B08482B60C8336B6023F0D6FA9E
:1016B00030001AF0D7FEDDE7B82A002058260020B7
:1016C000F42A002044860210A90A0010F0B5C6468C
:1016D000B02400B5036882B01B59050088469847BE
:1016E000002833D02B6828001B599847A826036888
:1016F0001D4A9F59050097422CD11B599847002835
:1017000024D02B6828001B599847036805009A5974
:101710000192BA4221D11B599847002816D02B6854
:1017200028001B599847036805009A59019882427E
:1017300016D128001B599847002807D02B6828008D
:101740001B599847036841469B59984702B080BC93
:10175000B846F0BD4146B847F8E741469047F5E73F
:10176000414628009047F1E7CD16001030B51A4BDE
:1017700083B0036008239C46040001718444103048
:10178000A06013681D00536801930F2B0ED85A1CDC
:10179000002B07D0290015F0EDFB019B2000E36032
:1017A00003B030BD2B780370019BF7E70022604641
:1017B00001A91BF015FB019BA06023615A1C002BA3
:1017C000F0D0002AE6D101235B42E7E720001AF0BF
:1017D00011FA1AF0C1F8C0467C850210F0B54D68C8
:1017E0000B6889B029001F006A460023040004AE7C
:1017F0002F3102A80296039313741BF077FB039A10
:101800002C4B9B1A9D4250D82A00390002A81BF08D
:101810005BFC039B284A9B182E2B43D92F22274978
:1018200002A81BF051FC264B2000236000232371EB
:1018300008339C46039B1030029DA444A060019392
:101840000F2B17D85A1C002B10D0290015F092FB33
:10185000019B0298E360B04203D00499013115F076
:1018600097FB2000174B236009B0F0BD2B78037065
:10187000019BEEE70022604601A91BF0B1FA019B33
:10188000A06023615A1C002BF0D0002ADDD1012377
:101890005B42DEE720001AF0ADF902A81BF0C2FAA5
:1018A0001AF05AF808481BF083FA07481BF080FA30
:1018B000F3E7C046FEFFFF7F300000808870021013
:1018C0007C8502101C8602107070021030B54B68C7
:1018D000040087B0002B05D1036811005B699847AD
:1018E00007B030BD202019F08DFF236805002100CE
:1018F0006846DB68984769462800FFF76FFF68462F
:101900001BF090FA2800064A06491AF025FD02E06D
:1019100068461BF087FA280019F08AFF1AF01CF8B5
:10192000B11300102C8402108C4630B589B004002D
:101930000CA811001A0008C8057860464068002805
:1019400006D120680095C5692000A84709B030BDC0
:10195000202019F057FF236805002100DB6802A84A
:101960009847280002A9FFF739FF02A81BF05AFA8E
:101970002800064A06491AF0EFFC02E002A81BF014
:1019800051FA280019F054FF19F0E6FFB1130010C6
:101990002C84021030B50400080087B040681100A4
:1019A0001A000AAB1B78002805D12068C56B2000FF
:1019B000A84707B030BD202019F024FF2368050098
:1019C00021006846DB68984769462800FFF706FF54
:1019D00068461BF027FA2800064A07491AF0BCFCA3
:1019E00002E068461BF01EFA280019F021FF19F0EA
:1019F000B3FFC046B11300102C84021030B50400B0
:101A0000080011001A00436887B0002B05D1236835
:101A100020001B6C984707B030BD202019F0F2FE63
:101A20002368050021006846DB689847694628005E
:101A3000FFF7D4FE68461BF0F5F92800064A07496F
:101A40001AF08AFC02E068461BF0ECF9280019F055
:101A5000EFFE19F081FFC046B11300102C84021074
:101A6000F0B54546DE4657464E46E0B50B68DDB05C
:101A70009D6A036888465B6A14009847624B059329
:101A80009D4200D070E0614B002299460693C83316
:101A9000079300230C920D9343461A685C49D36A5E
:101AA0000A94002504000B908B4200D071E00120C5
:101AB000802102234900404258905991012116AFDC
:101AC000FF33F9540F33FF50002C69D08026514B5F
:101AD00039009B46760030E04B460E93C8330F9397
:101AE000002300201291002100960193149015917B
:101AF000D36A40465A4613960EA9DA469847882379
:101B00005B00F95853465B68002B5DD101330093AD
:101B10003200002306A801F0C3F8002302960393C5
:101B2000029A039BA41A9D4188235B00F958230065
:101B3000599E2B430FD043461A68002D02D1A6426E
:101B400000D92600936A05988342C5D032004046EA
:101B50009847DA46D3E7B9420BD05DB0F0BCBB463C
:101B6000B246A946A046F0BD020021004046A84763
:101B7000F3E7589BB34200D93300002BEDD05A1E37
:101B8000D2430021FB189A18013B19709342FBD1F4
:101B9000E3E74046009401951E4A06A99847DCE712
:101BA0008023FF225B00EBE788235B00FB58BB42EE
:101BB00025D1599A589B934223D80022002B1ED03E
:101BC000013BF9180A70F9E7202019F01BFE040008
:101BD00006A90EA8FFF7CCFC20000EA9FFF7FEFD1A
:101BE0000EA81BF01FF920000B4A0C491AF0B4FB99
:101BF0000EA81BF017F9200019F01AFED4E719F00F
:101C0000ABFE13000022D9E7211C00109C870210B4
:101C1000C51D0010F42A0020B11300102C840210FE
:101C2000F0B545464E46DE4657468046E0B55F4B2A
:101C3000DDB099460693C833002007930A914346C6
:101C400000210C900D91186814000B92C36A584A39
:101C5000002593425ED10122802352425B005892BC
:101C60005993022316AFFF330232FA540F33FF5059
:101C7000002C66D080264F4B390005934E4B7600E2
:101C80009B4630E04B460E93C83300220F9300234F
:101C900014921593002300960193C36A12915A4639
:101CA000404613960EA9DA46984788235B00F958F8
:101CB00053465B68002B58D1013300933200002358
:101CC00006A800F0EDFF002302960393029A039BFF
:101CD000A41A9D4188235B00F9582300599E2B4389
:101CE0000FD043461868002D02D1A64200D9260025
:101CF000836A059A9342C5D0320040469847DA4637
:101D0000D3E7B9420DD05DB0F0BCBB46B246A946A0
:101D1000A046F0BD404600940195274A06A9984781
:101D2000F1E7589BB34200D93300002BEBD05A1E89
:101D3000D2430021FB189A18013B19709342FBD142
:101D4000E1E78023FF225B00F2E788235B00FB587A
:101D5000BB4225D1599A589B934223D80022002B8D
:101D60001ED0013BF9180A70F9E7202019F04AFD4E
:101D7000040006A90EA8FFF7FBFB20000EA9FFF741
:101D80002DFD0EA81BF04EF820000C4A0C491AF04D
:101D9000E3FA0EA81BF046F8200019F049FDD4E73D
:101DA00019F0DAFD13000022D9E7C0469C87021023
:101DB000C51D0010211C0010F42A0020B1130010D2
:101DC0002C840210F0B55746DE464E464546E0B537
:101DD000DC4C8023A5441D9201225B005242889274
:101DE0008993022382461CA8FF330232A830C254D2
:101DF0001C910F3346A91CAAC150C9239446D24A4C
:101E0000DB00634462441B681268134300D11FE384
:101E100080235B00199346AB9C46CC4B0A93CC4B7A
:101E200012931CAA9046C84B43441B68002B0BD14D
:101E3000C923DB004344199A1B689A4204D9C92379
:101E4000DB0043441B68199353461B689A6A91460A
:101E50000A9A914500D0DEE2BE4A002103921E920A
:101E6000C8321F92624622920022249125920022BB
:101E700019981592DC6AB84A239014900C929442F7
:101E800000D0B7E201208021404249000222CE90DA
:101E9000CF910121C230FF301CAC2418FF32A15475
:101EA0008CA80F32A050149A002A00D1B8E28022E8
:101EB0000500520018921499159A002A03D1189817
:101EC000884200D918910A9A914500D005E2039AF8
:101ED00000212692C832279200222C912D920022B6
:101EE00018980F92DC6A0C9A2A952B900E909442C7
:101EF00000D0FFE101208021FFAA40424900543276
:101F000003C2B6200222012180001CAC2418FF323B
:101F1000A154D2A80F32A0500E9A002A00D152E24A
:101F20008022040052000D920E990F9A002A03D1CC
:101F30000D98884200D90D910A9A914500D060E130
:101F4000039A00212E92C8322F92002234913592AA
:101F500000220D980592DD6A0C9A32943390049019
:101F6000954200D05BE1AC220120802102ADD2007D
:101F700052194042490003C2FC2002220121800084
:101F80001CAD2D18FF32FFA8A95464300F32A850A1
:101F9000049A002A00D19AE1802284465200904699
:101FA0006B4A13920499059A002A02D1884500D9F8
:101FB00088460A9A914500D0A4E0039A00213692FF
:101FC000C832379262463A9242463B920022DC6A1D
:101FD0003C913D920C9A46460027944200D0A0E0E6
:101FE000C222012080211CACD20049001219A12577
:101FF000404203C202220121ED002D19FF32A954F3
:102000000F32AD50002E00D1F5E08024504A290057
:1020100064000B9236E0039A42913E92C83200214E
:102020003F9200224491459200220B990192009424
:1020300089460A005046DB6A43943EA998478823A4
:102040005B00E9584B465B68002B00D076E2013319
:1020500000932200002336A800F022FE00230694FD
:102060000793069B079CF61AA7413C4A88231CA8A5
:10207000145832005B00E9583A4311D053461B68AC
:102080009A6A9146002F02D1B44200D934000A9ACC
:102090009145C0D022005046C847129B9946CEE7D2
:1020A000FC201CAA80001218D3589C46A94259D083
:1020B00001230193002362460093494643462EA81C
:1020C000FFF732FC0499059A4346089300230993CD
:1020D000089B099CC91AA241FC248823A4001CA8BF
:1020E00000195B00C0581CAC84461D480491059241
:1020F00000598046080010434BD053461B689A6A2B
:1021000091464FE7424661465046C847FC21882326
:102110001CAA89005B005218D3589C46139B994611
:10212000C6E7139A50460096019736A99146A047F4
:10213000FC2188231CAA89005B005218D3589C46B6
:10214000B6E7C0466CF9FFFF4C060000211C0010EA
:10215000F42A00209C870210C51D00101406000000
:10216000FC040000C2231CAADB009B58A34200D938
:102170002300002B9CD05A1E0398D2430021834693
:10218000EB189A18013B19709342FBD15B460393FD
:102190008EE7B6211CAA89005218D458FFAB6433CD
:1021A0009C454ED00123019300230D9D00932200F6
:1021B0002B00494626A8FFF7B7FB0E990F9A00237C
:1021C00010951193109B119CC91AA241B624882323
:1021D000A4001CA800195B00C458FFA85830006870
:1021E0000E910F920D900800104343D053461B6888
:1021F0009A6A914698E68023C949FF2289465B0086
:10220000BAE7210050460D9AC847B62188231CAA78
:1022100089005B005218D458C14B9946C2E7C04BA5
:1022200050469946049B059C4A46009301942EA96A
:10223000A847B62188231CAA89005B005218D458ED
:10224000B0E7AC2302AADB009B58434500D94346C4
:10225000002BA7D05A1E0398FFA96431D2435B1804
:10226000834600219A18013B19709342FBD15B46CB
:10227000039397E71CAAC132FF32D558D2AB9C42D8
:1022800049D0012301930023189C00932A002300C6
:1022900049461EA8FFF748FB1499159A0023169487
:1022A0001793169B179CC91AA24188231CA8C130FA
:1022B000FF305B00C558CF98149115921890080014
:1022C000104340D053461B689A6A9146F3E5802339
:1022D0009349FF2289465B00BDE729005046189AC2
:1022E000C84788231CAAC1325B00FF32D5588C4BEB
:1022F0009946C6E78A4B504699460E9A0F9B26A9E7
:10230000009201934A46A04788231CAAC1325B0071
:10231000FF32D558B5E7FFAB54331B680D9A934293
:1023200000D91300002BACD05A1E0398D2A9D24377
:102330005B18834600219A18013B19709342FBD128
:102340005B4603939DE71CAAA832D3589C468CABEE
:102350009D423ED001231C98199D026801930023E1
:1023600000939833D4581D992B006246A047002350
:10237000C9201B931CAB9C46C00060441A9503689F
:1023800044681A991B9A5B1A944162460360446040
:102390008823A8325B00D3581CAA9046614A9C4609
:1023A000899B4244126819930368134300D038E5AF
:1023B00046AB9C453AD05C4B9D44F0BCBB46B24614
:1023C000A946A046F0BD80235549FF2289465B00FF
:1023D000ABE7CE9A189B9A4226D8002ABAD0531E51
:1023E0008CA9DB4352180021D318013A11709A428C
:1023F000FBD1AFE74A4B50469946149A159B1EA94C
:10240000009201934A46A04788231CAA5B00A83289
:10241000D3589C469EE761465046199AC847F3E751
:102420008022FF235200DBE71A00D6E7889B199A27
:10243000934200D91300002BBDD05A1E46A9D243A7
:102440005B1800219A18013B19709342FBD1B2E747
:102450008023FF225B00F1E7FC2188231CAA89006E
:1024600052185B00D358FFAA6432934212D12F4B0B
:102470001CAA9A58AC2302A9DB005B58934200D9EE
:1024800090E00022002B05D0FFA9013B6431C91860
:102490000A70F7E7B62188231CAA890052185B004E
:1024A000D358D2AA93420FD1FFAB58331A68FFAB6F
:1024B00054331B68934278D80022002B04D0013B90
:1024C000D2A9C9180A70F8E788231CAAC132FF32C2
:1024D0005B00D3588CAA93420BD1CF9ACE9B9342E8
:1024E00026D80022002B04D0013B8CA9C9180A7001
:1024F000F8E788231CAAA8325B00D35846AA934267
:102500000BD1899A889B934215D80022002B04D0C6
:10251000013B46A9C9180A70F8E719F01DFAC04630
:10252000F42A00204C06000094060000FC04000081
:1025300013000022D6E713000022E7E7202019F05D
:1025400061F9040036A93EA8FFF712F820003EA961
:10255000FFF744F93EA81AF065FC2000164A174917
:1025600019F0FAFE05E03EA81AF05CFC200019F014
:102570005FF988235B00EB58AB4200D06CE71CAAE4
:1025800094460F4B63441A68C223DB0063441B6804
:1025900093420DD80022002B00D15DE7013BE918E2
:1025A0000A70F8E7130000226CE71300002284E7AA
:1025B00013000022EFE7C046B11300102C84021074
:1025C00014060000F0B5D64646464F46B025C0B5C5
:1025D00003688AB05B5904000E008A4698470028B9
:1025E0000FD0236820005B599847036831009B6F28
:1025F0009847814648460AB0E0BCBA46B146A8466C
:10260000F0BD394819F012FF002843D1B02504E08D
:10261000236820005B5998470400236820005B5919
:1026200098470028F4D15346002B3FD00023994609
:102630002E4B2F4E9846236820001B6F984700288A
:10264000D8D08C270FE0DB6C20009847012223684C
:10265000009202900391DD5941463300200002AA06
:10266000A8470028C6D1236820001B6D984723681F
:102670000028E8D19B6C200098477368002B17D185
:10268000236820005B6F98474B46013399469A4573
:10269000D1D1AFE7154B174A17481A60C8325A60B4
:1026A00022F0DCFA104819F0DDFEAFE7D146A1E7D1
:1026B000202019F0A7F804000C4904A8FEF778FFC1
:1026C000200004A9FFF78AF804A81AF0ABFB200049
:1026D0000A4A0B4919F040FE04A81AF0A3FB200097
:1026E00019F0A6F819F038F9B82A00205826002069
:1026F000F42A002044860210A90A0010B113001029
:102700002C84021030B5244B87B0040003600029EC
:1027100002D1200007B030BD00F094FA0028F8D0B4
:1027200000F092FA002803D100F094FA002811D0AA
:1027300000F08AFA0128ECD1202019F063F817493B
:1027400005006846FEF76AFD6A4606212800FFF785
:102750000DF80CE0203019F055F8114905006846D5
:10276000FEF75CFD6A4606212800FEF7FFFF0D4BD1
:1027700068462B601AF056FB28000B4A0B4919F0EB
:10278000EBFD68461AF04EFB280019F051F819F0DD
:10279000E3F8F9E7F5E7F7E7B88502100C710210E6
:1027A000B870021024870210291400103C85021012
:1027B000F0B5D343DE464E4657464546E0B50E00DB
:1027C000D9172023194091B0373183460191002E4B
:1027D00000D18AE0520053089A4606AB04930023C6
:1027E00002AA0593137406AB984607239B1800248E
:1027F000994600270CAD1AE00A9B0B9AAB4250D0C9
:1028000004930C9B069905920693002844D00A90E5
:102810000C9107700A98A84203D00C99013114F06A
:10282000B7FB049B059C9846B24547D8009E51468D
:10283000300013F0E1FC0B0000903033092901D97E
:10284000019B5B184A46137002AB2833611C0AA82F
:102850000A950B971F701AF049FB344B0B9A9A425A
:1028600058D0012249460AA81AF02EFC0B9A2F4B89
:102870009B1AA3424BD3220041460AA81AF024FC1B
:10288000049806AB9842B7D10A9BAB4208D0049398
:102890000B9B05930C9B06930A950CAD2800B8E79B
:1028A0000B9A002A06D0012A27D0290014F062FBD7
:1028B0000B9A0498059287540A98AAE758465B46F3
:1028C0000830186006AB98451CD05B4642461A603B
:1028D0005A46069B93605B465C60584611B0F0BC5C
:1028E000BB46B246A946A046F0BD030008330360CC
:1028F000012343602F330381EFE702AB27329B5C58
:102900000370D5E71900621C14F034FBE3E70848B4
:102910001AF04EFA06481AF04BFA0AA81AF082FA90
:1029200004A81AF07FFA19F017F8C046FEFFFF7FDF
:1029300070700210F0B54746CE4680B59DB0904607
:102940006A4600234D6804000E6812AF4832A91C85
:1029500010A81097119313701AF0C8FA119A7E4BB1
:102960009B1A9D4200D9ECE02A00310010A81AF011
:10297000ABFB119B794A9B18012B00D8DEE00222A9
:10298000774910A81AF0A0FB0A22414616A8FFF7C3
:102990000FFF1198179A109B8518BB4200D1B0E029
:1029A00012998D4200D89CE0169918AEB14203D01E
:1029B000189EB54200D87DE0674B1B1A9A4200D999
:1029C000A9E010A81AF080FB082294460CAB0A93E9
:1029D0009946036884440500E0460AAE634500D189
:1029E00081E00A938368B3606B685E4A7360434614
:1029F0002B6000236B602B7273689B18192B00D817
:102A000098E01A22300058491AF05EFB08229446DA
:102A100006AB0493036884440500E046634569D02F
:102A200004938368069342462A6000226B682A72E8
:102A30006A604E4A200022600122227107329446C9
:102A40001030049D0593A444A06003930F2B38D845
:102A50005A1C002B2AD0290014F08CFA039B0498EE
:102A6000E36006AB984203D00699013114F090FA66
:102A70000A98484503D0B168013114F089FA1698D4
:102A800018AB984203D01899013114F081FA1098CC
:102A9000B84203D01299013114F07AFA2000344B75
:102AA00023601DB0C0BCB946B046F0BD2B780370A2
:102AB000039BD4E700900022002116A81AF0A6FA82
:102AC00082E70022604603A91AF08AF9039BA060FE
:102AD00023615A1C002BE9D0002ABCD101235B42A0
:102AE000BDE7169968E7426861464846013214F02E
:102AF00041FA79E742686146013206A814F03AFAD1
:102B000091E70F2D05D9169918AEB14200D04FE7C5
:102B100057E7169955E717481AF04AF916A81AF018
:102B200081F910A81AF07EF918F016FF30001AF09B
:102B300079F9F3E70F481AF03BF9F2E70D481AF07C
:102B400037F90C481AF034F9EBE7200019F052F885
:102B500004A81AF067F9E9E7FEFFFF7F0300008091
:102B6000587102101B0000805C7102107C850210FD
:102B70003086021070700210F0B5C64600B5984657
:102B800003680F0015001E499A69040086B08A4246
:102B90000FD129005B69984785420ED123682A002E
:102BA000DE6B390043462000B04706B080BCB84613
:102BB000F0BD290090470028F0D1202018F022FE17
:102BC000236806009B6B2000984703680100DB68C0
:102BD000684698472A0069463000FFF7ABFE684612
:102BE0001AF020F93000074A074919F0B5FB02E056
:102BF00068461AF017F9300018F01AFE18F0ACFE0B
:102C0000010A0010011400109C84021010B5024942
:102C10000248FEF703FB10BD68730210F42A00207F
:102C200010B502490248FEF7F9FA10BD787102109A
:102C3000DC2A0020014B024A1A6070470C2B00204E
:102C40003887021000207047014B18787047C04643
:102C5000F1380020002070477047C04604387047A4
:102C60004369C2699C468369002A07D16246D21A29
:102C70009C4503D900690A60C01870470022F9E733
:102C800010B50400202114F083F9200010BDC046C7
:102C900010B5041F2000202114F07AF9200010BD87
:102CA000F8B504000069150000280FD000290DD0E8
:102CB000E669A3696269002E01D19A4210D8002604
:102CC00000270022C01822F05BFF01E00026002749
:102CD000A269E36992197B412800A261E361F8BD12
:102CE000D21AAA4203D816000027AD1AEAE72A0032
:102CF00000271600AD1AE5E7F0B50500083583B0EA
:102D000004000F1E056002D113481AF039F80800BC
:102D100023F038F9060001900F2809D9002220007D
:102D200001A91AF05DF8019B05002060A36006E090
:102D3000012802D13B78237206E0002804D032003B
:102D40003900280014F016F90021019B2268636005
:102D5000D15403B0F0BDC046CC6F021030B5002393
:102D60000400080089B0009301930368164A9D6827
:102D700016496B46A847002805D0009B2361019B9C
:102D8000636109B030BD203018F03CFD10490400EB
:102D900002A8FFF7B1FF0121200002AAFEF7E6FC1E
:102DA0000C4B02A823601AF03DF820000A4A0B4998
:102DB00019F0D2FA02E002A81AF034F8200018F054
:102DC00037FD18F0C9FDC0468C8702107C710210D7
:102DD0008C71021090850210D9130010DC82021051
:102DE00004307047F0B5DE4657464E464546A023B0
:102DF0008A46E0B5C258097B89B0117052461178F5
:102E0000C258002411715246517BC258517052462B
:102E10005178C25851715246917BC25891705246B6
:102E20009178C25891710F22524406925246D17B3A
:102E3000C258D1705146524607310791A021D2782D
:102E4000C3588B46DA7151460823624A072525404C
:102E5000AC465D464659654617784D5D8C44ED1984
:102E6000F55407255E46671C2F4001978559CE5DB6
:102E70005778ED18F6196E7007265F46A51C2E4090
:102E80000296C5598E5D9778ED18F619AE70072633
:102E90005F46E51C2E400396C5598E5DD778ED1828
:102EA000F619EE7007265F46251D2E400496C5597B
:102EB0008E5D1779ED18F6192E7107255F46661D90
:102EC0002E40C5598F5DED18B84657790596B84420
:102ED00047466F715F460726C759A51D3540B8465E
:102EE0004F5D9844B94697794D19B9444E464746C7
:102EF000BE715F46C759B846079F98443F5DB946C3
:102F0000D779B9444E464746FE715F46C759B84621
:102F100067463F7A9844BC46177ABC4466464746A3
:102F20003E725F46C759567ABC46019F9C44CF19F2
:102F30003F7ABF1966467772029E5F46B4468C445C
:102F40006646367AC759B446967AFF18B444664640
:102F5000BE72039E5F46B4468C446646367AC759B5
:102F6000B446D67AFF18B4446646FE725F46C75927
:102F7000049EBC468F193F7A167B9C44BF19664657
:102F800037735E468759059EFF188E19367AB0460C
:102F9000567BB446464666447E735E46977B8659AA
:102FA0002D7AF618ED19B5735D46069ED77B365D12
:102FB0004559F619ED18013CEE7325001032103317
:102FC000083500D042E709B0F0BCBB46B246A9467E
:102FD000A046F0BD588E0210F0B557464E46454605
:102FE000DE46E0B599464B78A8259C4643196546D0
:102FF00098461B6B8BB004005D60A025CE7893468D
:10300000DE604F7962595F61C8790994D86115789B
:103010000C7804966419E5B21D60547800958D789B
:1030200065409D60947801950D792D19EEB21E6171
:103030008C79D1784C4021009C61FE4C0591D57A69
:10304000615C069649194840FF210840D86102900A
:10305000F948855D967A75407F19FFB25F610397E5
:10306000019F567AE75D009DBF19049E7E400E4089
:10307000DE60475D0496039D167A7740665D67447F
:10308000B446FFB25F60D67B059DB44466466E4091
:103090003500049E0D40865D9D61B446967B059586
:1030A000350066466E40069DAD19EDB206951D6170
:1030B000E65D019DB446567BB44466466E400E40C4
:1030C000B446029D9E60465D157B6E40009DAD1925
:1030D000EDB21D600095069D665DD57C7619039D59
:1030E000754066460D405D61865D0195957C6E403C
:1030F000B246049E56440E40DE600396009E557C08
:10310000A65D761977400F40059E5F60865D049747
:10311000177C029D7E407619039D0E40DE61675D3F
:10312000D57D7F19069D7D402F000F401F610297BE
:10313000049FC55D977D7D4065442F000F409F60D3
:10314000BC46A55D577DED19009F7D402F00019D78
:103150000F401F60455D0097177D7D40059FED196D
:1031600067460D409D61E75D0595D57E7F19039DFE
:103170007D400D40009FDD60C75D0395957E6F40EB
:10318000BA46049F059D57440F4004975F60675DF2
:10319000557E7F197E400E40DE613700029E157E0F
:1031A000865D07976E40019D76190E40049D5E6115
:1031B000655D0196D67FAD1966466E403500C65DE9
:1031C0000D40B4469D60967F0695370066467E406A
:1031D000B446009F059DBC4466460E40B4461E6042
:1031E000019E577FA65DF61975402F00039D0F4085
:1031F0009F61167F455D0097029F7540EE190E4056
:1032000002961E6123276646A65DD75D079DF619C7
:10321000049F774022260F405F600497009F965DD1
:10322000C75D77407F19029E0F40DF613D00A75DBB
:103230002126965D0795BF19019E77403E000E40FE
:103240005E6101962026069F965DC75D7740039ECE
:10325000BF19665D27250F40DF60555D039776191E
:1032600065466E40350026270D40019E1D60D75DE6
:10327000865D0595009D7E4076190E4000969E6104
:10328000039D675D029DBC462527D75DBC4466460D
:103290006E40350024270D401D610295049DD75DC9
:1032A000455D069E7D40009FAD19E75D0D40BC4623
:1032B0002B279D60D75D079EBC44674677403E0044
:1032C0000E40DE610696029E875DBC462A27D75DCA
:1032D0003E0067467740BC46019EB44467462926B7
:1032E0000F405F61965DBC46675DBF19039E7E40DF
:1032F000370028260F40DF600197059F965DC75D68
:103300007740049EBF190F40664603975F602F27E2
:10331000A65DD75DF619009F77403E00019F0E40E5
:103320009E610096C65D2E27D75D7E40029FF619EE
:103330000E401E6102962D26039F965DE75DBF1924
:103340002C267D400D409D602F00069D965D455DBD
:1033500007977540059EAD19029E0D401D600495AE
:10336000A55D3326965DAD1966466E403500C65D97
:103370000D40B44632265D61975D66467E40B44698
:10338000019F3126BC4467460F40BC46DF60049F66
:103390000595E75D965D039DBF197D402F003026A2
:1033A0000F405F603D00009F965DC75D7740069EC1
:1033B0000695BF190F40DF61019766463727A65D66
:1033C000D75DF619029F77403E0036270E401E61FA
:1033D000D75D0296465D079D7E40352776190E40E3
:1033E000019D9E60D75D655D0396ED19049F009E6B
:1033F0006F403D0034270D401D600495059DD75D4D
:10340000455D7D403B27AD190D409D61039ED75D15
:10341000A65DF619674677403E000E40DE600096D6
:10342000049E875DBC463A27D75D3E0067467740DD
:10343000BC4603E0588D0210588C0210069EB4441E
:10344000674639260F405F60965DBC46675DBF19D1
:10345000019E7E40370038260F40DF610197029FB2
:10346000965DC75D7740059EBF190F405F61059768
:103470003F266746965DE75DBF19039E7E40019F2C
:103480000E409E600396C65D3E27D75D7E40049F3A
:10349000F6190E4004961E60059FE65D3D27D75D38
:1034A000F61975403C260D409D612F00009D965DEC
:1034B000455D07977540029EAD19049E0D401D6144
:1034C0000295A55D4326965DAD1966466E403500B2
:1034D000C65D0D40B44642265D60965D069535009A
:1034E00066466E40B446019F4126BC446746029D35
:1034F0000F40DF61965DBC46675DBF19059E7E404B
:10350000370040260F403D005F61039F965DC75D19
:103510007740009EBF190F4066460097DF6047273F
:10352000A65DD75D0595F619049F77403E004627B6
:103530000E401E60D75D0196465D079D7E40452783
:1035400076190E40009D9E61D75D0496665D029DD2
:10355000F619442775400D401D610295069DD75D03
:10356000455D039E7D404B27AD190D40049E9D6037
:10357000D75DA65DF619674677403E000E40DE61D6
:103580000396029E875DBC464A27D75D3E0067468C
:103590007740BC46059EB444674649260F405F61AC
:1035A000BC46675D965DBF19009E7E403700482689
:1035B0000F40DF600097019F965DC75D7740069ED4
:1035C000BF190F405F6005974F266746965DE75D20
:1035D000BF19049E7E40009F0E409E610496C65D0A
:1035E0004E27D75D7E40029FF619059F0E401E6153
:1035F0000296E65D4D27D75DF61975404C260D40C5
:103600002F009D60039D965D455D7540019EAD193F
:10361000029E0D4001951D60A55D5326965D07979E
:10362000AD1966466E403500C65D0D40B446522663
:103630005D61965D0695350066466E40B446009F16
:103640005126BC446746019D0F40DF60965DBC4635
:10365000675DBF19059E7E40370050260F405F60B2
:103660003D00049F965DC75D05957740039EBF1999
:103670000F40DF61009766465727A65DD75DF619B4
:10368000029F77403E0056270E401E61D75D02968E
:10369000465D079D7E4055277619009D0E40039696
:1036A0009E60665DD75D019DF619542775400D40FB
:1036B0001D600195069DD75D455D049E7D405B279D
:1036C000AD190D40039E9D61D75DA65DF619674655
:1036D00077403E000E40DE600496019E875DBC464A
:1036E0005A27D75D3E0067467740BC46059EB444E6
:1036F000674659260F405F60965DBC46675DBF19FF
:10370000009E7E40370058260F40DF610097029FE1
:10371000965DC75D7740069EBF190F4005975F61B4
:103720005F266746E75D965DBF19039E7E40009F5A
:103730000E409E600396C65D5E27D75D7E40019F6A
:10374000F619059F0E401E600196E65D5D27D75D68
:10375000F61975405C260D409D612F00049D965D15
:10376000455D07977540029EAD19019E0D401D6194
:103770000295A55D6326965DAD1966466E403500DF
:10378000C65D0D40B44662265D60965D06953500C7
:1037900066466E40B446009F6126BC446746029D63
:1037A0000F40DF61BC46675D965DBF19059E7E4098
:1037B000370060260F405F613D00039F965DC75D47
:1037C00005957740049EBF190F40DF60009766465D
:1037D0006727A65DD75DF619019F77403E006627F3
:1037E0000E401E60D75D0196465D079D7E406527B1
:1037F00076190E40009D9E61D75D0496665D029D20
:10380000F619642775400D401D610295069DD75D30
:10381000455D039E7D406B27AD19049E0D409D6064
:10382000A65DD75DF619674677403E000E40DE6123
:103830000396029E875DBC466A27D75D3E006746B9
:103840007740BC46059EB444674669260F405F61D9
:10385000965DBC46675DBF19009E7E4037006826B6
:103860000F40DF600097019F965DC75D7740069E21
:10387000BF190F405F6005976F266746965DE75D4D
:10388000BF19049E7E40009F0E409E610496C65D57
:103890006E27D75D7E40029FF619059F0E40029667
:1038A0001E61E65D6D27D75DF61975406C260D40EB
:1038B0009D602F00039D965D455D07977540019EB5
:1038C000AD19029E0D401D600195A55D7326965DA4
:1038D000AD1966466E403500C65D0D40B446722691
:1038E0005D61965D0695350066466E40B446009F64
:1038F0007126BC446746019D0F40DF60965DBC4663
:10390000675DBF19059E7E40370070260F403D0061
:103910005F60049F965DC75D7740039EBF19664652
:10392000A65D0F4003967726DF610097965D0895A8
:103930003700039EF619029F77403E0076270E401F
:103940001E61D75D0296465D079D7E407619009FF9
:103950000E409E600396E65D7527D75D019DF619C2
:10396000742775400D401D600195069DD75D455D2E
:10397000049E7D407B27AD190D409D6104956546F1
:10398000039ED75DA65DF61975402E000E40DE60E1
:103990000596019E875D089E3D007A27D75D7D4094
:1039A000AC46B444654679270D405D60AC46049D45
:1039B000D75D655D029EED19009F6F4078250F4031
:1039C000DF61555D0097875D069E6F40BF190F4010
:1039D0005F6106976746E55D7F27D75D039EED191A
:1039E0006E4035007E270D40009E9D60D75D865D50
:1039F00003957E407D27019D76190E40069D1E6031
:103A0000D75D0196665D059DF619049F455D7E4074
:103A10007C270E409E61D75D0496029E7D40AF19C3
:103A20000F401F6102978327019ED75DA65D822507
:103A3000F619674677400F40049E5F60555DBC46AF
:103A4000875D009E6F408125F6190E40029FDE6162
:103A5000555DE75D00967F19069D059E7D402F0010
:103A600080250F405F610697039F555DC75D6F40DE
:103A70008725BF190F40009EDF60A65D555D751953
:103A8000019E6E4086250E401E60069E555D865D39
:103A90006E40B246049EE45D56440E409E6185260B
:103AA000965D029DA4196C400C401C6166468424FE
:103AB000805D125D039F42405846D21911409960C3
:103AC00000284AD04378A0255A404B465A704346B6
:103AD0001B6BC2781B69099C53404A46D37043460E
:103AE0001B6B42799B6953404A46537143461B6B9B
:103AF000C2791B6853404A46D371434661591B6BD8
:103B000009795B68A0225B1801784B4049460B702D
:103B1000635959798378594043461B6BDB684B40A6
:103B200049468B704346A1581B6B89795B695B18CA
:103B300001794B4049460B71A3588279DB795A4091
:103B400043461B6BDB6953404A4693710BB0F0BC94
:103B5000BB46B246A946A046F0BD4B465A70434606
:103B60004A461B6BA0201B690999D37043461B6B07
:103B70009B69537143461B6B1B68D37143460A58BC
:103B80001B6B12795B689B184A46137043460A58B0
:103B90001B6B5279DB6853404A46937043460A5880
:103BA0001B6B92795B699B184A4613714346A022AE
:103BB0001B6B8A58DB69D2795340C5E708B4024BC6
:103BC0009C46043808BC6047D92F0010F0B5574612
:103BD0004E464546DE46E0B5A826994683194D78FF
:103BE00098461B6B8BB09D60CE7804001E61B44676
:103BF000A026487904959861CD799346A2591D6015
:103C00000595099415790C78641BE6B25E605479C9
:103C10008F7801966740DF60029786270D79947947
:103C20002D1BEDB25D618E79D1794E40DE61FE4C87
:103C3000D75D615D0795794085276546401AC1B219
:103C40009961FA4803910299D75D415CC9194D40C9
:103C5000FF2184270D401D61AC46019DD75D655D48
:103C60007D402F00049DEF1BFDB29D6004958725CC
:103C7000875D555D7F19059D7D400D401D60059553
:103C8000039D675D8225555D6F40F61BF7B2DF61CE
:103C9000069781266746965DC75D079DBF197D40E3
:103CA000049E0D405D61A75D8026965D7740029E73
:103CB000F71B8326FFB2DF600297059F965DC75D05
:103CC000BF19019E77400F405F6001977E27069ED7
:103CD000D75DA65D7E40059FBF1B0F401F60059707
:103CE0007D27465DD75DF619039F77400F409F61A2
:103CF00003977C27029ED75DA65D7E406746BE1B6C
:103D000037000F401F610797019FC65DB4467F26AD
:103D1000965DB4446746049E77403E000E409E6028
:103D2000059FB446E65D7A27D75D7E40019FBF1BA5
:103D300079260F405F600197039F965DC75DBF19AD
:103D4000069E77403E0078270E40DE610496079E6F
:103D5000D75DA65D7E40AD1B0D405D6106957B265F
:103D600065467627965D455DAD19029E75400D400E
:103D7000019EDD60D75DA65DAA467E406746BE1BFC
:103D800075270E40B4469E60049ED75D865DF61989
:103D9000059F7E4074270E4002961E60069EA65D1B
:103DA000D75D7E40039FBF1B0F409F61039777271E
:103DB000465DD75D7225F619079F7E4067460E4027
:103DC0001E6105965646555DE75D6F40F51B7127F0
:103DD0000D40DD602E00029DD75D455DED19019F10
:103DE0007D4070270D405D600195039DD75D655D49
:103DF0007D40049F7F1B0F40DF6104977327059D63
:103E0000D75D455DED19069F06967D402F000F405A
:103E1000BA465F61A75D6E26965D059D7740EE1BF5
:103E20006D270E401E613500019ED75D865D0795AA
:103E3000F61967467E406C270E409E600596049EEC
:103E4000D75DA65D7E40029FBE1B57460E401E609A
:103E50000296C65D6F27D75DF619039F7E40675DAA
:103E60006A250E409E61555D6F405546ED1B6927E2
:103E70000D40AC465D61059DD75D455DED19069F22
:103E80007D4068270D40DD600395029DD75D655D2F
:103E90007D40019F7D1B6B270D4001955D60D75DC7
:103EA000855D0696ED19049F66267D402F000F4024
:103EB000DF61BA466746965DE75D7740069EF61B72
:103EC00065270E409E613500039ED75D865DF6191D
:103ED000079F07957E4064270E401E610496019E51
:103EE000D75DA65D7E40059FBF1B0F409F60059775
:103EF0005746C65D6727D75DF619029F7E40675D0E
:103F000062250E401E60555D02966F405546ED1BC2
:103F100061270D402E00DD61049D455DD75D08964B
:103F2000ED1967467D4060270D405D610695059D52
:103F3000D75D655D7D40039F7D1B63270D40DD6080
:103F40000395029DD75D455DED19019F7D40A75DFD
:103F50005E260D405D60965DAA46029D7740EE1B91
:103F60005D270E40B4461E60069ED75D865D5A25CD
:103F7000F619079F7E405C270E409E610196039EC6
:103F8000D75DA65D7E40049FBE1B0E4002961E615B
:103F90005F275646865DD75DF619059F7E406746CA
:103FA0000E409E6004965646555DE75D6F40F51BDA
:103FB00059270D405D602E00019DD75D455D079638
:103FC000ED19089F7D4058270D40DD610595029D44
:103FD000D75D655D7D40069F7F1B0F405F61069743
:103FE0005B27049DD75D455DED19039F7D402F0044
:103FF0000F40BA46DF60A75D5626965D049D774068
:10400000EE1B55270E4035009E60059E865DD75DF0
:104010000895F61967467E4054270E401E600396A9
:10402000069ED75DA65D03E0588C0210588D0210E5
:104030007E40019FBE1B57460E409E610196C65DA5
:104040005727D75DF619029F7E40675D52250E40C7
:104050001E61555D6F405546ED1B51270D40DD60DB
:10406000AC46039DD75D455DED19079F7D40502708
:104070000D405D600295019DD75D655D7D40059FAA
:1040800005967D1B53270D40DD61D75D0495855D49
:104090004E26ED19069F7D402F000F405F61BA4606
:1040A0006746965DE75D7740059EF61B4D270E40FF
:1040B0001E613500029ED75D865D0795F619089F43
:1040C0007E404C270E409E600596049ED75DA65DFF
:1040D0007E40039FBF1B0F401F6003975746C65D7E
:1040E0004F27D75DF619019F7E40675D4A250E4038
:1040F0009E61555D01966F405546ED1B49270D4069
:104100002E005D61059DD75D455DED1967467D40DB
:1041100048270D400695DD60039DD75D655D0896D7
:104120007D40029F7D1B4B270D405D600295019DE8
:10413000D75D455DED19049F7D40A75D46260D4086
:10414000DD61965DAA46019D7740EE1B45270E4036
:104150009E61B446069ED75D865D4225F619079F8F
:104160007E4044270E401E610196029ED75DA65DEB
:104170007E40059FBE1B0E409E6004964727564614
:10418000D75D865DF619039F7E4067460E40039615
:104190001E605646555DE75D6F40F51B41270D409B
:1041A000DD612E00019DD75D455D0796ED19089FE5
:1041B0007D4040270D405D610595049DD75D655D9F
:1041C0007D40069F7F1B0F40DF6006974327039DBE
:1041D000D75D455DED19029F7D402F000F40BA4627
:1041E0005F60A75D3E26965D039D7740EE1B3D27F1
:1041F0000E4035001E60059ED75D865DF619674648
:104200007E403C270E4002969E61069EA65DD75DCD
:1042100008957E40019FBE1B57460E401E610196C9
:10422000C65D3F27D75DF619049F7E40675D3A253E
:104230000E409E60555D6F405546ED1B39270D4081
:104240005D60AC46029DD75D455DED19079F7D40E1
:1042500038270D40DD610395019DD75D655D7D408B
:10426000059F05967D1B3B270D405D61D75D04953D
:10427000855D3626ED19069F7D402F000F40BA461A
:10428000DF606746965DE75D7740059EF61B352744
:104290000E409E603500039ED75D865D0795F6193A
:1042A000089F7E4034270E401E600596049ED75D11
:1042B000A65D7E40029FBF1B0F409F61029757463D
:1042C000C65D3727D75DF619019F7E40675D3225B1
:1042D0000E401E61555D01966F405546ED1B31271E
:1042E0000D402E00DD60059DD75D455DED196746EB
:1042F0007D4030270D405D600695029DD75D655D70
:104300007D40039F7D1B33270D400395DD61019D9B
:10431000D75D455D0896ED19049F7D40A75D2E266B
:104320000D405D61965DAA46019D7740EE1B2D27ED
:104330000E401E61B446069ED75D865D2A25F6199D
:10434000079F7E402C270E409E600196039ED75DFE
:10435000A65D7E40059FBE1B0E401E6004962F2763
:104360005646D75D865DF619029F7E4067460E4031
:104370009E6102965646555DE75D6F40F51B292705
:104380000D402E005D61019D455DD75D0796ED19DD
:10439000089F7D4028270D40DD600595049DD75D71
:1043A000655D7D40069F7F1B0F405F6006972B2752
:1043B000029DD75D455DED19039F7D402F000F40A5
:1043C000DF61BA46A75D2626965D029D7740EE1B0B
:1043D00025270E4035009E61059ED75D865DF61946
:1043E00067467E4024270E401E610296069ED75DDA
:1043F000A65D7E40019FBF1B0F4001979F605746FF
:10440000C65D2727D75D0895F619049F7E40675D36
:1044100022250E401E60555D03966F405546ED1BEC
:1044200021270D40DD612E00029DD75D455DED1910
:10443000079F7D4020270D405D610495019DD75D5C
:10444000655D7D40059F7F1B0F40DF60059723273B
:10445000039DD75D455DED19069F06967D40A75DDE
:104460000D403E005D60977F7E403700039EF61B47
:10447000049F0E4003961E60C75D567FBF19089EBD
:1044800077400F409F61BC46059F167FE75D7740F0
:10449000029EF71B0F401F61D67F0297475DBF1931
:1044A000019E77403E000E409E600796039EA75DEA
:1044B000967E7740ED1B67460D405D60567EC75D7A
:1044C0000195BF19069E079D77400F40029EDF6150
:1044D0000697A75D167E7740049EF71B3E000E40B0
:1044E00004965E61475DD67EBF19059E77400F40FA
:1044F000019EDF600597A75D967D7740EE1B0E401D
:10450000069F9E603500C75D567D0895BF19039EC6
:104510007E403700049E0F401F60A65D0397177D05
:104520007E406746BE1B0E40059F9E610796C65D96
:10453000D77DF619029F7E40675D0E40BC461E6126
:10454000977C3D0067466F403D00059F7F1B0F40F5
:104550000297DF60039FC75D557C7F19019D6F4007
:104560003D000D40AC465D60079D177C655D6F406A
:10457000069DEF1B0F40DF61855D0197D77CED192C
:10458000049F7D400D40029F5D61E75D0495957B32
:104590006F406546F61B0E401E610596465D557BD5
:1045A000089F76197E400E409E600696019E157B00
:1045B000A65D039F6E40BE1B049D0E4003961E60C9
:1045C000465DD57B079F76197E400E40059F9E6114
:1045D000957AE75D6F40049DED1B0D405D61069D82
:1045E000577A455D805DED19029F7D4067460D401D
:1045F000DD60039D645D157A6C403C1B0F00274015
:104600005F60D27A82180198424058461140D961C1
:1046100000284AD04A464378A02563405370434659
:104620001B6BC278DB68099C53404A46D3704346F3
:104630001B6B42795B6953404A46537143461B6B7F
:10464000C279DB6953404A46D371434661591B6BBB
:1046500009781B68A0225B1A01784B4049460B7011
:10466000635959788378594043461B6B9B684B408C
:1046700049468B704346A1581B6B89781B695B1AAE
:1046800001794B4049460B71A3588279DB785A4037
:1046900043461B6B9B6953404A4693710BB0F0BC79
:1046A000BB46B246A946A046F0BD4B465C704346A9
:1046B0004A461B6BA020DB680999D37043461B6BED
:1046C0005B69537143461B6BDB69D37143460A58E0
:1046D0001B6B12781B689B1A4A46137043460A5894
:1046E0001B6B52789B6853404A46937043460A5866
:1046F0001B6B92781B699B1A4A4613714346A02292
:104700001B6B8A589B69D2785340C5E708B4024BAB
:104710009C46043808BC6047CD3B00101020704711
:1047200010207047102070471020704704207047F9
:1047300000207047082070470820704710B504001B
:10474000083005220449206012F014FC0523636040
:1047500000232000637310BDB87102100300064AE5
:10476000083303601168816012791A710523436070
:10477000002343737047C046B87102101020704781
:104780002020704710207047102908D91F2904D80D
:10479000072307319943080070472020FCE71020C9
:1047A000FAE7C04604207047002070471020704789
:1047B0001020704710B5040008300322044920601F
:1047C00012F0D8FB0323636000232000E37210BDC6
:1047D0006070021010B50400083007220449206000
:1047E00012F0C8FB0723636000232000E37310BDB1
:1047F000C07102100300074A08330360116881602A
:104800009188998092799A71072343600023C3733A
:104810007047C046C07102100300064A08330360A7
:104820001188018192789A70032343600023C37238
:104830007047C04660700210F0B5DE4657464546E8
:104840004E46E0B587B007000D1E9B46446A0092B5
:1048500001D100F02CFE05AB04221800029312F0E7
:1048600089FB059B09221900D1418A462E0023604D
:10487000029B291D18000422984612F07BFB310090
:10488000059D042208314046656012F073FB31003B
:10489000059B0422A3600C314046994612F06AFB46
:1048A000059AE260BB6A9C4661467B691C2900D878
:1048B000A8E0BA215046890059581D265140411A96
:1048C000BB2080001858B44641401B20C541BC2085
:1048D00021608000185848402D1ABD2080001858CB
:1048E00045404846F0410600BE20656080001858EB
:1048F0006840361ABF208000185846400920C2413F
:10490000B146A6601600B4228046484692009A58E6
:104910004240B21AB526B6009E59B72072400E002A
:104920001B21CE41B621E2608900595880001858F9
:104930005140711A41406046C5412E00B825B9204A
:104940002160AD005D59800018584D40751B4540F1
:104950004E464046C641AA4665603500AE265046E2
:10496000B6009E594640AF20AE1B15001B228000AA
:104970001858D541B0224640B120A66092009A58FE
:10498000800018587240AA1A42406046C1410D008A
:10499000B221B320E2608900595880001858514074
:1049A000691A414055464046C5412800A825216066
:1049B000AD005D594D40451BA92080001858454069
:1049C00030001B26F041AA266560B6009E596E4055
:1049D000861BAB208000185846406046C241944672
:1049E000AC2260469200A6609A58B1467240821A84
:1049F000AD20800018584240E260B86A84464046C4
:104A0000C1418A466146182900D8A6E0A221504635
:104A1000890059581D265140411AA320800018587A
:104A2000B44641401B20C541A42021608000185895
:104A300048402D1AA5208000185845404846F041AE
:104A40000600A6206560800018586840361AA72026
:104A50008000185846400920C241B146A6601600A1
:104A60009C228046484692009A584240B21A9D269F
:104A7000B6009E599F2072400E001B21CE419E2100
:104A8000E26089005958800018585140711A41401D
:104A90006046C5412E00A025A1202160AD005D59D2
:104AA000800018584D40751B45404E464046C64153
:104AB000AA466560350096265046B6009E59464087
:104AC0009720AE1B15001B2280001858D541982254
:104AD00046409920A66092009A588000185872406B
:104AE000AA1A42406046C1410D009A219B20E26013
:104AF00089005958800018585140691A414055465C
:104B00004046C541280090252160AD005D594D40CB
:104B1000451B912080001858454030001B26F0416D
:104B200092266560B6009E596E40861B93208000D9
:104B3000185846406046C24194469422604692000E
:104B4000A6609A58B1467240821A95208000185883
:104B500042404046C1418A46E2608A21504689006F
:104B600059585140411A8B208000185841408C46BA
:104B700021601B218C206646CD4180001858704072
:104B80002D1A8D20800018588E26454065601D2006
:104B9000A8464D46C54101954546B6009E596E4012
:104BA000019DAE1B8F25AD005D5975400926F24170
:104BB00003928422A56092009A5801956A40039D51
:104BC000AA1A8525AD005D596A40E26091466246A9
:104BD000CA41862503924A46AD005D595540039A65
:104BE000521B9446872292009A58150062466A40EA
:104BF0004546C541AC4688252260AD005D5903920B
:104C000055406246551B892292009A585540019A98
:104C1000A846F2416560FC25019242466D005D594F
:104C20005540019A551BAC46FE256D005D592A0082
:104C300065465540AC46A5604D46CD418022019564
:104C4000654692009A586A40019DAA1A8125AD00D6
:104C50005D595540039AE560C2410192822292005B
:104C60009A5803956A40019DAA1A8325AD005D59A3
:104C70006A40226091464246F241F02501924A463E
:104C80006D005D595540019A551BF22252009A5809
:104C900055406246CA410192F422656052009A581A
:104CA000A8466A401500019A521B9446F62252000B
:104CB0009D5862466A40A2600192039AF825C2415B
:104CC0006D0003925D59019A5540039A551BAC46FD
:104CD000FA256D005D592A0065465540AC46E560F1
:104CE0004D46F541E4220395654652009A586A40C4
:104CF000039DAA1AE6256D005D596A404546CD41DF
:104D00000395E82522606D005D5991465540039A50
:104D1000551BEA2252009A586A40019D6260C541C3
:104D20000395EC256D005D5901925540039A551B82
:104D3000EE2252009A585540A560A8466546F541B6
:104D4000D8220395454652009A586A40039DAD1AF1
:104D5000AC46DA256D005D592A0065465540E56090
:104D6000AC464D46CD41DC220395654652009A582B
:104D70006A40039DAA1ADE256D005D595540019ACF
:104D80002560C2410192E02252009A5803956A4080
:104D9000019DAA1AE2256D005D596A409146626044
:104DA0004246F241CC2501924A466D005D5955407C
:104DB000019A551BCE2252009A5855406246CA416C
:104DC0000192D022A56052009A58A8466A40150068
:104DD000019A521B9446D22252009D5862466A4064
:104DE000E2600192039AD425C2416D0003925D599D
:104DF000019A5540039A551BAC46D6256D005D5966
:104E00002A00654655402560AC464D46F541C02216
:104E10000395654652009A586A40039DAA1AC22516
:104E20006D005D596A404546CD410395C4256260D9
:104E30006D005D5991465540039A551BC62252009C
:104E40009A586A40019DA260C5410395C8256D002E
:104E50005D5901925540039A551BCA2252009A5837
:104E60005540E560A8466546F541B42203954546A0
:104E700052009A586A40039DAD1AAC46B6256D00A3
:104E80005D592A00654655402560AC464D46CD41EA
:104E9000B8220395654652009A586A40039DAA1AA3
:104EA000BA256D005D595540019A6560C241019275
:104EB000BC2252009A5803956A40019DAA1ABE2549
:104EC0006D005D596A40A26091464246F241A825B4
:104ED00001924A466D005D595540019A551BAA2220
:104EE00052009A5855406246CA410192AC22E56090
:104EF00052009A58A8466A401500019A521B9446DF
:104F0000AE2252009D5862466A4001922260039A86
:104F1000B025C2416D0003925D59019A5540039A34
:104F2000551BAC46B2256D005D592A0065465540BB
:104F30006560AC464D46F5419C220395654652009E
:104F40009A586A40039DAA1A9E256D005D596A40D1
:104F50004546CD410395A025A2606D005D5991465F
:104F60005540039A551BA22252009A586A40019D4F
:104F7000E260C5410395A4256D005D59019255403D
:104F8000039A551BA62252009A5855402560A84600
:104F90006546F54190220395454652009A586A406D
:104FA000039DAD1AAC4692256D005D592A006546F9
:104FB0005540AC4665604D46CD419422039565460B
:104FC00052009A586A40039DAA1A96256D005D59B1
:104FD0005540A560019A0395C24101929822520062
:104FE0009A586A40019DAA1A9A256D005D596A4037
:104FF000E26091464246F241842501924A466D00A4
:105000005D595540019A551B862252009A585540C9
:105010006246CA4101928822256052009A58A846E9
:105020006A401500019A521B94468A2252009D58EC
:1050300062466A4062600192039A8C25C2416D000B
:1050400003925D59019A5540039A551BAC468E2533
:105050006D005D592A0065465540A560AC464D4639
:10506000F541F022039565469A586A40039DAA1AB5
:10507000F4255D596A404546CD410395F825E26027
:105080005D5991465540039A551BFC229A586A4037
:10509000019D2260C541039580256D005D590192F7
:1050A0005540039A551B822252009A58554065601C
:1050B000A8466546F541D822039545469A586A4068
:1050C000039DAD1AAC46DC255D592A006546554066
:1050D000A560AC464D46CD41E022039565469A5801
:1050E0006A40039DAA1AE4255D595540019AE5607E
:1050F000C2410192E8229A5803956A40019DAA1A7A
:10510000EC255D596A40914622604246F241C02535
:1051100001924A465D595540019A551BC4229A583E
:1051200055406246CA4165600192C8229A58A84615
:105130006A401500019A521B9446CC229D58624643
:105140006A40A2600192039AD025C2415D59039240
:10515000019A5540039A551BAC46D4255D592A0047
:1051600065465540E560AC464D46F541A82203959D
:1051700065469A586A40039DAA1AAC255D596A4053
:105180004546CD410395B02522605D599146554075
:10519000039A551BB4229A586A40019D6260C5412A
:1051A0000395B8255D5901925540039A551BBC22C1
:1051B0009A585540A846A5606546F541902203954A
:1051C00045469A586A40039DAD1AAC4694255D59F0
:1051D0002A0065465540E560AC464D46CD419822D3
:1051E000039565469A586A40039DAA1A9C255D5905
:1051F0005540019A2560C2410192A0229A58039518
:105200006A40019DAA1AA4255D596A4062609146D0
:105210004246F24101924A469D6F5540019A551B04
:10522000DA6F55406246CA4101928022A5609A58C1
:10523000A8466A401500019A521B944684229D5844
:1052400062466A40E2600192039A8825C2415D5934
:105250000392019A5540039A551BAC468C255D5923
:105260002A0065465540AC4625604D46F5410395FC
:1052700065461A6E6A40039DAA1A5D6E6A404546ED
:10528000CD41626003959D6E91465540039A551B32
:10529000DA6E6A40019DA260C54103951D6F0192BF
:1052A0005540039A551B5A6F5540E560A846654620
:1052B000F541039545469A6C6A40039DAD1AAC468C
:1052C000DD6C2A00654655402560AC464D46CD4113
:1052D000039565461A6D6A40039DAA1A5D6D554097
:1052E000019A6560C24101929A6D03956A40019DE1
:1052F000AA1ADD6D6A40A26091464246F2410192CF
:105300004A461D6B5540019A551B5A6B55406246E3
:10531000CA41E56001929A6BA8466A401500019A5D
:10532000521BDD6B6A4022600192039A1D6CC241E0
:105330000392019A5540039A551BAC465D6C2A00B6
:10534000654655406560AC464D46F541039565465A
:105350009A696A40039DAA1ADD696A404546CD41B3
:10536000A26003951D6A91465540039A551B5A6ADF
:105370006A40019DE260C54103959D6A01925540D6
:10538000039A551BDA6A55406246F24116002560C1
:105390001A686A40B61A5A6856404A46CA41666058
:1053A00099687140521AD9684A400199A260C14176
:1053B00018695B6942408A1A5340E360009B049578
:1053C000002B53D019000422029811F0D3FD059B45
:1053D0006B4004935B46002B45D004AC04222100B3
:1053E000584611F0C7FD5B461D1D7B6A5E68009B39
:1053F0000422191D029B9846180011F0BBFD059B65
:105400000422734021002800049311F0B3FD009999
:105410007B6A0422083140469D6811F0ABFD059B74
:1054200021006B405D462A000832100004220493DC
:1054300011F0A0FD00997B6A0C35042240460C3126
:105440002E00DD6811F096FD059B6B4004222100C3
:105450003000049311F08EFD07B0F0BCBB46B2469D
:10546000A946A046F0BD042504ACC0E75B46002B6E
:1054700023D004AC04222100584611F07BFD5B468A
:10548000181D7B6A5E685D4604222100049611F0B7
:1054900071FD28007B6A04229B6821000830049378
:1054A00011F068FD7B6A0C352E00DB68CEE7002327
:1054B00005AA9A460292FFF7D9F9042004ACE2E764
:1054C00008B4024B9C46043808BC604739480010B9
:1054D000F0B5DE46454657464E46E0B589B08346B0
:1054E0000D1E446A0392029301D100F0F4FD07AB54
:1054F000180004229A4611F03DFD079B0193019F7D
:10550000291D04222760504611F034FD2900079B15
:1055100004226360083150461E0011F02BFD290063
:10552000079A0C311700A2605046042211F022FDA8
:105530005B4607995B69E16058691A69414003203D
:105540007A405218C241E26099680492DA68714068
:105550007A408A180521CA41A2600092019F1A6808
:105560005D687A4037006F40BC4694446746172216
:10557000D74167609D6A049E05977540AC46DD6A19
:105580002F00019D7D406544C5412560AC46009FCC
:105590001D6A7D405F6AA9463D0037006F40B944EF
:1055A0004D46CD41E560A946059E9D69009F754029
:1055B0000195DD696F40019DED19D5416746009564
:1055C000A5601D6C7D405F6C01973700019E7740A0
:1055D000ED19C5414E466560019565469F6B774064
:1055E000DE6B7540AC46BC446746CF412760BC4685
:1055F000009D1F6B5E6B6F404D467540EF19D741A4
:10560000E7609D6D0497019FDE6D6F40009D7540C2
:105610007F193D00C5416646A5601F6DA9467740CC
:10562000019D5E6D75407F19CF4167609D6C00974D
:10563000049FDE6C7D40019565467540AC46019D3A
:10564000AC446546D54125601E6F019535004E4638
:105650007540AC465E6F7740BC446746C741E76023
:10566000BC469F6EDE6E3D00009F7D402F004D4684
:105670007540EE19CE41A6601D6E019FB1467D407A
:105680005E6E009F7740ED19D541882665600095D4
:105690009D59664675408C26019F9E597740ED19AD
:1056A000C541802625609F594E4677408426019546
:1056B00065469E597540AC46BC446746CF41E7609D
:1056C000BC469F6FDE6F3D00009F7D402F004D4622
:1056D0007540ED19D541A5600495A025A4265D5916
:1056E000019F9E597D40009F7740ED19C541982646
:1056F0006560A9469D59664675409C269E59019F46
:105700007740ED19CD41902625609F590095049D65
:1057100004366F40019767469E597740BC46019F0B
:10572000B826BC446746D741E7609E5901973700C9
:105730004E467740BC26BC469E59009F7540AC44FF
:105740006546C541A560AC46B0255D594E467D40D5
:105750002F00B4255D596E40F519CD416560A9460D
:10576000A825AC265D59019F9E597D40009F77403A
:10577000ED19D54125600095D02566465D59019FFC
:105780007540D4269E597740ED19C541C826E5607D
:105790009F594E467740CC26019565469E597540E7
:1057A000AC46BC446746CF41C026A760BC469F5963
:1057B00004363D00009F9E597D402F004D467540A8
:1057C000ED19D54165600495E825EC265D59019FEA
:1057D0009E597D40009F7740ED19C541E026256028
:1057E000A9469D5966467540E426019F9E5977401B
:1057F000ED19CD41D826E5609F590095049D0436EA
:105800006F40019767469E597740BC46019F8026AE
:10581000BC446746D7417600A7609E590197370080
:105820004E4677408226BC4676009E59009F7540C2
:10583000AC446546C5416560AC46F8255D594E46A9
:105840007D402F00FC255D596E40F519CD41A946DC
:105850002560F025F426019F5D599E597D40009FEB
:105860007740ED19D5410095E5608C2566466D00C1
:105870005D59019F75408E2676009E597740ED193F
:10588000C5418826A56076009F594E4677408A26F6
:105890000195654676009E597540AC46BC44674606
:1058A0008426CF4176006760BC469F5904363D0090
:1058B000009F9E597D402F004D467540ED19D54102
:1058C0002560049598259A266D005D59019F760004
:1058D0009E597D40009F7740ED19C5419426E560B3
:1058E0007600A9469D5966467540962676009E59D3
:1058F000019F7740ED19CD419026A56076009F5914
:105900000095049D04366F40019767469E59774085
:10591000BC46019FA426BC446746D7417600676019
:105920009E59019737004E467740A626BC46760022
:105930009E59009F7540AC446546C5412560AC4604
:10594000A0256D005D594E467D402F00A2256D00BB
:105950005D596E40F519CD41E560A9469C259E260E
:105960006D005D59019F76009E597D40009F7740F4
:10597000ED19D541A5600095B02566466D005D59CD
:10598000019F7540B22676009E597740ED19C541BA
:10599000AC26656076009F594E467740AE2601954D
:1059A000654676009E597540AC46BC446746A826BD
:1059B000CF4176002760BC469F5904363D00009FCA
:1059C0009E597D402F004D467540ED19D541E5604B
:1059D0000495BC25BE266D005D59019F76009E5939
:1059E0007D40009F7740ED19C541B826A56076003F
:1059F000A9469D5966467540BA2676009E59019F74
:105A00007740ED19CD41B426656076009F59009529
:105A1000049D04366F40019767469E597740BC4607
:105A2000019FC826BC446746D741760027609E592F
:105A3000019737004E467740CA26BC4676009E59ED
:105A4000009F7540AC446546C541E560AC46C42541
:105A50006D005D594E467D402F00C6256D005D5995
:105A60006E40F519CD41A560A946C025C2266D003E
:105A70005D59019F76009E597D40009F7740ED194A
:105A8000D54165600095D42566466D005D59019F3E
:105A90007540D62676009E597740ED19C541D0262F
:105AA000256076009F594E467740D226019565467F
:105AB00076009E597540AC46BC446746CC26CF4123
:105AC0007600E760BC469F5904363D00009F9E5912
:105AD0007D402F004D467540ED19D541A5600495D8
