:020000041000EA
:1000000000B5324B212058609868022188439860DF
:10001000D860186158612E4B002199600221596106
:100020000121F02299502B49196001219960352056
:1000300000F044F80222904214D00621196600F024
:1000400034F8196E01211966002018661A6600F04E
:100050002CF8196E196E196E052000F02FF8012189
:100060000842F9D1002199601B49196000215960AB
:100070001A491B48016001219960EB211966A021F2
:10008000196600F012F800219960164914480160C1
:100090000121996001BC002800D000471248134993
:1000A000086003C880F30888084703B5996A0420EC
:1000B0000142FBD001200142F8D103BD02B5186610
:1000C0001866FFF7F2FF186E186E02BD00000240BE
:1000D000000000180000070000035F00212200005C
:1000E000F4000018222000A00001001008ED00E03C
:1000F00000000000000000000000000074B24E7A12
:1001000000200420F7010010CB010010CD010010E9
:10011000C9010010C9010010C9010010C901001077
:10012000C9010010C9010010C9010010CF01001061
:10013000C9010010C9010010D1010010D301001045
:10014000C1010010C1010010C1010010C101001067
:10015000C1010010C1010010C1010010C101001057
:10016000C1010010C1010010C1010010C101001047
:10017000C1010010C1010010C1010010C101001037
:10018000C1010010C1010010C1010010C101001027
:10019000C1010010C1010010C1010010C101001017
:1001A000C1010010C1010010C1010010C101001007
:1001B000C1010010C1010010C1010010C1010010F7
:1001C000EFF30580103800BE00BE00BE00BE00BECA
:1001D00000BE00BEF2EB8871604D0010884D00102B
:1001E0003802001090A31AE71E481F49086006C88D
:1001F00081F3088810471D480068002801D019487D
:10020000F3E70DA40ECC002902D000F012F8F9E7B4
:100210001749184A002000E001C19142FCD116495B
:100220008847164988471649884700BEFDE701C937
:1002300001C29A42FBD37047884D0010C0000020D5
:1002400040020020084F001000000420000004209D
:10025000084F0010001004200010042000000000CF
:10026000704700000000000008ED00E0000000D032
:10027000400200203C06002025420010D50200105C
:100280001D420010F8B5C04606480749091A8B10F0
:10029000C90FC91810B5491003D0044B002B00D06A
:1002A000984710BD400200204002002000000000DE
:1002B000054B10B5002B03D00449054800E000BFF2
:1002C000FFF7E2FF10BDC04600000000000600205E
:1002D00000490010F0B5CE46474680B5BDB004F0E9
:1002E000CBF8192000F08AFBD026802336069B0429
:1002F000002104AC102273626846984602F0C0FBED
:100300002200184B23CB23C21B880CAD1380002383
:1003100069462800E38100F04DFB1022210008A867
:1003200002F0B4FB280008A900F048FB0E4B0F4F69
:10033000994643464846736104F0EEF808AC2178CC
:100340003800013404F06AF9AC42F8D10A2004F014
:1003500099F8FA2001F02EF84346FA20B36101F033
:1003600029F8E6E7E44900100049001010490010A0
:10037000F0B5D6464F464646C31CC0B55B1A062BA1
:100380004AD903000B439B0746D10B6803604B68B7
:1003900043608B688360CB68C36003262F4F0421C2
:1003A000B846B246C27B857B447B037B2C4E5746C6
:1003B0000F421BD1755DF35CA946B55C42461F0038
:1003C0008B08D35C325D447853400278013153404E
:1003D0004A465440827803745540C27844747A4047
:1003E00057468574C27404300F42E3D00778013158
:1003F0007B40477803747C40877844747D40C7789D
:1004000085747A40C2742C2901D00430CFE7E0BC57
:10041000BA46B146A846F0BD0B7803704B784370DE
:100420008B788370CB78C3700B7903714B794371F0
:100430008B798371CB79C3710B7A03724B7A4372D8
:100440008B7A8372CB7AC3720B7B03734B7B4373C0
:100450008B7B8373CB7BC3739FE7C046F44900104B
:10046000004A0010F0B5DE4657464E464546E0B518
:10047000C31C95B0040013915B1A062B00D807E249
:100480000B0003439B0700D002E20A680368534055
:1004900003604A684368534043608A6883685340F6
:1004A0008360CA68C3685340C360102223780893EE
:1004B00023790B93237A257B9B4663780993637991
:1004C000667B9846637A9946A3780693A379A17AC6
:1004D0009A46E378A77B0793E3790A93E37BE07A74
:1004E0000593139B9B189C46139B4A46A03312937B
:1004F000E64B814601936346BC46029357460B0088
:10050000DA463100AB463FE14F4643464F403D009F
:1005100073405D4007951B25D809404228405B0089
:1005200043404046079D484075405D400D9503009F
:1005300025701B25C009404228405B0043404046CF
:10054000079D68401B255840804660704846FB095F
:100550005B422B407F005F40079B46405940F309B8
:100560005B422B40760073401E004F4007990E9768
:1005700041404E4050460796E670664603997040EB
:10058000514003000800A770CF097F422F40490067
:100590007940039F584006004740504650407940FC
:1005A000C7097F422F400F9121714100724079406D
:1005B0005140DA0952422A405B00534050461091A4
:1005C00061711900704041406046039A46404240C4
:1005D000D3095B422B405200534018002F000C9D62
:1005E00070402A000A9E059B82467340E071180005
:1005F0001191A17109994A40D109494250403940AD
:1006000052004A40290041404A400600039209989E
:100610002272059A4240D1094942394052004A406B
:10062000010071405140DA0952423A405B005340A8
:10063000059A6172724053402A0005930A9DA37285
:100640006A40D3095B423B405200534018006E4061
:10065000089A7040049E069B56400B9AE0725340E5
:1006600081461B251800F7097F4270402F40760015
:100670007E40049F0200474030001B2578402073D5
:100680008346069E08984640F7097F422F400500A2
:10069000760055407E406E401B25DF097F422F408B
:1006A0005B007B401800069F667357407840A0733C
:1006B0008446049F0B984740FB095B422B407F0018
:1006C0007B401D0042405540029AE5731378049523
:1006D0000D9D0E9F6B40D8B22070089040461500CB
:1006E00053784340D8B26070937809907B40D8B279
:1006F000A070D378079A06905340D8B20790E07064
:100700002B790F9A5340D8B220716B79109A0B90C5
:100710005340D8B2607180465046AF79119A574025
:10072000FFB2A771EB79039A4340D8B2E0710A9007
:1007300048462B7A5340DAB2227292466A7A4A408D
:10074000D2B26272AB7A05994B40DBB2A372E97AFE
:1007500041405846C9B2E1728946297B4140604612
:10076000C9B221738B46697B7140C9B26173AE7B9C
:100770004640F0B2A073EE7B049D84466E40F0B21A
:100780000590029D103502950898019D2E5C0B98EE
:1007900026702D5C504603952571019D2D5C5846B1
:1007A0000C952572019D2D5C099804952573019D7A
:1007B0002D5C40460895019D285C695C8046069842
:1007C000AA5C2D5C604609910199CF5DC95C019BD3
:1007D000185C824607980697185CA77384460A98A7
:1007E000A5721B5C48460A93019B62711B5C0598CD
:1007F0000B93019B0B9F185C099B814640466070E0
:100800005046A0714846E070604663720595089BAB
:10081000E773E0710A9F1298029D6373A170E772FB
:10082000A84200D070E6002007000196129E251D08
:10083000AE4247413D00139F93463E00A436B4426A
:1008400040410A00434649460543E14662D01298BA
:10085000204380075ED1A0222368BA585340A422C7
:100860002360BA5863685340A8226360BA58A368EB
:100870005340AC22A360BA58E3685340E36015B01C
:10088000F0BCBB46B246A946A046F0BD004A0010E7
:10089000139922780B78534023704B786278534039
:1008A00063708B78A2785340A370CB78E278534082
:1008B000E3700B792279534023714B79627953406D
:1008C00063718B79A2795340A371CB79E27953405C
:1008D000E3710B7A227A534023724B7A627A534047
:1008E00063728B7AA27A5340A372CA7AE37A534036
:1008F000E3720B7B227B534023734B7B627B534021
:1009000063738B7BA27B5340A373CB7BE27B53400F
:10091000E373CAE5A020139D019E285C4640A120F8
:100920002670285C43406370A223EB5C5A40A323EB
:10093000A270EB5C5940A423E170EB5C0399594031
:10094000A52321715946EB5C5940A623617151469C
:10095000EB5C5940A723A1714946EB5C5940A823A1
:10096000E171EB5C0C995940A9232172EB5C099968
:100970005940AA236172EB5C05995940AB23A172DF
:10098000EB5C0A995940AC23E172EB5C04990B9A39
:100990005940AD232173EB5C08995940AE23617334
:1009A000EB5C06995940AF23A173EB5C5A40E273AC
:1009B00065E7C04610B5FFF7DBFC10BD0B0010B5B6
:1009C00001001800FFF74EFD10BDC04610B54024D1
:1009D000074A83009A181268C0005440C02222407F
:1009E000044C1B191A60044BC018416010BDC0466E
:1009F00004C0014004D00140004001400123D02246
:100A00008340120693629361084A83009A18116822
:100A10004022514080320A400549C0005B181A60EC
:100A2000044BC018052343607047C04604C0014012
:100A300004D00140004001400FB400B5084883B025
:100A400003F06AFD049B002B07D005A91800019153
:100A500003F0CAFB034803F05FFD012003F0DCFB59
:100A6000184900102849001070B58C461600EFF3A5
:100A7000108472B60F490B68002BFCD0BFF35F8F58
:100A80006346DB08C5180722C05C63461A40012391
:100A900093401A000240034207D118432870BFF365
:100AA0005F8F0A6084F3108870BD61463000FFF7E5
:100AB000C3FFC0462C0100D0044A1078431CDBB2AF
:100AC000172B00D9102313707047C04698010020DF
:100AD0000021044B044ABFF35F8F02C39342FAD153
:100AE0007047C046000100D0800100D0084B094A81
:100AF0001360094A1360094A1360094A1360094ADE
:100B00001360094A1360094A1360094A1360704769
:100B10008080808000E400E004E400E008E400E07D
:100B20000CE400E010E400E014E400E018E400E06D
:100B30001CE400E01F2318401E3B8340002905D021
:100B4000C021044A49005350136070478022014974
:100B50008B50FAE700E100E070B50D00EFF310866E
:100B600072B60F4A1368002BFCD0BFF35F8F0D4B9A
:100B700010309B6884001B590B4A934203D09D425E
:100B800001D000F099FF074B9B681D51BFF35F8FA9
:100B9000BFF35F8F0022024B1A6086F3108870BD8E
:100BA000240100D000ED00E0C1010010F0B5454681
:100BB000DE4657464E46E0B50D0083B0EFF3108891
:100BC00072B6604A1368002BFCD0BFF35F8F5E4B98
:100BD0005E499A68030010339F00D45999468C42AD
:100BE0003ED0AC424FD05A4EA21B2F2A38D8594B78
:100BF0001A689C4613000122824013401F220240C3
:100C000001209A4690406346802283469850BFF365
:100C10005F8FEFF305830193002B36D0994501D008
:100C200000F04AFF012322009A439068854208D1D0
:100C300076E04B005B189B00F3189868854236D02D
:100C40001A00062151560029F3DA854254D0534642
:100C5000002B27D0C02259463E4B520099501960B4
:100C6000394B9B68DC51BFF35F8FBFF35F8F00226E
:100C7000344B1A6088F3108803B0F0BCBB46B24610
:100C8000A946A046F0BD0C00EAE7220001339A43D2
:100C900090688542D5D106201056130000280ADA44
:100CA0000C0031E0802359462A4AD150D8E706206B
:100CB0001856002821DB4200111889007518894652
:100CC000A9689960E979D971062169569971002955
:100CD00024DBAD88F11A6D052D154D444919090520
:100CE0001D4D490D2943998013181C4A9B0011780A
:100CF000F31899711070AAE713000199002914D113
:100D0000FF3191711649918014490A789A71154AF8
:100D10009B1B5B415A43120D0A7098E71049E2E7AA
:100D20000620105613000028C5DA0F4A0F49D21AC0
:100D3000083A5002400D014399800D4952080A4378
:100D4000DA8084E7240100D000ED00E0C10100104A
:100D50009C01002000E100E000E0FFFF38060020D9
:100D600001BDFFFFAAAA0000D601002000F0FFFF8E
:100D700000F8FFFF0123034370B59C46EFF30581A4
:100D8000EFF3108572B6214A1368002BFCD0BFF335
:100D90005F8F1F4B04001F4AE41A64416243120D27
:100DA0001D4C8900A66852B2765866451CD00621B3
:100DB000595691421CD012215956914222D01E21DF
:100DC0005956914220D02A2159560324914210D0DD
:100DD000124B19781A708171BFF35F8F00220B4B91
:100DE0001A6085F3108870BDA3680D4C5C50EFE766
:100DF00000246100091989005B18FF2199710949D4
:100E00009980E5E70124F4E70224F2E7240100D009
:100E10009C010020AAAA000000ED00E03806002096
:100E2000C101001001BDFFFF024BC918890001601C
:100E30007047C0464000003470B5114C114DAC42B3
:100E40000FD2FF262368002B0CD0FFF735FE0100E0
:100E50002000FFF7E9FFA680BFF35F8F0834AC42A4
:100E6000F0D370BDFFF728FE01002000FFF7DCFF84
:100E70002671BFF35F8F0834AC42E3D3F1E7C0467D
:100E800038020020400200200A4B1968EFF310805E
:100E900072B60A68002AFCD0BFF35F8F1B68BFF3ED
:100EA0005F8F00221A6080F3108840BF002000216D
:100EB0007047C0462C060020F0B5DE4657464E4629
:100EC0004546E0B585B0EFF3058303221A40B34BE6
:100ED00091005F58012393409B4602925A468846F0
:100EE000AF4B1A60AF4B03935B46AF484363082395
:100EF000FE5E002E37DABB881BB2002B00DBA4E0BD
:100F0000BB79002B00D0E5E00823F95E002920DB47
:100F10004B007A695B18DB00D3189D68DC686B1C9A
:100F200000D104E1A04801004144826A0B69AE1A75
:100F30009B1A9E4215D30123026A029883401A42EB
:100F40000FD0994800F03EFB8C4202DCCCD18542A8
:100F5000CAD940BF05B0F0BCBB46B246A946A046C0
:100F6000F0BD0D61EDE77A69730091469B19DB00D6
:100F700099444B469C68DD6800F024FB8D42BADC46
:100F800000D1F6E0002D00DADBE04A464B4652691C
:100F90001B699246039A934200D1CCE04A4608214D
:100FA000785E5288000451461043984700900191A2
:100FB0000099019A0B00134300D1C2E013000A000C
:100FC000002B00DBD9E020002900801A99414B4614
:100FD0009860D96000229B5E002B00DA8BE75D00F1
:100FE0007C69EA18D200A21800949468D268A246DC
:100FF0008A4200DD7FE702D1844200D97BE70824E2
:10100000A4463B81BC44009C00972F006546B44633
:101010003E0006E05E00F218D200A2189768D2687F
:10102000BA468A4207DC00D1B4E0F318DB00E518C9
:10103000E35E002BEEDA66464A46009F13802E8060
:10104000BB881BB2002B00DA5AE73A69EFF3108134
:1010500072B61368002BFCD0BFF35F8F0123BE88EC
:101060005B42BB8036B23B69BFF35F8F00221A60E0
:1010700081F31088002E00DA42E73B0008333A0083
:1010800099467D6973009B190824115FDB0048466F
:10109000EB18002913DB9C680093A446DC6806E08B
:1010A000A34240D00023F95E3800002906DB4F0040
:1010B0007F18FF00EF19FB68A342F1DD009B06805B
:1010C00000201E5E1980002EDCDA1700BB79002B91
:1010D00000D119E70023BB710823F95E4B1C00D136
:1010E00037E73D000835AC467C6903E084464B1C7D
:1010F00000D109E74B005B18DB00E0180A00E15E55
:1011000043881BB2002BF1DA01256D42EE17856092
:10111000C66008257B5F9342E9D0634619803B890E
:1011200003803A81E3E7BB686345BBD9C6E7631C2C
:1011300000D0F7E605E7534650461B69984700285C
:1011400023D14B461B883A693B81EFF3108372B67B
:1011500011680029FCD0BFF35F8F49467A880A8066
:101160003A697E80BFF35F8F0021116083F310889E
:10117000C1E6844200D805E7BDE60B4800F022FA3C
:10118000009B019CC018614121E753460CCB0092A3
:1011900001930DE7824500D847E74CE71806002089
:1011A0003C700540B90E00100040054070B52D4C54
:1011B0002569002D04D00A212B48FFF735FE70BDAC
:1011C0002A4E0321294800F0F3F9E660FFF774FC8A
:1011D000274B0322C018D02322701B061B68012155
:1011E0006370244B8000A3600F2320610220638082
:1011F00063694942A18019800231198647311D83F4
:10120000585218315A5275325C399952183201319C
:1012100099521832013199521832013199520835D8
:1012200018329D52023118329952183201319952B6
:101230001832013199521832013199521832013164
:1012400099521832013199520B4B0C49DC60013034
:101250003562FFF781FC01210320FFF76BFC084B8F
:101260001D60A8E7E40100202C0600200040054096
:1012700040000034FFFF100018060020B90E0010D7
:101280003860054070B582B0009201930100026998
:10129000EFF3108472B61368002BFCD0BFF35F8F9E
:1012A0000223C85E0D6900283FDB4A69430016002F
:1012B0001B18DB00D218F35A4B80BFF35F8F00235B
:1012C0002B6084F31088069B1361079B5361009B7E
:1012D000019C9360D460538801335B045B0C1D1C3C
:1012E000002B20D0ACB20304558023430D69EFF3EB
:1012F000108C72B62C68002CFCD0BFF35F8F8C88EA
:10130000148088800A69BFF35F8F002010608CF31F
:1013100010880A7801309040CA6808495218106055
:10132000180002B070BD0125DCE7BFF35F8F00231A
:101330002B6084F31088013BF2E7C0463C2000009C
:1013400010B543890A1493421ADD53009B18426971
:10135000DB00D3180469EFF3108C72B62268002A00
:10136000FCD0BFF35F8F5A88090494B2090C8A42FB
:1013700008D00369BFF35F8F00221A608CF31088D6
:10138000002010BD094A22435A800123026983715B
:10139000BFF35F8F002111608CF31088027804493D
:1013A0009340C268012052181360EAE70080FFFFF3
:1013B0003C200000F0B5C64600B582B0040000F045
:1013C00009F9FA2206000F002000002300219200F4
:1013D00001F0EAFA8019794104000D1E02DA0124B5
:1013E0002E4D644206267642F71736196F41AF42FA
:1013F00014D811D000F0EEF832003B00121A8B41E5
:10140000002B15DC002B46D02000290000F022F92B
:1014100002B080BCB846F0BDA642EBD9002600273A
:1014200000F0D8F832003B00121A8B41002BE9DDA6
:1014300000F0D0F832003B00121A8B41002B0ADB7F
:1014400000230193164B3200009316483B00FFF730
:1014500019FF0130D8D000233900B0469C46124A0B
:101460001248536A994204D8966A4645CCD29942AA
:10147000CAD10668EFF3108772B63368002BFCD030
:10148000BFF35F8F0368BFF35F8F66461E6087F30D
:10149000108820BFE5E7002AB6D0C9E7FFFFFF7F2D
:1014A000890E0010E4010020004005402C060020B9
:1014B000F0B5CE46474680B504000D0085B0EFF389
:1014C00005868946002E10D0364900204B6AAB4273
:1014D00006D38A6A5B1B591E8B41A24240411843C6
:1014E00005B0C0BCB946B046F0BD2F4FFB683A7896
:1014F00098461800039200F065F8039A131D4246BF
:101500009B009B5822001B1A9C462B00121A8B41F1
:101510009E4210DC0DD020BF224A0020536A4B456A
:10152000DED3926A5B1B591E8B41A2424041184395
:10153000D6E79445EFD900F04DF822002B00121A9F
:101540008B41002B1BDB00230193184B22000093DF
:1015500038002B00FFF796FE002810DD114B5A6A69
:101560004A451CD39B6AA34217D301003800FFF7FA
:10157000E7FE0C4A0020536A4B45B1D3D1E7094A34
:101580000020536A4B45ABD30020926A5B1BA242FA
:1015900040415A1E93411843A2E74A45E5D120BF76
:1015A000E3E7C04600400540E4010020890E00103A
:1015B00010B5024A0248FFF757FA10BD2C49001037
:1015C000C80500200300416A0A00986A596A8A42E5
:1015D000FAD17047034B596A0A00986A596A9142D6
:1015E000FAD170470040054070B505000E00184A5A
:1015F000536A1900946A536A8B42FAD12000190089
:101600002C00350024184D41AB4216D813D0104B96
:101610002A005B6A9D4203D90D494B6A9342FCD371
:10162000934207D10A4A02E0516A994202D1916A73
:10163000A142F9D370BDA042E9D9054B5B6A1C00F9
:101640005A1CEFD0012201246442E5175242E3E71D
:1016500000400540064A536A9942FCD807D1044B22
:1016600002E05A6A914202D19A6A9042F9D87047D0
:1016700000400540F8B5040006200D0000F06EF9AA
:10168000002843D0364B3749E3185A1E9341802235
:101690005B429B0D12049B059B18334A1360334A2F
:1016A000136018000A689043FBD12D4B304AE318B1
:1016B00059424B4180215B0049000620995200F0BD
:1016C0004DF92900C00000F04BFB0130C3091ED1C9
:1016D000402701226262A362266BF30722D4E36AE9
:1016E000244B0620E51800232B60266300F036F912
:1016F0003900800000F034FB7023E26A5A400E3358
:1017000013402B601C4B23630323A364F8BD1B4AC7
:1017100093421DD900231A4A1A4F6262A362266BB4
:10172000F307DCD5184B144AE3181A60656AA36AFC
:101730000620AD01ED1800F011F9144900F010FB7E
:101740000100A80200F00CFB0021FFF74DFFC6E7E7
:1017500040069A01800E17181A000300BAE7C04627
:101760000080FCBF08C0004000E0004000F00040E6
:10177000300600202C10000001030000FEFF0000D6
:10178000FFFF0000C0FF3F00303000004E0E0000A1
:10179000F8B5DE464E4645465746E0B505008B4651
:1017A00018000A99914600F0DBFA0A9B6C001E02B1
:1017B0006419304BA400E418636880469E4200D947
:1017C00066602F1FFBB29A46012B2FD9C0238022BF
:1017D000294FAD009B0179591201E3181A600029C5
:1017E0001BD14B4622685B015340E022134080220C
:1017F0005201A21813605346012B2FD98023802257
:101800009B01E31812011A60434666607B51F0BCED
:10181000BB46B246A946A046F8BD786900F0A0FADA
:10182000013043001B18033BFDD2DAE75B46012B76
:10183000CCD1C02303229B01E3181A60023AA368AB
:101840001A42FCD04A46236852015A40E023134012
:1018500080225201A218084F1360AD00584603239E
:10186000216841400B40136001228240A3681A4264
:10187000FCD0C3E700800040CC050020F0B5D64680
:101880004F464646440098462418324BA400E418BC
:1018900063688A469146C0B5FF2B02D880235B005F
:1018A0006360061FF6B2012E2FD9C02380222A4F73
:1018B00085009B0179591201E3181A6000291BD198
:1018C0004B4622685B015340E022134080225201C4
:1018D000A2181360012E30D9802380229B01E318C7
:1018E00012011A6080235B00636043467B51E0BCB9
:1018F000BA46B146A846F0BD786900F031FA013029
:1019000043001B18033BFDD2DAE75346012BCCD131
:10191000C02303229B01E3181A60023AA3681A420B
:10192000FCD04A46236852015A40E02313408022EB
:101930005201A218084F1360850050460323216806
:1019400041400B40136001228240A3681A42FCD040
:10195000C2E7C04600800040CC050020014B80005B
:10196000C0587047CC050020F0B5C646040000B54D
:101970002348160098460D0000F0F2F901003000EF
:1019800000F0EEF94346069A1B04120313439C46EB
:1019900023680600002B22DB1A4B1B48E218531E5B
:1019A0009A4180235242120B9B011203D218174B0B
:1019B0001A60174B1A60130001688B43FBD1212278
:1019C000144B2560E318A6601A602268002AFCDA2E
:1019D0006246E26008221A6080BCB846F0BD3F2330
:1019E00022681340AB42D7D1A3681B051B0D83426D
:1019F000D2D1EE22E368D20213406345CCD1EBE7AB
:101A0000001BB7000040FDBF08C0004000E00040E0
:101A100000F00040043000008023024A9B000B438A
:101A2000D362704700800540002310B50100988AFA
:101A30001B8B984710BDC046162310B501001888AF
:101A40005B88984710BDC046F8B54746CE4680B57E
:101A50000F1E18D0142399460433040000250126D4
:101A600098464B461888434621681B88984701C40E
:101A7000431E984101350640AF42F2D13000C0BC50
:101A8000B946B046F8BD0126F8E7C046AA23064A83
:101A90001B0113608D235B00D3600449044B196064
:101AA0005368002BFCDA70470040024000B0FA0097
:101AB000006002407047C04610B50148FEF7BCFF09
:101AC0005049001070B5074D074EB54209D20024A9
:101AD000013E761BB608013608CD01349847B44262
:101AE000FAD170BDC0480010FC480010054B064AF2
:101AF00006491A60064A074B1A6010000B689843A3
:101B0000FBD1704700E00040BFCDFBFE08C00040A5
:101B1000FE7F3C0000F00040044BDB6C002B03D147
:101B20008022034BD2021A607047C0460000115059
:101B30004C201150044A054B1A60054A1368DB011A
:101B40008033FBD17047C046FFFFFF0100F000402B
:101B500008C000404022034B9A675A671A67DA664A
:101B60007047C04600F0014010B5FEF7B1FF10BD50
:101B700070B52849284D294E6D1AAC102200302C22
:101B800000D930223000920000F080FFBC2D3DD8FB
:101B900023002A3B224A052B1DD9302075196D07D9
:101BA000A446001BEB0F002D03DA611C8C46A1003C
:101BB0007250C01AE3189B004108F318C900C918F5
:101BC0001A605A6008339942FAD1012303421DD0AA
:101BD000984360440400A300F250631C2F2C15D0DE
:101BE0009B00F250A31C2E2C10D09B00F250E31C43
:101BF0002D2C0BD09B00F250231D2C2C06D09B00CB
:101C0000F250631D2B2C01D09B00F250054B9E60BF
:101C100070BDC04600010010C0010010000000208F
:101C2000C101001000ED00E0002310B5294C82B086
:101C3000A367FFF72BFF0122274B1A60636C012B70
:101C4000FCD10322254B1A60224A936B012BFCD155
:101C5000013300930121224A22480433FFF784FE16
:101C6000052301210093204A2048FFF77DFE002232
:101C7000022104201E4BFFF701FE00220121052056
:101C80001C4BFFF7FBFD0022002107201A4BFFF73A
:101C9000F5FD002200210820174BFFF7EFFD802300
:101CA000DB000093002200210920134BFFF770FD99
:101CB0000022104B00210620FFF7E0FD0420FFF773
:101CC0004DFE0E4900F04CF801000020FFF7A4FE85
:101CD00002B010BD008000403CB0004030B0004079
:101CE000002F685900800240008C864700C00240E7
:101CF000001BB70040597307006CDC0240420F0024
:101D000001480421014B184700020020491A001025
:101D1000124A936F9B0815D29066D166002905D0B0
:101D2000FFE7FFE7FFE7516F106F704704B58021B1
:101D30000906C2175140002800D0C84302F0B0FD88
:101D4000002104BDF0B5146E556E576F166FFFF786
:101D5000E3FF1466556657671667F0BD000000D0B4
:101D6000114A936F9B0813D210665166002905D063
:101D7000FFE7FFE7FFE7516F106F704704B50028DA
:101D800001D00020C04302F08BFD002104BDC046FD
:101D9000F0B5146E556E576F166FFFF7E5FF1466BA
:101DA000556657671667F0BD000000D094464A4A52
:101DB000926F9208624601D228E0C046F0B5464EC6
:101DC000346E756E776F366F00F020F89446424A95
:101DD00014665566576716676246F0BD94463E4ADC
:101DE000926F9208624601D254E0C046F0B53A4E76
:101DF000346E756E776F366F00F04CF89446364A45
:101E000014665566576716676246F0BD002B24DBE3
:101E100011D000293EDA00B5C943404200D101315A
:101E200000F038F8C943404200D10131DB4352424F
:101E300000D1013300BD002AEBD1002801D10029D7
:101E400005D00020C90FC90701D1C043410800B522
:101E500002F01EFD0022002300BD00B500290ADBB0
:101E6000DB43524200D1013300F014F8C943404231
:101E700000D1013100BDC943404200D10131DB43F3
:101E8000524200D1013300F005F8DB43524200D149
:101E9000013300BD002923D1002B18D1002A0CD01A
:101EA000BC460D4F38667A6600210023FFE7FFE746
:101EB000FFE77A6F386F67467047002801D0074800
:101EC000010000B502F0E4FC0022002300BD020086
:101ED0000B00002000217047000000D0FFFFFFFF33
:101EE000002B00D0BFE0130C28D1002AE7D080B42B
:101EF000114F39667A66FFE7FFE730B4040C7B6F59
:101F0000396F1B0423433B667A66FFE7FFE7FFE771
:101F1000C04684B27B6F3D6F1B0423433B667A66E9
:101F2000FFE7FFE7C04600232C042D0C7A6F386FC3
:101F300000196941B0BC7047000000D0F0B594466C
:101F40000025140E01D112020835140F01D112011F
:101F50000435940F01D192000235D40F01D1520003
:101F60000135D40B0134254F7C66254C3C660E0CA4
:101F700093B2FFE7FFE7FFE73C6F6643360C77035A
:101F8000BE467343DF0B5B04C01AB941130C7343A5
:101F9000DB18C91ACE086643360CB64493B27343B5
:101FA0001F0F1B01C01AB941130C73431F0B1B05F4
:101FB000C01AB941860D8F023E436643360C092D87
:101FC00024DB520A7243801A7703460A6643360CB2
:101FD00016235B1BDE40DF40BF1964466643821B4D
:101FE0007046043506330100D940A840C01900D31B
:101FF0000131A24206D20023F0BD0000000000D053
:10200000FFFFFFFF121B0130F3D3F1E709277F1B0E
:10201000FE406446A2B27243801A00D20139220CFB
:102020007243130C1204821A99410B007046043556
:1020300013370100F940A840801900D30131002B6B
:1020400002D1A2420AD2F0BD013000D30131121BED
:10205000FAD2013BF8D1A24200D2F0BD013000D348
:102060000131121BF7E7F0B51C0C00D080E00CB476
:1020700000251C0A04D11B02160E33431202083538
:102080001C0B04D11B01160F3343120104359C0BAA
:1020900004D19B00960F334392000235DC0B02D132
:1020A00092185B4101351C00971864410134464F7A
:1020B0007C66464C3C660E0CFFE7FFE7FFE7C04638
:1020C0003C6F6643360C7703BE4697B27743C01B1E
:1020D00000D20139C01B00D201399FB27743C91B1E
:1020E000C91B170C77437E04FF0B801BB941CE0838
:1020F0006643360C0C2D33DBB644120B1F053A43F6
:102100001B0B97B27743C01B00D201399FB27743B4
:10211000C91B170C77433E043F0C801BB941860D49
:102120008F023E43664329277F1BFE400C3D7746C6
:10213000AF40BF1930BCA2B2ABB272437343801A36
:102140009941220C7243130C1204801A9941020027
:102150000B000137001BA941F9D2781E0021F0BD08
:102160000C277F1BFE4077467F0BAF40FF19E0E74F
:1021700000245D1C07D0144F7D663966FFE7FFE73A
:10218000FFE7FFE73C6F95B29EB265436643401B95
:10219000B141150C1E0C6543664336042F0C3E43BB
:1021A0002D04401BB141994204D202000B002000D3
:1021B0000021F0BD01D19042F7D3801A994101343A
:1021C0009942F2D3F6E70000000000D0FFFFFFFFC6
:1021D00048404140484018B41B4B5B68FC460193A3
:1021E00008BD04DF7B24001018B4174B1B68FC46A5
:1021F000019308BD00DF852400109446134A926FB6
:10220000920809D2624618B40F4BDB68FC46019372
:1022100008BD0CDF3D2700100C4AF0B5146E556E5A
:10222000576F166F6246FFF7EEFF084A1466556651
:1022300057671667F0BD18B4034B9B68FC460193C3
:1022400008BD08DFE1250010C0030020000000D019
:10225000FFB550404240504059404B40594000E08B
:10226000FFB5154F4C00640D03D0BC4204D10C03E4
:1022700014D80020090D09055C00640D03D0BC4290
:1022800004D11C030AD800221B0D1B0501264B405C
:1022900009D44B4003D58B4200D18242FFBD994205
:1022A000FCD19042FFBD0B43DB1803431343F5D031
:1022B000C9434918FFBD0000FF07000000B5FFF744
:1022C000CFFF804100BDC04600B5FFF7C9FF01D96F
:1022D000002000BD012000BD00B5FFF7B9FF01D906
:1022E000002000BD012000BD00B5FFF7B1FF804117
:1022F00000BD012040054A00121804D85A001218E7
:1023000001D80020704701207047000000210028FC
:1023100005D17047C1174840401AFAD0C90713B514
:10232000064B1B6898470CBC441CA2401005120BBE
:102330000349091B09051943114310BD2806002054
:102340001F04000010B54C00620D8023D218DB0082
:10235000D21A5B057E2A10DD9E3A13DACC170903E8
:10236000490819435242D140640001341532202AF1
:1023700005DAD0400843604310BD002010BD084678
:10238000604310BDC80FC018013810BD18B4044B0D
:102390005B6AFC46019308BD24DFED2800100000B5
:1023A000C0030020132370B51D78012D19D014DD52
:1023B0001F48FFF741FB06001E48FFF73DFB1E4C80
:1023C00080223100200000F061FB022D2DD01B483F
:1023D000FFF72AFB1A4B186070BD1A4B164CA3640A
:1023E000F5E7184B144C23606360A360E36023613E
:1023F0006361A361E36123626362A362E3622363B7
:102400006363A363E36323646364A364E364236596
:102410006365A365E36523666366A366E366236776
:102420006367A367E367A364D1E7064BA364CEE7C2
:102430005344000053460000C00300204C3300000A
:10244000280600204924001007B5604601880A0AC2
:102450000230DF2AFAD1C9B2820804D30288408848
:102460000004104300E00068014A5050039007BD8B
:10247000C00300200FB403BC0CBCF0B50124E4077A
:10248000634000E0F0B50C0DCF0F661E3605891BCA
:10249000640503D3C943404200D30131640D03D026
:1024A000661CF60A07D0E41B00207F00791C890710
:1024B0008912803C24031D0DDF0F6E1E36059B1B09
:1024C0006D0503D3DB43524200D301336D0D03D0BE
:1024D0006E1CF60A07D0ED1B00227F007B1C9B07B9
:1024E0009B12803D2D032F1B661B58D4A446202E23
:1024F00046DA20371400BC401D00BD40F240334195
:102500002A4380185941CB0F05D0C943C04300224C
:1025100064425041514162464D0D28D10D0D07D105
:1025200000281FD0241940414941013A0D0DF9D02E
:10253000640006D3013000D30131002C01D14008E2
:102540004000013A0BD4941CE40A04D11205114452
:10255000DB071944F0BDD907204B194300E0D90728
:102560000020F0BD0029DDD1002CDBD1F0BD01320F
:10257000C6074008CD0728434908002EE1D0D9E717
:102580003C2E29DA203E40371400BC4000D0012404
:10259000F24014431A00BB401C43D317ACE7AC46CF
:1025A000202F08DA20360400B4400D00B540F84072
:1025B00039412843A5E73C2F0CDA203F4036040080
:1025C000B44000D00124F84004430800B1400C435B
:1025D000C117EAE710001900002494E70000F07F1B
:1025E000F0B50C0D661E3605891BE60A6405640D00
:1025F00002D0651CED0A04D0002001210905803CB1
:102600002403A4461C0D671E3F05DB1BE70A640577
:10261000640D02D0651CED0A04D0002201231B05C5
:10262000803C24037740644497B484B296B27443E8
:10263000070C7E43150C6F4380B26843361802D3F3
:10264000012000043F183004350C00197D418446F8
:1026500088B29AB250430C0C62431F0C7C438EB27A
:102660007E43921902D301263604A4191604170CCE
:102670003618674101BC81B29AB25143040C6243DF
:102680001B0C5C4380B25843121802D30120000493
:1026900024181004130C401863412D185E410020CB
:1026A000474106BC88B293B258430C0C6343120CEA
:1026B000544389B251435B1802D3012109046418C1
:1026C00019041A0C091862416D185641002047413F
:1026D00018BCF902720D1143F0026A0D1043ED02AD
:1026E0000A0D03D16D1940414941013B124E9B1B1C
:1026F0007600B3420ED26D0007D30130002671413F
:102700006646354301D1400840001B05C918E4075F
:102710002144F0BD0BDA013306D1013004D101317F
:102720004F0D01D04908F2E7E1070020F0BD013666
:1027300031050020EBE70000FF030000F0B51C0DA1
:10274000671E3F05DB1BE70A6405640D02D0661CAB
:10275000F60A04D0002201231B05803C2403D02567
:102760002D060026F6432E661E096E66CE0FF6195C
:10277000B44649004F0D02D07E1CF60A03D000205B
:102780000021403F3F033E1BB600B444013F7F059C
:10279000C91B49082E6F013676089C02950D25430A
:1027A0007543ED137543AD1301356D10F603761BBC
:1027B0000CB4CC02450D2C43A2B2B3B25A43270C41
:1027C0007B43350C6F43A4B26C431B1902D3012425
:1027D00024043F191C041D0CA4187D4124196D41CB
:1027E000009A91B2ACB26143170C7C432B0C5F434F
:1027F00092B25A43A41802D301221204BF18220431
:10280000230C52187B41019C6C431B19520ED901B9
:102810000A434401A01A81B2B2B2514303145A438D
:10282000360C734387B27743D617D21900277E41FF
:1028300036049B191704160C7F185E417316ED18A9
:10284000F301002680337541A90F06D16400690A9F
:10285000E8055B0A184309D22FE004229444803330
:102860007541A90AA8059B0A184326D3404149414E
:102870002404009A019B0D005543641B4343E41A52
:1028800095B286B27543170C7E43030C5F4392B238
:102890005A43B61802D301221204BF183204330C73
:1028A00052197B4152429C41002C02D4002201303B
:1028B00051414008CA071043490802B06246D70791
:1028C0009210084BD218084B9A4203D2120589186D
:1028D000C919F0BD0020002A01DC3900F0BD013328
:1028E0001905F5E7FD030000FE070000002200B512
:1028F000203200F004F8080000BD000000220B1593
:102900000AD410B5944600F031F81414013400DAFA
:102910000021CB17144C204700200021704762444F
:10292000343A0CD40C2A07DA040091409040524209
:102930002032D440214310BDD843D94310BD2032AA
:1029400007D40C469440524220321141D0402043DB
:1029500010BD0800C917203203D452422032104162
:1029600010BD1800190010BD1F2900100A0DCC0F52
:10297000531E1B05C91A520503D3C943404200D355
:102980000131520D03D0531CDB0A07D0121B00206B
:102990006400611C89078912803A1203014BD21A24
:1029A00070470000FF03000051434343C9188C46A1
:1029B000110C83B24B4310B4040C614392B280B249
:1029C000504362431C041B0C001910BC59411304F2
:1029D000120CC0185141614470470000132310B518
:1029E0001C781348FFF728F8012C0BD004DD0100F8
:1029F0008022104800F04AF80F48FFF715F80F4BF7
:102A0000186010BD0B4C01005422200000F03EF86D
:102A10000B4B6365A365E36523666366A366E366A4
:102A200023676367A367E3672362E361E4E7C04664
:102A300053460000C00400204C330000280600204C
:102A4000452A001007B5604601880A0A0230DF2ACD
:102A5000FAD1C9B2820804D3028840880004104326
:102A600000E00068014A5050039007BDC0040020F8
:102A700001480421014B184710020020491A001098
:102A8000014B1B681847000010020020014B5B68D7
:102A900018470000100200207047C046F8B5DE4617
:102AA00057464E464546E0B599460D9B0700884679
:102AB00093469B0728D00B9B002B3CD016000B9C09
:102AC0000A9D3619321B013C4B464146285DB847EA
:102AD000002CF7D135000D9B9B070ED55B46EC1AF9
:102AE0000C9BA34209D91E002A004B4641462020D8
:102AF0000134B8470135B442F6D32800F0BCBB46D8
:102B0000B246A946A046F8BD0B9B0C9A934214D23C
:102B100013005D460C000B9A9E1A76192A004B464C
:102B2000013521002020B847B542F7D10B9BA046C4
:102B3000002BC4D1E1E71500CDE75E46002BBED1E6
:102B40005D46DAE7F0B54F46D6464646C0B584B096
:102B50009C460EAB1F78129B9146BA460D9C109E68
:102B6000119D9B074CD4002D41D1B44248D2012382
:102B7000129F1F40B8460C9B5F1E302303E00134B8
:102B80003B55A64201D9202CF9D14346002B00D158
:102B900087E00C9B5F1E3023A54204D830E001344F
:102BA0003B55AC422CD0202CF9D1129BDB060DD525
:102BB000129B5B0557D4A64267D0A54265D00F9BF8
:102BC000102B53D0022B5BD0202C36D12023129C0B
:102BD00001930C9B4A460093039463460295FFF7CA
:102BE0005DFF04B0E0BCBA46B146A846F0BD012383
:102BF000129A13409846012313422DD1B442BAD3FE
:102C0000129BDB061ED5129B5B05D8D4002CD2D1BB
:102C10000F9B102B60D00F9B022B71D0302301240F
:102C20000C9A13705346002B11D1129B5B0740D5B1
:102C30002B260C9A631C1655C9E723000134302655
:102C40000C9AD654202CC1D05346002BEDD02D2603
:102C50000C9A631C1655BAE7002F34D0013DB442DC
:102C600000D288E795E70F9B102BAFD1129B9B06F4
:102C70003CD5202CAAD058230C9A13550134A3E735
:102C8000202CA3D02300013407E0631E012CBFD009
:102C90000F9A102A36D0022AD1D162260C9AD65425
:102CA00092E7129BDB06CDD5129B5B0500D482E731
:102CB00085E7129A2300160700D488E720260C9A8D
:102CC0000133165583E70C2313405F1EBB41ED1AF9
:102CD000B44200D24FE75CE7129B9B060ED47823E8
:102CE0000C9A02241370302353709BE7202C00D1E0
:102CF0006CE778230C9A1355013465E75823EFE706
:102D00006033EDE70C9AA61EB618129A920602D509
:102D10005822327093E77822327090E710B500287D
:102D200000D110BD01F0AEFBFBE7C04610B5002896
:102D300003D04A680B681100984710BDF0B54E46A5
:102D4000DE4657464546E0B595B0834689469246ED
:102D500098461E9A1F9B10001900209EFFF7C9FA83
:102D6000002800D0D2E11E981F990122C44B524284
:102D7000FFF7A4FA002800D001E11E981F99012254
:102D8000C04B5242FFF7B0FA002800D0D6E01E98A0
:102D90001F990022BC4BFFF7A7FA002800D0B5E02E
:102DA0001E981F990022B94BFFF788FA002800D01F
:102DB000ACE01E981F9900220023FFF77FFA00283D
:102DC00000D0D1E000230B93229B5B0500D40626A4
:102DD0000024302306E006AA013417321355013EC1
:102DE000202C01D0092EF6D81E981F99FFF7AAFAB9
:102DF000A74BF2009B180CCB050008920993FFF734
:102E000089FA02000B001E981F99FFF7E4F9089A4F
:102E1000099BFFF710FA06900791FFF7B7FA070032
:102E2000FFF774FA02000B0006980799FFF7D3F931
:102E30000022984B06900791FFF756FA002800D120
:102E4000E9E001373800FFF761FA02000B0008984B
:102E50000999FFF739FA002801D000270135002E23
:102E600000D1B7E0069513E0172306AA9B180A21A4
:102E7000380001341D19FEF773FF30312970380016
:102E80000A21013EFEF76CFF092F00D8E1E00700A0
:102E9000202CE9D1069D20240CAB0693172706AB06
:102EA000FF180DE028000A21FEF732FF013430310F
:102EB000280039550A21FEF72BFF051E00D1B7E087
:102EC000202CEFD10323229A1340012B17D1219BF1
:102ED000002B14D00B9B002B00D1E3E0219B013B86
:102EE0002193202B0BD93023219A06E006A9013427
:102EF00017310B55944200D3A0E0202CF6D1229B31
:102F000001940393219B0293069B21E0229B52464E
:102F10000493219B4946039358461E9B1F9C02968F
:102F200000930194434600F043F90400200015B0DB
:102F3000F0BCBB46B246A946A046F0BD229B5B074B
:102F40000FD40322544B22990192039121990291AB
:102F500000935246434649465846FFF79FFD0400FA
:102F6000E4E704224D4BEEE71E9A1F9B0020002150
:102F7000FFF731F901231E901F910B9324E70223E1
:102F8000229A54461A40229B06929B0700D1ACE03D
:102F90002600434D08942F1F3200E87843464946E7
:102FA000013DD8470136BD42F6D1089C069B04344A
:102FB000002BBBD05746219AE31B9A42B6D9150085
:102FC00022004346494620200134D847E31BAB4248
:102FD000F6D3ABE72800FFF79DF902000B001E981F
:102FE0001F99FFF7F8F82B4B002206000F00FFF7A0
:102FF00065F90CAB0693002800D04FE700223000A3
:103000003900244BFFF770F9002800D046E7012370
:1030100001359D4342E70022069807991D4BFFF7B3
:103020004DF9002800D01AE7002F59D1013716E7D3
:103030000323229A1340012B00D1A6E0202C00D1BB
:103040005DE70B9B002B3AD02D23069A13550134D4
:1030500055E7069D202C00D11DE73023361906E0E8
:1030600006AA013417321355202C00D113E7A642CB
:10307000F6D12E230CAA0134069293550EE7C046D2
:10308000FFFFEFFFFFFFEF7F65CDCD4165CDCDC1E8
:10309000F04C00100000E03FA8490010A0490010CB
:1030A000B04900100C23229A134257D0219B013BB8
:1030B0002193A34200D916E7202C00D11FE7229BC1
:1030C0005B0704D52B23069A1355013417E7229B7F
:1030D0001B0700D413E72023069A135501340EE78B
:1030E000FB0700D4BBE60137B9E6219B042B00D8CF
:1030F0004EE755464F46043CE4182A004346013546
:1031000039002020D847AC42F7D141E70227229B63
:1031100055461F409B0726D006975F46234EEC1C62
:103120002A00B078434649460135B847013EAC42D3
:10313000F6D1069F002F00D1F8E65746219AE31BEF
:103140009A4200D8F2E61500220043464946202064
:103150000134D847E31BAB42F6D3E7E6219BA342F9
:1031600000D9C0E6CBE6219B032BD5D90697544660
:103170004F46033DED18220043460134390020201C
:10318000D847A542F7D1069FC6E7219B002B00D167
:1031900054E70B9B002B85D0219B013B21939C4244
:1031A00000D2A0E6202C00D04EE7A8E6AC490010E3
:1031B000F0B54546DE4657464E46E0B59BB0249CEA
:1031C000259D824688469346994622002B00200082
:1031D0002900FFF78EF8002800D0C1E0012220006E
:1031E00029007C4B5242FFF77FF8002800D0B7E05F
:1031F000012220002900784B5242FFF75FF8002897
:1032000000D0ADE00022002320002900FFF756F88F
:10321000002800D0BBE108940995089809998023FB
:10322000289ADB001A400F928022289E1201164035
:1032300032000E96289E0F000A901E4200D0A4E095
:103240000B00034300D0CBE0002A00D012E2320092
:1032500006332693022313400C930223134200D01B
:103260000AE2279B042B00D215E200270426043B28
:103270000E930022002320002900FFF71FF80028EA
:1032800000D0C8E1554B289A134004930E9B03933A
:10329000269B0293089B099C0093019441464B4650
:1032A0005A465046FFF74AFD02002020289B002581
:1032B000034059424B415B421840531C089341461E
:1032C0004B464530D047FB17FC185C40FB0F1F27CF
:1032D0000A93731E0E930AABFF1806E020000A2122
:1032E000FEF73EFD0400202D08D00A212000FEF745
:1032F00037FD013530317955092CEFD80523069378
:103300000E9B56460593002304930A3303930A9BAE
:103310004146029312AB009330004B46089A019548
:10332000FFF710FC0C9B002B28D05F46279BC41B8B
:10333000A34223D982461D003A194B46414620201C
:103340000134B047A542F7D850465946279C421A47
:1033500001320023944200D395E1013018180DE0AA
:10336000289B009401950493279B0393269B02932B
:103370004B465A4641465046FFF7E0FC1BB0F0BCB6
:10338000BB46B246A946A046F0BD01432AD10E9BDA
:103390003200002B00D15DE70027269B0026BB42B0
:1033A00000DD82E10022002320002900FEF786FFD5
:1033B000002800D04BE1289B084A02961A4080233F
:1033C000DB0013430493279B0393089B099C009302
:1033D0000194CDE7FFFFEF7FFFFFEFFFFFF7FFFF58
:1033E00006232693B24B7800400DC018FEF792FFDB
:1033F000B04AB14BFEF71FFFB04AB14BFEF7F4FEE7
:103400003F03B04B3F0B3B430C900D9100220A98B9
:103410001900AD4BFEF7DFFEAC4AAD4BFEF70BFFDC
:1034200002000B000C980D99FEF7DEFEFEF78AFFF6
:103430000700FEF76FFFA74AA74B0A900B91FEF714
:10344000FAFE0022A54BFEF7CFFEFEF77BFFA44A53
:1034500006000A980B99A34BFEF7EDFE0A900B911C
:103460003000FEF757FFA04AA04BFEF7E4FE020033
:103470000B000A980B99FEF7AEFE02000B000A90B3
:103480000B91FEF7D8FE0C900D910A980B99020053
:103490000B00FEF7A9FE0022109011910C980D99D7
:1034A000934BFEF7AAFE0022924BFEF79DFE020010
:1034B0000B000C980D99FEF7A0FE00228E4BFEF734
:1034C00093FE02000B000C980D99FEF796FE0A9AE7
:1034D0000B9B0C900D9180210020C905FEF77BFE0F
:1034E00002000B000C980D99FEF77EFE02000B0007
:1034F00010981199FEF781FE0022724BFEF774FEC0
:103500007E4B0022F6183305FEF795FE02000B00F5
:103510000A900B9108980999FEF7D0FE002808D070
:103520000A980B990022734BFEF767FE0A900B91E5
:10353000013F0A990B9A0B0011003A006332C62A28
:1035400012D802222898042610400E9A0C90002AC5
:1035500026D1279B042B05D9002800D0A1E0279B6A
:10356000043B0E93042642E00222289810400E9A53
:103570000C90002A13D1279B052B00D889E0002846
:1035800000D084E0279B0526053B0E9332E0802384
:103590001B069C46AC446346089409933DE6052609
:1035A0000B4300D1F9E608980999554A554BFEF7A7
:1035B00093FE002808D0089809990022524BFEF784
:1035C0007DFE002800D0E8E6269B002B34D00F9B20
:1035D000002B31D0269B013B2693279BB34204D975
:1035E0000C9B002B59D002230C9300230E93002F29
:1035F00000D13EE60A9A0B9B08980999FEF7FDFD5B
:10360000002208900991002320002900FEF756FEB1
:10361000002800D136E6089C099D289A80203B4B63
:1036200000061340220004930E9B0393269B0293F3
:103630002B180092019331E6279BB342D5D90C9BFE
:10364000002B2AD000230E9302330C93CFE7289B44
:103650002E4A8020089C099D1A408023DB001343DA
:1036600022000493279B000603932B1800920193DA
:1036700002967DE6052695E600230E930233002789
:1036800004260C93F5E54B1E1B191B1A65E6022355
:103690000C930526AEE70423E7E5279B9B1B0E93BF
:1036A000A5E7022304260C93A1E7DB1B5E1E79E647
:1036B00001FCFFFFFB799F501344D33FB3C8608BDD
:1036C000288AC63F0000F03F0000F83F61436F6367
:1036D000A787D23F71A379094F930A400000E03FCA
:1036E0001655B5BBB16B0240EF39FAFE422EE63FEC
:1036F00000002C400000244000001840FF030000A0
:103700002D431CEBE2361A3F80842E41FFF7FFFF6A
:10371000F0B55746DE464E464546E0B5A3B01F001D
:103720002C9B92460C93C94AC94B8B460B901A604E
:10373000002900D1BFE1002338789946002800D144
:10374000C1E1C44B4C460993C34B0E935B460A93AD
:1037500008E0220053460A990B9DA84701343878A7
:10376000002876D001372528F3D110239B46083B4B
:103770009946043B9846033B002602259C46387830
:10378000791C0300203BDBB2102B03D8099A9B0065
:10379000D3589F460300303B092B36D900252A28F1
:1037A00000D1A7E000230D932E283FD00300683BF3
:1037B000DBB2122B1BD80E9A9B00D3589F46634650
:1037C0000F001E43DBE70F002E43D8E743460F00F0
:1037D0001E43D4E75B460F001E43D0E74B460F0065
:1037E0001E43CCE7802378785B001E4301310F0035
:1037F000672845D82428ACD90300253BDBB2422BEF
:10380000A7D896499B00CB589F460025AB005D1971
:103810006D002D1808780F000300303B303D01315A
:10382000092BF3D900230D932E28BFD130228020FD
:1038300052429046C000064378780B0080444246CE
:10384000092A00D851E12A2800D15EE10F00013198
:10385000ACE70A9BA1469B46CA4503D801235B42BD
:103860005344994653464A46594600200B9DA84763
:10387000200023B0F0BCBB46B246A946A046F0BD2E
:103880000300693BDBB20F2B00D962E701219940AD
:103890008846734A11408B46110042460A4200D0C6
:1038A00013E10A2B2FD0072B00D052E70C9D01CD3E
:1038B000002800D134E121231E43B0461F260D9A73
:1038C00012ABF618A14694465946340002E00009AE
:1038D00020290AD00F26064032003732092E00D8A0
:1038E000073A013162540F28F1D863464C468B46A3
:1038F0000D9322E10C9B20CB002D52DB78780C93AA
:103900000F0001314EE70C9B0D9904CB90469B466E
:10391000002900D128E1434618784144002801D10C
:1039200000F029FC0D9A94460A0004E0597801330E
:10393000002900D195E19A42F8D163460D934346A0
:10394000D31A0F93730500D46CE10F9B0D9A934229
:1039500000D90F9202231A0032400C92334200D158
:1039600091E20C930D9BB9461E1943461B1BA846BA
:1039700022001F000B9D08E0541C53460A99A847DB
:10398000385D002800D163E122009642F4D145461B
:103990004F4634000C9B002B00D097E15B460C9304
:1039A000DDE60222787816430F006D420C93013158
:1039B000F8E678786C2800D159E180235B001E433B
:1039C000013114E780239B0078781E4301310EE714
:1039D0007878682800D150E1802301311E4306E742
:1039E000672800D1C2E0472800D134E1452800D142
:1039F00034E107210C9B0D9A07338B431900049681
:103A0000039502920CC90B98009201930C9122002D
:103A100053460A99FFF7CCFB0400A0E6462800D1E4
:103A2000A8E007210C9B0D9A07338B4319000496DD
:103A3000039502920CC90B98009201930C912200FD
:103A400053460A99FFF77AF9040088E61137001007
:103A5000FC050020544B0010984B0010E44B001064
:103A6000419000002200534625200A990B9DA8474B
:103A7000013474E60C9B04339B46631C9846B607DE
:103A800000D4FFE00C9B220018780A9953460B9E45
:103A9000B0476419012D00D849E245460B9EB8464F
:103AA0000A9F2A005346013539002020B047A5421D
:103AB000F7D1474672E7DB4B38780B9300239946E2
:103AC000002800D03DE60024C6E66F2855D000D877
:103AD000BCE21023782800D19EE09E430A239C4636
:103AE00000230F930A339B464DE000218A005218B1
:103AF000520001331118187830390200303A092A7F
:103B0000F4D90D911F00591C50E60C9BB87804CBDA
:103B10000237D143C9170A400D920C93791C45E630
:103B2000102330009843113318438023804630001F
:103B3000DB0018401E4200D1C0E64346069308232E
:103B400005930D9B220004931023039300230293FB
:103B50005B4601931AAB00930A9953460B98FEF704
:103B6000F1FF0C950400FAE50139D4E680231B012E
:103B70001E433EE720231E4353E708239C460023B1
:103B80000F9308339B4680233000DB0018401E4211
:103B900000D11AE10D233100994380230A009B00D4
:103BA0001A409146194200D0C3E180230A005B000D
:103BB0001A4090460C9A04320F92194200D08FE2BC
:103BC0004B0600D597E10B0600D4E5E20C9B1B8861
:103BD00099464B46002B00D005E21033994300284C
:103BE00000D100E2002398460D9B069104935B46AA
:103BF00003930023059502934346D9E0582808D043
:103C0000622878D102239C4600230F9302339B46FF
:103C1000B9E720231E43103B9C4600230F9310332B
:103C20009B46B0E702231A0032400C92334200D187
:103C300005E20C934346B9460B9E0A9FA8461D1BFE
:103C40002200534639000134B047285D0028F7D1DF
:103C500045464F469EE680231B011E4320231E43FC
:103C6000C7E662460D9242469B1A0F936AE6C0234E
:103C70009B00B8781E43F91CB9E5C023B8781E43F1
:103C8000F91CB4E5012D00D84AE1631E9946A94408
:103C90004B4652462600A146BA461C001700A846CD
:103CA0000B9D32003B00013620200A99A847A6420E
:103CB000F7D13B0057469A464C460C9B3200187889
:103CC0000A9953460B9D4444A84767E6A0460F9BBC
:103CD0009D4200D862E62C190B9E4546B8460A9FC5
:103CE000E41A2A005346013539002020B047A54286
:103CF000F7D1474652E680233200DB001A40904657
:103D00001E4200D1F3E011218E43B4469846802331
:103D100062469B001A40934662461A4259D180235C
:103D20005B001A4091460C9A04320F9262461A4286
:103D300000D0A0E163465B0600D5D4E063461B06D5
:103D400000D412E20C9B00229B5ED8171918414048
:103D500089B2DA0F0C92002B00D187E188461F262A
:103D600012ABBB461495F71845464E46E046A146B1
:103D700006E028000A21FDF7F3FF0500202E08D0F9
:103D80000A212800FDF7ECFF01363031B955092D25
:103D9000EFD84C46C446B1465F46149D6346069331
:103DA0000D9B059504930A2303930C9B02934B46AA
:103DB00001931AAB220000930A9953460B98FEF721
:103DC000C1FE0F9B04000C93C9E40C2331009943FE
:103DD000E3E60822072191460C9B07338B43994465
:103DE0004A460ACB08000C92DA0F9346184300D0DB
:103DF00085E0002399464346002B2FD10022002363
:103E00001092119300231F26994612ABF6185B46B9
:103E10001495BB46E04637000F934E46A146109CD2
:103E2000119D05E0992A001004000D00202E0CD0F1
:103E30000A22002320002900FDF7D0FF013630328E
:103E4000BA55002DF0D1092CEED80F9B1094119586
:103E50005F464C46C446B1469B46149D6346069356
:103E60000D9B059504930A2303935B4602934B46EF
:103E700001931AAB220000930A9953460B98FEF760
:103E800061FE04006BE40F9B9D4200D896E1802305
:103E9000DB000C930F9B2E19F61A43460F930D9BD4
:103EA000A84699465346BA461F000B9D22003B0088
:103EB000013420200A99A847B442F7D10F9B454608
:103EC00098464B460D933B0057469A464346187812
:103ED000002800D162E56B1C0F930C9B002B00D1D6
:103EE000A8E600233DE50C9B1B78190031E7102361
:103EF0009E43B4460BE70C9B1B78994669E6DA179C
:103F0000129213924A401092129813990A005A4042
:103F10001192109A119B121A8B411092119371E712
:103F20000C9B220018780A9953460B9CA0474446E4
:103F300034E50822072690460C9B0733B343984488
:103F400042460C921A685B68149208931300089A10
:103F5000134305D11033994300239846002838D1E4
:103F600061208B0600D5412000231F2698465A4623
:103F700012ABF618030018920F9A0A3BB146169539
:103F8000179419974446664690469B46149F089D91
:103F9000159103E007000D00202C13D03200002300
:103FA00038002900FDF71AFF5B46D2B2D318092A60
:103FB00001D8130030334A4601341355A845E9D1DE
:103FC000BE42E7D9189BA0469B461599169D179CA3
:103FD000199F0D9B069104935B460393002305955F
:103FE0000293434644E761208B0600D541201F26FB
:103FF00012ABF21803000A3B0C934B464646A1460F
:10400000A8461C005D461491BB46170002E0040060
:10401000202E0DD029002000FDF7A2FE0C9BCB180E
:10402000092901D80B0030330136BB55AC42EED222
:104030005F464C46AB4614994546B046D4E50F9BC7
:104040009D4200D926E701330F93F3E51023320098
:104050009A439446692800D0A2E080233200DB0016
:104060001A4090461E4200D151E64CE64346002BD2
:1040700000D093E673E60C9B1B68DA0F002B70D020
:10408000D9175B184B4098461F2612ABF618A1466D
:1040900014955C464546BB46E04637000C9206E068
:1040A00028000A21FDF75CFE0500202C08D00A211B
:1040B0002800FDF755FE013430313955092DEFD870
:1040C0005F46C446A3464C46149D0C9A634606932D
:1040D0000D9B059504930A23029203935B4667E6C2
:1040E0000C9B1B689846002B03D110339943002882
:1040F0002DD161208B0600D541201F2612ABF6186A
:1041000003000A3B4A460C93149143463100A846EB
:10411000A1465E461400BB461D000F0002E00500EC
:10412000202C0DD031002800FDF71AFE0C9BCB1877
:10413000092901D80B00303301343B55B542EED28A
:1041400023005F464C464546B346994614990D9B5D
:10415000069104935B4603930023059502934B4617
:1041600026E64346002BB1D18EE70C9B1B68D8177F
:1041700019184140EDE580233200DB001A400F9210
:104180001E420FD00230020032400F92304219D04E
:104190000023A0460F939AE50C9B1B68994618E5EF
:1041A00016009BE402231A0032400C92334200D0E6
:1041B0008CE5002D00D06DE6FFF7F0FB01330F9387
:1041C000FFF7D0FB0C93F4E700B585B00391012114
:1041D00002900093034813004A4202A9FFF798FA9D
:1041E00005B000BD2D2D001010B5094A030014685C
:1041F00084B0002C08D0012200910648524203A945
:10420000A047012004B010BD00F086F90020F9E7B6
:10421000FC0500201D2D001000BEFDE710B5FFF7C6
:10422000FBFFC04670B5FDF74DFC074D074EB5428C
:1042300009D20024013E761BB608013608CD0134B0
:104240009847B442FAD170BDFC48001000490010F4
:10425000030010B5080011001B68984710BDC04648
:10426000F8B5437D07000D001600002B38D0002A5A
:104270001ADD0B780A2B18D00020012E09D001245A
:1042800021006B5C01340A2B1AD0B442F8D186426B
:1042900003DD311A3B6828189847AD19013D2B788A
:1042A0000D3B5A4253413B75F8BD037D002BE3D1D2
:1042B00002210E483B689847012EEED00120DEE730
:1042C0006B1E5B5C0D2BE0D0884203DA091A3B6859
:1042D00028189847054802213B6898472000D4E7F2
:1042E0000368110028009847DEE7C046404D0010E3
:1042F000F0B5C6460B6807000D0000B5802B06D050
:104300005A1C2A60ED182F7180BCB846F0BD0F4BC7
:104310001C68002C16D00B1D98460D4E02E0246937
:10432000002C0FD02368002BF9D03368002B01D06C
:10433000A342F4D1200041462A68FFF791FF246987
:10434000002CEFD101220023DBE7C046F40500205A
:10435000F8050020F0B54646D6464F46C0B582B0B7
:1043600090461C0006000D00FDF734F900232F4A8B
:1043700012184B41002B02DA01222D4B52422D49DB
:1043800008008A4600F094FA81466B1C03D1300085
:1043900000F044FA0500002C27D0274F274B1C685B
:1043A000002C18D04346002B21D1254B984602E023
:1043B0002469002C0FD02368002BF9D043461B68DA
:1043C000002B01D09C42F3D120002A003100B847D5
:1043D0002469002CEFD14B46002B23D1280002B0DA
:1043E000E0BCBA46B146A846F0BD164FD6E7144B1E
:1043F000984602E02469002CEDD02368002BF9D008
:1044000043461B68002B01D0A342F3D12A003100A0
:104410002000B8476B460A222000DA71D91D093AFC
:10442000B847E7E7504600F02BFAD7E740420F00C5
:10443000FFFFFF7F3802002061420010F4050020DA
:10444000F8050020514200100A4A1368002B05D1DC
:104450000CE01A001B691032002B07D08342F8D100
:10446000002902D118691060196170470029FCD039
:104470001060FAE7F405002010B500F0A7F901205C
:1044800010BDC046F0B5CE46474680B583B06B46FA
:104490000600DD1D2870FDF79DF80023194A12184B
:1044A0004B41002B02DA0122174B524217490800F8
:1044B000894600F0FDF9164B80461C68002C14D08C
:1044C000144F02E02469002C0FD02368002BF9D090
:1044D0003B68002B01D09C42F4D12000012229002E
:1044E000FFF7BEFE2469002CEFD14346002B05D117
:1044F000300003B0C0BCB946B046F0BD484600F03D
:10450000BFF9F5E740420F00FFFFFF7F38020020B0
:10451000F4050020F805002070B5040000F07EF9D5
:1045200001230100050001222000FFF713FF084BC3
:104530001C68002C06D06368002B05D098472469BE
:10454000002CF8D1280070BD2469002CF3D1F9E7C4
:10455000F4050020F0B5CE46474680B5A3B0040070
:104560000E00FDF737F80023264A12184B41002BA6
:1045700002DA0122244B5242244800F099F9002328
:104580002200019380463300214801A9FFF71CFE59
:10459000204F019B81463C68002B19D0002C2FD066
:1045A0001D4E02E02469002C0FD02368002BF9D0A7
:1045B0003368002B01D0A342F4D12000019A02A954
:1045C000FFF74EFE2469002CEFD100233C680193D5
:1045D000002C06D06368002B0CD098472469002C6F
:1045E000F8D14346002B07D1484623B0C0BCB9469A
:1045F000B046F0BD2469EBE7044800F041F9F3E769
:104600000194EEE740420F00FFFFFF7F38020020D9
:10461000F1420010F4050020F80500200FB400B5A9
:1046200083B004A901C90191FFF794FF03B008BC4E
:1046300004B01847F0B5002915DD0E4B0D271A6898
:104640000D4B0E4CD3185D426B41451820215B0089
:104650001E5F0478A64207D093691942FCD101304D
:104660001460A842F5D1F0BD93691942FCD11760DE
:10467000F2E7C046340600200080FCBF3006002070
:104680001F4B30B51B680D1E9C462ADD441E1021B1
:1046900000201C4B1A689369194214D101309369A8
:1046A0001942FCD1136823548542F4D16346002B90
:1046B00007D050239363516B183B0B40124952189B
:1046C0001360280030BD6346002B07D0502393634E
:1046D000516B183B0B400C49521813600028F1D164
:1046E0000BE0002B09D05022064B1B689A63596BD4
:1046F000183A0A4004495B181A6003204042E1E777
:10470000C00500203406002034100000064B10B510
:104710001B68002B06D00021044A12689163044AEA
:104720001068984710BDC046C00500203406002020
:10473000C40500200822034B19688B691A42FCD17A
:104740007047C0463406002070B51A4E1A4B3268C6
:104750000400D31858424341184D143318002B68F5
:10476000002C02D0002B0FD070BD002BFCD0060017
:1047700000219463FCF7DEF930001149FCF716FACA
:10478000104B2C601C60EFE72C6004000D4B19608F
:104790000B49FCF7E1F901212000FCF7CBF950228D
:1047A00033689A63596B183A0A4007495B181A60D4
:1047B000DAE7C046340600200080FCBFC0050020B8
:1047C0000D470010C4050020341000000D4B10B53B
:1047D0001B780D4B0D4C1B780D4B02211B780D4B9C
:1047E00000202360FCF7F2F802210120FCF7EEF82C
:1047F000E12120684902FCF73DFF01210648FFF74F
:1048000023FE10BD844D0010804D001034060020A2
:104810007C4D00100040034020020020030084462D
:104820009B070BD00300032102E001330B4206D0AB
:104830001A78002AF9D16246981A7047030019685D
:104840000C4A0D488A188A4302420FD15968094A16
:1048500004338A188A43024208D15968054A04334E
:104860008A188A430242F1D000E001331A78002A04
:10487000FBD1E0E7FFFEFEFE80808080F8B5C046F9
:1048800001B40248844601BC604700BF59010020C2
:1048900001B40248844601BC604700BF810100208A
:1048A00001B40248844601BC604700BF810100207A
:1048B00001B40248844601BC604700BFC10000202B
:1048C000ED1A0010191B0010011D0010712A0010B4
:1048D000A5230010DD290010291C0010351B001035
:1048E000551B0010691B0010390E0010711B0010C1
:1048F000AD110010B51A0010ED0A0010B102001041
:10490000456E6372797074656420646174613A0005
:1049100025303278200000000A2A2A2A2050414EF1
:104920004943202A2A2A0A000A00000048617264CA
:104930007761726520616C61726D20256420616C05
:10494000726561647920636C61696D656400000063
:1049500048617264206173736572740052656C659E
:1049600061736500626F6F74325F77323571303812
:1049700030000000322E322E300000007069636F6C
:1049800000000000667572695F656E63727970740D
:10499000696F6E004D61722020392032303236004E
:1049A000666E692B00000000666E69006E616E0025
:1049B000666E692D000000005541525420737464E6
:1049C000696E000055415254207374646F75740011
:1049D0005541525420737464696E202F207374649F
:1049E0006F75740048656C6C6F43756265536174D4
:1049F000210000008D01020408102040801B3600B9
:104A0000637C777BF26B6FC53001672BFED7AB768B
:104A1000CA82C97DFA5947F0ADD4A2AF9CA472C036
:104A2000B7FD9326363FF7CC34A5E5F171D83115A3
:104A300004C723C31896059A071280E2EB27B275C4
:104A400009832C1A1B6E5AA0523BD6B329E32F843C
:104A500053D100ED20FCB15B6ACBBE394A4C58CF34
:104A6000D0EFAAFB434D338545F9027F503C9FA808
:104A700051A3408F929D38F5BCB6DA2110FFF3D2D6
:104A8000CD0C13EC5F974417C4A77E3D645D19738A
:104A900060814FDC222A908846EEB814DE5E0BDB84
:104AA000E0323A0A4906245CC2D3AC629195E479BB
:104AB000E7C8376D8DD54EA96C56F4EA657AAE0815
:104AC000BA78252E1CA6B4C6E8DD741F4BBD8B8AB0
:104AD000703EB5664803F60E613557B986C11D9E16
:104AE000E1F8981169D98E949B1E87E9CE5528DF8D
:104AF0008CA1890DBFE6426841992D0FB054BB16B9
:104B000006005250D3F075425C4900100600525026
:104B1000E182887F6449001006005250ABB36053B5
:104B20007449001006005250BBFF3CB67C4900108F
:104B300006005250861C03028449001006005250A1
:104B40005422A29D9449001005005250DE65F4687D
:104B5000084F0010DC370010943700109437001015
:104B6000D437001094370010943700109437001099
:104B700094370010943700109437001094370010C9
:104B8000CC37001094370010C6370010943700104F
:104B900094370010BE370010D0390010EE370010E7
:104BA000C4390010EE370010B2390010EE37001093
:104BB000EE370010EE370010EE370010EE37001021
:104BC000EE370010EE370010E4370010EE3700101B
:104BD000EE370010EE370010EE370010EE37001001
:104BE000E4370010643A00105237001052370010BA
:104BF0005237001052370010523700105237001051
:104C00005237001052370010523700105237001040
:104C10005237001052370010523700105237001030
:104C20005237001052370010523700105237001020
:104C30005237001052370010523700105237001010
:104C40005237001052370010523700105237001000
:104C500052370010523700105237001052370010F0
:104C600052370010E03900101C3A0010E0390010F3
:104C700052370010523700105237001052370010D0
:104C800052370010523700105237001052370010C0
:104C900052370010523700105237001052370010B0
:104CA00052370010523700105237001052370010A0
:104CB000FC3B0010523700105237001052370010E2
:104CC0005237001052370010523700105237001080
:104CD0005237001052370010FC3B0010743A00109D
:104CE000FC3B0010E03900101C3A0010E0390010C5
:104CF000000000000000F03F000000000000244021
:104D000000000000000059400000000000408F40FB
:104D1000000000000088C34000000000006AF84066
:104D20000000000080842E4100000000D01263418A
:104D30000000000084D797410000000065CDCD4100
:104D40000D0A00000600525053B4F4A1D0490010DF
:104D5000080052501200000008005250921000004B
:104D6000004B00100C4B0010184B0010244B00108F
:104D7000304B00103C4B0010484B0010584D0010B9
:084D8000504D0010444D0010DD
:104D8800F0B5C646160000B504001F000268EFF330
:104D9800108172B61368002BFCD0BFF35F8F042319
:104DA800E3562268002B2BDBBFF35F8F00201060D7
:104DB80081F31088D02212061278002552B290464C
:104DC8009A420ED1002080BCB846F0BDBFF35F8F79
:104DD800156081F310883000390000F035F800289C
:104DE800F0D12268EFF3108172B61368002BFCD063
:104DF800BFF35F8F237922687F2BE7D9434602E010
:104E0800D0231B061B682371BFF35F8F0023136039
:104E180081F310880120D6E70268EFF3108172B69B
:104E28001368002BFCD0BFF35F8FFF230371036867
:104E3800BFF35F8F00221A6081F3108840BF70476C
:104E48007047C0460000000001B40248844601BC17
:104E5800604700BFB11400101000000000000000FF
:104E68000000010000000000000000000000020037
:104E78000000000000000000000003000000000027
:104E8800000000000000FF000000000001B54868B5
:104E980001318E460047704609380149884701BDEF
:104EA800750D001000000000000000000000000068
:104EB8000000000000000000400200200000000088
:104EC800503300004C3300005433000052330000CC
:104ED8004D5300004D43000053340000433400009C
:104EE800354600103547001081460010494700102C
:104EF80000000000000100000000000000000000A9
:04000005100001E9FD
:00000001FF
